{
  "_format": "hh-sol-artifact-1",
  "contractName": "PacaBingo",
  "sourceName": "contracts/PacaBingo.sol",
  "abi": [
    {
      "inputs": [
        {
          "internalType": "address",
          "name": "_usdtToken",
          "type": "address"
        },
        {
          "internalType": "address",
          "name": "_stakingContract",
          "type": "address"
        }
      ],
      "stateMutability": "nonpayable",
      "type": "constructor"
    },
    {
      "anonymous": false,
      "inputs": [
        {
          "indexed": true,
          "internalType": "uint256",
          "name": "gameId",
          "type": "uint256"
        },
        {
          "indexed": false,
          "internalType": "enum PacaBingo.GameMode",
          "name": "mode",
          "type": "uint8"
        }
      ],
      "name": "GameCreated",
      "type": "event"
    },
    {
      "anonymous": false,
      "inputs": [
        {
          "indexed": true,
          "internalType": "uint256",
          "name": "gameId",
          "type": "uint256"
        },
        {
          "indexed": false,
          "internalType": "address",
          "name": "winner",
          "type": "address"
        }
      ],
      "name": "GameFinished",
      "type": "event"
    },
    {
      "anonymous": false,
      "inputs": [
        {
          "indexed": true,
          "internalType": "address",
          "name": "previousOwner",
          "type": "address"
        },
        {
          "indexed": true,
          "internalType": "address",
          "name": "newOwner",
          "type": "address"
        }
      ],
      "name": "OwnershipTransferred",
      "type": "event"
    },
    {
      "anonymous": false,
      "inputs": [
        {
          "indexed": true,
          "internalType": "uint256",
          "name": "gameId",
          "type": "uint256"
        },
        {
          "indexed": true,
          "internalType": "address",
          "name": "player",
          "type": "address"
        }
      ],
      "name": "TicketPurchased",
      "type": "event"
    },
    {
      "inputs": [
        {
          "internalType": "enum PacaBingo.GameMode",
          "name": "mode",
          "type": "uint8"
        }
      ],
      "name": "buyTicket",
      "outputs": [],
      "stateMutability": "nonpayable",
      "type": "function"
    },
    {
      "inputs": [],
      "name": "currentGameId",
      "outputs": [
        {
          "internalType": "uint256",
          "name": "",
          "type": "uint256"
        }
      ],
      "stateMutability": "view",
      "type": "function"
    },
    {
      "inputs": [
        {
          "internalType": "uint256",
          "name": "",
          "type": "uint256"
        }
      ],
      "name": "games",
      "outputs": [
        {
          "internalType": "enum PacaBingo.GameMode",
          "name": "mode",
          "type": "uint8"
        },
        {
          "internalType": "uint256",
          "name": "prizePool",
          "type": "uint256"
        },
        {
          "internalType": "bool",
          "name": "active",
          "type": "bool"
        }
      ],
      "stateMutability": "view",
      "type": "function"
    },
    {
      "inputs": [
        {
          "internalType": "uint256",
          "name": "gameId",
          "type": "uint256"
        }
      ],
      "name": "getGameInfo",
      "outputs": [
        {
          "internalType": "enum PacaBingo.GameMode",
          "name": "mode",
          "type": "uint8"
        },
        {
          "internalType": "uint256",
          "name": "prizePool",
          "type": "uint256"
        },
        {
          "internalType": "bool",
          "name": "active",
          "type": "bool"
        },
        {
          "internalType": "uint256",
          "name": "playerCount",
          "type": "uint256"
        }
      ],
      "stateMutability": "view",
      "type": "function"
    },
    {
      "inputs": [
        {
          "internalType": "uint256",
          "name": "gameId",
          "type": "uint256"
        }
      ],
      "name": "getGamePlayers",
      "outputs": [
        {
          "internalType": "address[]",
          "name": "",
          "type": "address[]"
        }
      ],
      "stateMutability": "view",
      "type": "function"
    },
    {
      "inputs": [],
      "name": "owner",
      "outputs": [
        {
          "internalType": "address",
          "name": "",
          "type": "address"
        }
      ],
      "stateMutability": "view",
      "type": "function"
    },
    {
      "inputs": [
        {
          "internalType": "address",
          "name": "",
          "type": "address"
        }
      ],
      "name": "playerGames",
      "outputs": [
        {
          "internalType": "uint256",
          "name": "",
          "type": "uint256"
        }
      ],
      "stateMutability": "view",
      "type": "function"
    },
    {
      "inputs": [
        {
          "internalType": "enum PacaBingo.GameMode",
          "name": "",
          "type": "uint8"
        }
      ],
      "name": "playerLimits",
      "outputs": [
        {
          "internalType": "uint256",
          "name": "",
          "type": "uint256"
        }
      ],
      "stateMutability": "view",
      "type": "function"
    },
    {
      "inputs": [],
      "name": "renounceOwnership",
      "outputs": [],
      "stateMutability": "nonpayable",
      "type": "function"
    },
    {
      "inputs": [],
      "name": "stakingContract",
      "outputs": [
        {
          "internalType": "contract IStaking",
          "name": "",
          "type": "address"
        }
      ],
      "stateMutability": "view",
      "type": "function"
    },
    {
      "inputs": [
        {
          "internalType": "enum PacaBingo.GameMode",
          "name": "",
          "type": "uint8"
        }
      ],
      "name": "ticketPrices",
      "outputs": [
        {
          "internalType": "uint256",
          "name": "",
          "type": "uint256"
        }
      ],
      "stateMutability": "view",
      "type": "function"
    },
    {
      "inputs": [
        {
          "internalType": "address",
          "name": "newOwner",
          "type": "address"
        }
      ],
      "name": "transferOwnership",
      "outputs": [],
      "stateMutability": "nonpayable",
      "type": "function"
    },
    {
      "inputs": [],
      "name": "usdt",
      "outputs": [
        {
          "internalType": "contract IERC20",
          "name": "",
          "type": "address"
        }
      ],
      "stateMutability": "view",
      "type": "function"
    }
  ],
  "bytecode": "0x60803461013b57610eff90601f38839003908101601f19168201906001600160401b03821183831017610140578083916040958694855283398101031261013b5781816100596020610052601495610156565b9201610156565b60008054336001600160a01b031980831682178455929492936001600160a01b0393909284929083167f8be0079c531659141344cd1fd0a4f28419497f9722a3daafe3b4186f6b6457e08880a36001805516836002541617600255169060035416176003558080526004602052670de0b6b3a76400008282205560018152671bc16d674ec800008282205560028152674563918244f400008282205560038152678ac7230489e800008282205580805260056020526001828220556001815260058282205560028152600a8282205560038152205551610d94908161016b8239f35b600080fd5b634e487b7160e01b600052604160045260246000fd5b51906001600160a01b038216820361013b5756fe608080604052600436101561001357600080fd5b60003560e01c908163023697f01461044557508063117a5b90146103f357806315a40f49146103385780632f48ab7d1461030f57806340056505146102d157806347e1d55014610274578063536a3ddc146102565780636e4107961461022e578063715018a6146101e757806386b7a177146101b65780638da5cb5b1461018d578063ee99205c146101645763f2fde38b146100ae57600080fd5b3461015f57602036600319011261015f576004356001600160a01b038181169182900361015f576100dd610a05565b811561010b576000548260018060a01b031982161760005516600080516020610d3f833981519152600080a3005b60405162461bcd60e51b815260206004820152602660248201527f4f776e61626c653a206e6577206f776e657220697320746865207a65726f206160448201526564647265737360d01b6064820152608490fd5b600080fd5b3461015f57600036600319011261015f576003546040516001600160a01b039091168152602090f35b3461015f57600036600319011261015f576000546040516001600160a01b039091168152602090f35b3461015f57602036600319011261015f57600435600481101561015f576101de6020916109ec565b54604051908152f35b3461015f57600036600319011261015f57610200610a05565b600080546001600160a01b0319811682556001600160a01b0316600080516020610d3f8339815191528280a3005b3461015f57602036600319011261015f57600435600481101561015f576101de6020916109d3565b3461015f57600036600319011261015f576020600854604051908152f35b3461015f57602036600319011261015f5760043560005260066020526080604060002060ff81541690600181015490600360ff600283015416910154916102be60405180956109b0565b6020840152151560408301526060820152f35b3461015f57602036600319011261015f576004356001600160a01b0381169081900361015f5760005260076020526020604060002054604051908152f35b3461015f57600036600319011261015f576002546040516001600160a01b039091168152602090f35b3461015f5760208060031936011261015f5760043560005260068152600360406000200160405190818382549182815201908192600052846000209060005b868282106103d657868661038d82880383610a5d565b604051928392818401908285525180915260408401929160005b8281106103b657505050500390f35b83516001600160a01b0316855286955093810193928101926001016103a7565b83546001600160a01b031685529093019260019283019201610377565b3461015f57602036600319011261015f5760043560005260066020526060604060002060ff8154169060ff60026001830154920154169061043760405180946109b0565b602083015215156040820152f35b3461015f57602036600319011261015f5760043590600482101561015f5760026001541461096e575060026001553360005260076020526040600020546109355761048f816109d3565b54156108fc576002546000906020906001600160a01b031660646104b2856109d3565b5460405194859384926323b872dd60e01b845233600485015230602485015260448401525af19081156107be576000916108dd575b50156108a1576104f681610ad5565b90816000526006602052604060002033600052600760205282604060002055600381018054600160401b81101561083e578060016105379201835582610a98565b81546001600160a01b0360039290921b91821b19163390911b179055600161055e846109d3565b54920191825490810180911161088b576105a1925533847f785f2865353ae960010300f584fc6c577b757a853af69a99c769df3c8232d3de600080a354916109ec565b54146105ae575b60018055005b80600052600660205260406000209060028201549060ff8216156108545760405160208101904282524460408201523360601b6060820152605481526080810181811060018060401b0382111761083e57604052519020600384015480156108285761061e910660038501610a98565b60018060a01b0391549060031b1c16600184019260008454945560ff1916600285015560005b600385015481101561068c57806106616106879260038801610a98565b905460039190911b1c6001600160a01b0316600090815260076020526040812055610ac6565b610644565b5060025460035460405163095ea7b360e01b81526001600160a01b039182166004820152602481018690529395509193929160209183916044918391600091165af19081156107be57600091610809575b50156107ca5760035460405163534a7e1d60e11b81526004810192909252602090829060249082906000906001600160a01b03165af19081156107be5760009161078f575b50156107595760207fb7f35e624e036288272fbf3342c09219261ff29fdddd826989b289134e9ae53591604051908152a2806105a8565b60405162461bcd60e51b815260206004820152600e60248201526d14dd185ada5b99c819985a5b195960921b6044820152606490fd5b6107b1915060203d6020116107b7575b6107a98183610a5d565b810190610a80565b83610722565b503d61079f565b6040513d6000823e3d90fd5b60405162461bcd60e51b815260206004820152601760248201527614dd185ada5b99c8185c1c1c9bdd985b0819985a5b1959604a1b6044820152606490fd5b610822915060203d6020116107b7576107a98183610a5d565b846106dd565b634e487b7160e01b600052601260045260246000fd5b634e487b7160e01b600052604160045260246000fd5b60405162461bcd60e51b815260206004820152600f60248201526e47616d65206e6f742061637469766560881b6044820152606490fd5b634e487b7160e01b600052601160045260246000fd5b60405162461bcd60e51b81526020600482015260146024820152731554d115081d1c985b9cd9995c8819985a5b195960621b6044820152606490fd5b6108f6915060203d6020116107b7576107a98183610a5d565b826104e7565b60405162461bcd60e51b8152602060048201526011602482015270496e76616c69642067616d65206d6f646560781b6044820152606490fd5b60405162461bcd60e51b8152602060048201526011602482015270416c726561647920696e20612067616d6560781b6044820152606490fd5b62461bcd60e51b815260206004820152601f60248201527f5265656e7472616e637947756172643a207265656e7472616e742063616c6c006044820152606490fd5b9060048210156109bd5752565b634e487b7160e01b600052602160045260246000fd5b60048110156109bd576000526004602052604060002090565b60048110156109bd576000526005602052604060002090565b6000546001600160a01b03163303610a1957565b606460405162461bcd60e51b815260206004820152602060248201527f4f776e61626c653a2063616c6c6572206973206e6f7420746865206f776e65726044820152fd5b601f909101601f19168101906001600160401b0382119082101761083e57604052565b9081602091031261015f5751801515810361015f5790565b8054821015610ab05760005260206000200190600090565b634e487b7160e01b600052603260045260246000fd5b600019811461088b5760010190565b906008548080915b610c985750610aeb90610ac6565b60088190556040805190916020916001600160401b03908381018281118282101761083e578552600080825285516080810181811085821117610c84578752600490818a1015610c7157898152868101838152888201906001978883526060840196875285526006895289852092519084821015610c5e5790600393929160ff199160ff838654169116178455518984015560ff6002840192511515918354169116179055019251908151948511610c4b57600160401b8511610c4b575085908354858555808610610c21575b5001918152848120905b838110610c075750505050507f33fbd5015d61fe861a1a149e88720cc4ee49722a3c3dd94d6947600a9de1993890610c0393946008549485945180926109b0565ba290565b82516001600160a01b031682820155918501918401610bc2565b848452868684862092830192015b828110610c3d575050610bb8565b858155899450889101610c2f565b634e487b7160e01b835260419052602482fd5b634e487b7160e01b865260218552602486fd5b634e487b7160e01b835260218252602483fd5b634e487b7160e01b83526041600452602483fd5b600081815260066020526040812060ff91826002830154169283610d05575b505081610cee575b50610ce9578015610cd4576000190180610add565b60246000634e487b7160e01b81526011600452fd5b925050565b600391500154610cfd856109ec565b541138610cbf565b9091809350541690600480881015610d2b5780831015610d2b5750508514903880610cb7565b634e487b7160e01b825260219052602490fdfe8be0079c531659141344cd1fd0a4f28419497f9722a3daafe3b4186f6b6457e0a26469706673582212201b7254af5aaf834011252bbadbeb98359e8ecaa7029dc95dd5b8561a07030bbc64736f6c63430008130033",
  "linkReferences": {},
  "deployedLinkReferences": {}
}