{"contracts/PacaBingo.sol":{"PacaBingo":{"abi":[{"inputs":[],"stateMutability":"nonpayable","type":"constructor"},{"anonymous":false,"inputs":[{"indexed":true,"internalType":"uint256","name":"gameId","type":"uint256"},{"indexed":false,"internalType":"uint256","name":"startTime","type":"uint256"}],"name":"GameStarted","type":"event"},{"anonymous":false,"inputs":[{"indexed":true,"internalType":"uint256","name":"gameId","type":"uint256"},{"indexed":false,"internalType":"uint256","name":"number","type":"uint256"}],"name":"NumberCalled","type":"event"},{"anonymous":false,"inputs":[{"indexed":true,"internalType":"address","name":"previousOwner","type":"address"},{"indexed":true,"internalType":"address","name":"newOwner","type":"address"}],"name":"OwnershipTransferred","type":"event"},{"anonymous":false,"inputs":[{"indexed":true,"internalType":"uint256","name":"gameId","type":"uint256"},{"indexed":true,"internalType":"address","name":"player","type":"address"}],"name":"TicketPurchased","type":"event"},{"anonymous":false,"inputs":[{"indexed":true,"internalType":"uint256","name":"gameId","type":"uint256"},{"indexed":true,"internalType":"address","name":"winner","type":"address"},{"indexed":false,"internalType":"uint256","name":"prize","type":"uint256"},{"indexed":false,"internalType":"enum PacaBingo.WinType","name":"winType","type":"uint8"}],"name":"Winner","type":"event"},{"inputs":[],"name":"FULL_HOUSE_PERCENTAGE","outputs":[{"internalType":"uint256","name":"","type":"uint256"}],"stateMutability":"view","type":"function"},{"inputs":[],"name":"GAME_DURATION","outputs":[{"internalType":"uint256","name":"","type":"uint256"}],"stateMutability":"view","type":"function"},{"inputs":[],"name":"ONE_LINE_PERCENTAGE","outputs":[{"internalType":"uint256","name":"","type":"uint256"}],"stateMutability":"view","type":"function"},{"inputs":[],"name":"TICKET_PRICE","outputs":[{"internalType":"uint256","name":"","type":"uint256"}],"stateMutability":"view","type":"function"},{"inputs":[{"internalType":"uint256[][5]","name":"numbers","type":"uint256[][5]"}],"name":"buyTicket","outputs":[],"stateMutability":"payable","type":"function"},{"inputs":[{"internalType":"uint256","name":"number","type":"uint256"}],"name":"callNumber","outputs":[],"stateMutability":"nonpayable","type":"function"},{"inputs":[],"name":"claimWin","outputs":[],"stateMutability":"nonpayable","type":"function"},{"inputs":[],"name":"currentGameId","outputs":[{"internalType":"uint256","name":"","type":"uint256"}],"stateMutability":"view","type":"function"},{"inputs":[{"internalType":"uint256","name":"","type":"uint256"}],"name":"games","outputs":[{"internalType":"uint256","name":"startTime","type":"uint256"},{"internalType":"bool","name":"hasOneLineWinner","type":"bool"},{"internalType":"bool","name":"hasFullHouseWinner","type":"bool"},{"internalType":"bool","name":"isActive","type":"bool"},{"internalType":"uint256","name":"prizePool","type":"uint256"}],"stateMutability":"view","type":"function"},{"inputs":[],"name":"getCalledNumbers","outputs":[{"internalType":"uint256[]","name":"","type":"uint256[]"}],"stateMutability":"view","type":"function"},{"inputs":[],"name":"getGameInfo","outputs":[{"internalType":"bool","name":"isActive","type":"bool"},{"internalType":"uint256","name":"startTime","type":"uint256"},{"internalType":"uint256","name":"prizePool","type":"uint256"},{"internalType":"uint256[]","name":"calledNumbers","type":"uint256[]"},{"internalType":"bool","name":"hasOneLineWinner","type":"bool"},{"internalType":"bool","name":"hasFullHouseWinner","type":"bool"}],"stateMutability":"view","type":"function"},{"inputs":[],"name":"owner","outputs":[{"internalType":"address","name":"","type":"address"}],"stateMutability":"view","type":"function"},{"inputs":[],"name":"renounceOwnership","outputs":[],"stateMutability":"nonpayable","type":"function"},{"inputs":[],"name":"startNewGame","outputs":[],"stateMutability":"nonpayable","type":"function"},{"inputs":[{"internalType":"address","name":"newOwner","type":"address"}],"name":"transferOwnership","outputs":[],"stateMutability":"nonpayable","type":"function"}],"evm":{"bytecode":{"linkReferences":{},"object":"608080604052346101355760008054336001600160a01b0319821681178355919291906001600160a01b03167f8be0079c531659141344cd1fd0a4f28419497f9722a3daafe3b4186f6b6457e08480a36001805560025490818352600360205260ff600460408520015460101c166100f3575060001981146100df57600491600160409201806002558152600360205220428155016201000062ffffff198254161790556002547fa2dfaa3573b86004ec9d4d4abe5068d942579c59da4da8cd0d9e45e71a393bc16020604051428152a2604051611267908161013b8239f35b634e487b7160e01b82526011600452602482fd5b62461bcd60e51b815260206004820152601960248201527f43757272656e742067616d65207374696c6c20616374697665000000000000006044820152606490fd5b600080fdfe608060408181526004908136101561001657600080fd5b600092833560e01c908163117a5b9014610bfc575080631746bd1b14610b7d5780631a95f15f14610b5c578063482d51e014610a8f578063536a3ddc14610a705780635a7fbabc14610a2c578063715018a6146109e15780637334cbf4146109c557806378253d35146105a15780638da5cb5b14610579578063b5ffd817146102d1578063c31b29ce146102b4578063c489d76714610298578063f1bed61f146101835763f2fde38b146100c957600080fd5b3461017f57602036600319011261017f576001600160a01b0382358181169391929084900361017b576100fa610cc6565b831561012957505082546001600160a01b0319811683178455166000805160206112128339815191528380a380f35b906020608492519162461bcd60e51b8352820152602660248201527f4f776e61626c653a206e6577206f776e657220697320746865207a65726f206160448201526564647265737360d01b6064820152fd5b8480fd5b8280fd5b508290346102945760208060031936011261017f5783356101a2610cc6565b600254808552600383526101c060ff87868820015460101c16610d43565b81151580610289575b1561025557845260038252828420600101805490600160401b821015610242576001820180825582101561022f5785528285200181905560025492519081527f1754f3d9eef4b548e8798e66a0205867a07fc802e7d501a6a1f9aafa63df98019190a280f35b634e487b7160e01b865260328752602486fd5b634e487b7160e01b865260418752602486fd5b835162461bcd60e51b8152808701849052600e60248201526d24b73b30b634b210373ab6b132b960911b6044820152606490fd5b50604b8211156101c9565b5080fd5b83823461029457816003193601126102945760209051601e8152f35b838234610294578160031936011261029457602090516102588152f35b508290346102945781600319360112610294576102ec610dbb565b6002548252602060038152818320918483019283549260ff94610313868660101c16610d43565b60038301923388528383528685892054166003811015610531576105445761033a33610ecb565b9360038510156105315784156104f35788966001860361047c575082548881166104395760ff1916600117835561038b916005915b338b528552868a2060ff198154168a8816179055015484610e11565b95815490808216908161042c575b5061041d575b50508580868015610413575b8280929181923390f115610409576002549383519586526103f65784015233927fee4bb642cb27260852b8eb6d8de870bd4dcb15172193c279c0bc07dafdafa4ca9190a36001805580f35b634e487b7160e01b865260218752602486fd5b82513d87823e3d90fd5b6108fc91506103ab565b62ff000019169055878061039f565b90508160081c168a610399565b865162461bcd60e51b8152808c01869052601e60248201527f4f6e65206c696e65207072697a6520616c726561647920636c61696d656400006044820152606490fd5b89975060028614610495575b5061038b9160059161036f565b888160081c166104b25761ff00191661010017835561038b610488565b60648b86808a519262461bcd60e51b845283015260248201527f46756c6c20686f757365207072697a6520616c726561647920636c61696d65646044820152fd5b855162461bcd60e51b8152808b018590526018602482015277139bc81dda5b9b9a5b99c81c185d1d195c9b88199bdd5b9960421b6044820152606490fd5b634e487b7160e01b895260218a52602489fd5b845162461bcd60e51b8152808a01849052600f60248201526e105b1c9958591e4818db185a5b5959608a1b6044820152606490fd5b838234610294578160031936011261029457905490516001600160a01b039091168152602090f35b50906020806003193601126109c1576001600160401b039282358481116109bd576023903682820112156109b95782519160a08301838110888211176109a6578452829060a48301923684116109a257808801925b84841061090e57505050505061060a610dbb565b65aafc2937c00034036108d35760025495868152600380855261063760ff87868520015460101c16610d43565b8782528085528382205461025881018091116108c05742101561088257815b60058082101561073c578061066b8387610d80565b51510361070357835b81811061068b57505061068690610d1e565b610656565b61069f816106998589610d80565b51610da7565b5180151590816106f7575b50156106be576106b990610d1e565b610674565b865162461bcd60e51b8152808a0189905260136024820152724e756d626572206f7574206f662072616e676560681b6044820152606490fd5b604b91501115386106aa565b855162461bcd60e51b81528089018890526013602482015272125b9d985b1a590818d85c9908199bdc9b585d606a1b6044820152606490fd5b505093949295919096875283855260028688200133885285528587209087905b600582106107e2575050505060025485528183526005848620018054913483018093116107cf5750556002548452808252828420019033845252812060ff198154169055336002547f785f2865353ae960010300f584fc6c577b757a853af69a99c769df3c8232d3de8380a36001805580f35b634e487b7160e01b875260119052602486fd5b805180519085821161086f57600160401b821161086f5788908554838755808410610847575b50908093929101858c52838c208c5b838110610833575050505060019182910193019101909161075c565b8251818301558b9590920191600101610817565b83838e8981522091820191015b8181106108615750610808565b8d81558b9350600101610854565b634e487b7160e01b8b526041875260248bfd5b835162461bcd60e51b8152808701869052601860248201527747616d6520616c726561647920696e2070726f677265737360401b6044820152606490fd5b634e487b7160e01b835260118752602483fd5b505162461bcd60e51b8152918201526016602482015275496e636f7272656374207469636b657420707269636560501b604482015260649150fd5b83358a811161099e57820136848201121561099e5789810135908b821161098b578160051b8951926109428c830185610c8d565b83528a830190602480918401019236841161098757908c9492959391015b8181106109775750508293508152019301926105f6565b80358652948401948c9401610960565b8f80fd5b634e487b7160e01b8d5260418b5260248dfd5b8b80fd5b8980fd5b634e487b7160e01b895260418752602489fd5b8680fd5b8580fd5b8380fd5b8382346102945781600319360112610294576020905160468152f35b8334610a295780600319360112610a29576109fa610cc6565b80546001600160a01b03198116825581906001600160a01b03166000805160206112128339815191528280a380f35b80fd5b838234610294578160031936011261029457610a59600182610a6c94600254815260036020522001610e7a565b9051918291602083526020830190610c59565b0390f35b8382346102945781600319360112610294576020906002549051908152f35b50903461017f578260031936011261017f57610aa9610cc6565b600254808452600360205260ff82848620015460101c16610b1d57610acd90610d1e565b8060025583526003602052818320428155016201000062ffffff198254161790557fa2dfaa3573b86004ec9d4d4abe5068d942579c59da4da8cd0d9e45e71a393bc160206002549251428152a280f35b506020606492519162461bcd60e51b8352820152601960248201527843757272656e742067616d65207374696c6c2061637469766560381b6044820152fd5b8382346102945781600319360112610294576020905165aafc2937c0008152f35b509134610a295780600319360112610a2957829060025481526003602052209081015460ff610be2835493610bb9600160058301549201610e7a565b908651968796858760101c1615158852602088015286015260c0606086015260c0850190610c59565b918181161515608085015260081c16151560a08301520390f35b92919050346109c15760203660031901126109c1578060ff9160a0958435815260036020522090600582549483015492015493855282821615156020860152828260081c1615159085015260101c16151560608301526080820152f35b90815180825260208080930193019160005b828110610c79575050505090565b835185529381019392810192600101610c6b565b601f909101601f19168101906001600160401b03821190821017610cb057604052565b634e487b7160e01b600052604160045260246000fd5b6000546001600160a01b03163303610cda57565b606460405162461bcd60e51b815260206004820152602060248201527f4f776e61626c653a2063616c6c6572206973206e6f7420746865206f776e65726044820152fd5b6000198114610d2d5760010190565b634e487b7160e01b600052601160045260246000fd5b15610d4a57565b60405162461bcd60e51b815260206004820152600e60248201526d4e6f206163746976652067616d6560901b6044820152606490fd5b906005811015610d915760051b0190565b634e487b7160e01b600052603260045260246000fd5b8051821015610d915760209160051b010190565b600260015414610dcc576002600155565b60405162461bcd60e51b815260206004820152601f60248201527f5265656e7472616e637947756172643a207265656e7472616e742063616c6c006044820152606490fd5b6003811015610e645760018103610e3d5750601e810290808204601e1490151715610d2d576064900490565b600214610e4a5750600090565b604681029080820460461490151715610d2d576064900490565b634e487b7160e01b600052602160045260246000fd5b9060405191828154918282526020928383019160005283600020936000905b828210610eb157505050610eaf92500383610c8d565b565b855484526001958601958895509381019390910190610e99565b6002805460009081526003602090815260408083206001600160a01b039095168352928401815282822092519193929060a083016001600160401b038111848210176111fd576040528490835b600583106111e15750505050600191610f32838201610e7a565b918385815b611128575b5080611116575b61110c5784845b61103e575b508493929190835b610f65575b50505050905090565b600580871015611038578490865b818110610fb1575b505080610fa2575b610f9957610f92849596610d1e565b9594610f57565b50505091505090565b5060ff60048301541615610f83565b879392969795919495888086905b610ff2575b505015610fe257610fd490610d1e565b969591929694939094610f73565b5093925090809594503880610f7b565b8451811015611033576110098c6106998689610d80565b516110148287610da7565b51146110295761102390610d1e565b81610fbf565b5090508838610fc4565b610fc4565b50610f5c565b600585818310156111055790875b81811061107f575b505080611070575b610f5c5761106a8591610d1e565b90610f4a565b5060ff6004840154161561105c565b8893989691949296888086905b6110bc575b5050156110ae576110a190610d1e565b979297959193909561104c565b509450915094853880611054565b8b8486518310156110fe576106996110d49289610d80565b516110df8287610da7565b51146110f4576110ee90610d1e565b8161108c565b5090508838611091565b5050611091565b5050610f4f565b5050505050600290565b5060ff600483015460081c1615610f43565b6005808210806111da575b156111d457908691885b818110611156575b505061115090610d1e565b90610f37565b91925090888881815b61118e575b50501561117d5761117490610d1e565b9087929161113d565b505090508461115087929038611145565b89518110156111cf576111a584610699888b610d80565b516111b0828c610da7565b51146111c5576111bf90610d1e565b8161115f565b5090508838611164565b611164565b50610f3c565b5082611133565b60018281926111ef87610e7a565b815201940192019192610f18565b634e487b7160e01b86526041600452602486fdfe8be0079c531659141344cd1fd0a4f28419497f9722a3daafe3b4186f6b6457e0a264697066735822122011a59b911618d97b49adf68b95a523cc364c279e118671b6cea7fe7f8a8a525e64736f6c63430008130033","opcodes":"PUSH1 0x80 DUP1 PUSH1 0x40 MSTORE CALLVALUE PUSH2 0x135 JUMPI PUSH1 0x0 DUP1 SLOAD CALLER PUSH1 0x1 PUSH1 0x1 PUSH1 0xA0 SHL SUB NOT DUP3 AND DUP2 OR DUP4 SSTORE SWAP2 SWAP3 SWAP2 SWAP1 PUSH1 0x1 PUSH1 0x1 PUSH1 0xA0 SHL SUB AND PUSH32 0x8BE0079C531659141344CD1FD0A4F28419497F9722A3DAAFE3B4186F6B6457E0 DUP5 DUP1 LOG3 PUSH1 0x1 DUP1 SSTORE PUSH1 0x2 SLOAD SWAP1 DUP2 DUP4 MSTORE PUSH1 0x3 PUSH1 0x20 MSTORE PUSH1 0xFF PUSH1 0x4 PUSH1 0x40 DUP6 KECCAK256 ADD SLOAD PUSH1 0x10 SHR AND PUSH2 0xF3 JUMPI POP PUSH1 0x0 NOT DUP2 EQ PUSH2 0xDF JUMPI PUSH1 0x4 SWAP2 PUSH1 0x1 PUSH1 0x40 SWAP3 ADD DUP1 PUSH1 0x2 SSTORE DUP2 MSTORE PUSH1 0x3 PUSH1 0x20 MSTORE KECCAK256 TIMESTAMP DUP2 SSTORE ADD PUSH3 0x10000 PUSH3 0xFFFFFF NOT DUP3 SLOAD AND OR SWAP1 SSTORE PUSH1 0x2 SLOAD PUSH32 0xA2DFAA3573B86004EC9D4D4ABE5068D942579C59DA4DA8CD0D9E45E71A393BC1 PUSH1 0x20 PUSH1 0x40 MLOAD TIMESTAMP DUP2 MSTORE LOG2 PUSH1 0x40 MLOAD PUSH2 0x1267 SWAP1 DUP2 PUSH2 0x13B DUP3 CODECOPY RETURN JUMPDEST PUSH4 0x4E487B71 PUSH1 0xE0 SHL DUP3 MSTORE PUSH1 0x11 PUSH1 0x4 MSTORE PUSH1 0x24 DUP3 REVERT JUMPDEST PUSH3 0x461BCD PUSH1 0xE5 SHL DUP2 MSTORE PUSH1 0x20 PUSH1 0x4 DUP3 ADD MSTORE PUSH1 0x19 PUSH1 0x24 DUP3 ADD MSTORE PUSH32 0x43757272656E742067616D65207374696C6C2061637469766500000000000000 PUSH1 0x44 DUP3 ADD MSTORE PUSH1 0x64 SWAP1 REVERT JUMPDEST PUSH1 0x0 DUP1 REVERT INVALID PUSH1 0x80 PUSH1 0x40 DUP2 DUP2 MSTORE PUSH1 0x4 SWAP1 DUP2 CALLDATASIZE LT ISZERO PUSH2 0x16 JUMPI PUSH1 0x0 DUP1 REVERT JUMPDEST PUSH1 0x0 SWAP3 DUP4 CALLDATALOAD PUSH1 0xE0 SHR SWAP1 DUP2 PUSH4 0x117A5B90 EQ PUSH2 0xBFC JUMPI POP DUP1 PUSH4 0x1746BD1B EQ PUSH2 0xB7D JUMPI DUP1 PUSH4 0x1A95F15F EQ PUSH2 0xB5C JUMPI DUP1 PUSH4 0x482D51E0 EQ PUSH2 0xA8F JUMPI DUP1 PUSH4 0x536A3DDC EQ PUSH2 0xA70 JUMPI DUP1 PUSH4 0x5A7FBABC EQ PUSH2 0xA2C JUMPI DUP1 PUSH4 0x715018A6 EQ PUSH2 0x9E1 JUMPI DUP1 PUSH4 0x7334CBF4 EQ PUSH2 0x9C5 JUMPI DUP1 PUSH4 0x78253D35 EQ PUSH2 0x5A1 JUMPI DUP1 PUSH4 0x8DA5CB5B EQ PUSH2 0x579 JUMPI DUP1 PUSH4 0xB5FFD817 EQ PUSH2 0x2D1 JUMPI DUP1 PUSH4 0xC31B29CE EQ PUSH2 0x2B4 JUMPI DUP1 PUSH4 0xC489D767 EQ PUSH2 0x298 JUMPI DUP1 PUSH4 0xF1BED61F EQ PUSH2 0x183 JUMPI PUSH4 0xF2FDE38B EQ PUSH2 0xC9 JUMPI PUSH1 0x0 DUP1 REVERT JUMPDEST CALLVALUE PUSH2 0x17F JUMPI PUSH1 0x20 CALLDATASIZE PUSH1 0x3 NOT ADD SLT PUSH2 0x17F JUMPI PUSH1 0x1 PUSH1 0x1 PUSH1 0xA0 SHL SUB DUP3 CALLDATALOAD DUP2 DUP2 AND SWAP4 SWAP2 SWAP3 SWAP1 DUP5 SWAP1 SUB PUSH2 0x17B JUMPI PUSH2 0xFA PUSH2 0xCC6 JUMP JUMPDEST DUP4 ISZERO PUSH2 0x129 JUMPI POP POP DUP3 SLOAD PUSH1 0x1 PUSH1 0x1 PUSH1 0xA0 SHL SUB NOT DUP2 AND DUP4 OR DUP5 SSTORE AND PUSH1 0x0 DUP1 MLOAD PUSH1 0x20 PUSH2 0x1212 DUP4 CODECOPY DUP2 MLOAD SWAP2 MSTORE DUP4 DUP1 LOG3 DUP1 RETURN JUMPDEST SWAP1 PUSH1 0x20 PUSH1 0x84 SWAP3 MLOAD SWAP2 PUSH3 0x461BCD PUSH1 0xE5 SHL DUP4 MSTORE DUP3 ADD MSTORE PUSH1 0x26 PUSH1 0x24 DUP3 ADD MSTORE PUSH32 0x4F776E61626C653A206E6577206F776E657220697320746865207A65726F2061 PUSH1 0x44 DUP3 ADD MSTORE PUSH6 0x646472657373 PUSH1 0xD0 SHL PUSH1 0x64 DUP3 ADD MSTORE REVERT JUMPDEST DUP5 DUP1 REVERT JUMPDEST DUP3 DUP1 REVERT JUMPDEST POP DUP3 SWAP1 CALLVALUE PUSH2 0x294 JUMPI PUSH1 0x20 DUP1 PUSH1 0x3 NOT CALLDATASIZE ADD SLT PUSH2 0x17F JUMPI DUP4 CALLDATALOAD PUSH2 0x1A2 PUSH2 0xCC6 JUMP JUMPDEST PUSH1 0x2 SLOAD DUP1 DUP6 MSTORE PUSH1 0x3 DUP4 MSTORE PUSH2 0x1C0 PUSH1 0xFF DUP8 DUP7 DUP9 KECCAK256 ADD SLOAD PUSH1 0x10 SHR AND PUSH2 0xD43 JUMP JUMPDEST DUP2 ISZERO ISZERO DUP1 PUSH2 0x289 JUMPI JUMPDEST ISZERO PUSH2 0x255 JUMPI DUP5 MSTORE PUSH1 0x3 DUP3 MSTORE DUP3 DUP5 KECCAK256 PUSH1 0x1 ADD DUP1 SLOAD SWAP1 PUSH1 0x1 PUSH1 0x40 SHL DUP3 LT ISZERO PUSH2 0x242 JUMPI PUSH1 0x1 DUP3 ADD DUP1 DUP3 SSTORE DUP3 LT ISZERO PUSH2 0x22F JUMPI DUP6 MSTORE DUP3 DUP6 KECCAK256 ADD DUP2 SWAP1 SSTORE PUSH1 0x2 SLOAD SWAP3 MLOAD SWAP1 DUP2 MSTORE PUSH32 0x1754F3D9EEF4B548E8798E66A0205867A07FC802E7D501A6A1F9AAFA63DF9801 SWAP2 SWAP1 LOG2 DUP1 RETURN JUMPDEST PUSH4 0x4E487B71 PUSH1 0xE0 SHL DUP7 MSTORE PUSH1 0x32 DUP8 MSTORE PUSH1 0x24 DUP7 REVERT JUMPDEST PUSH4 0x4E487B71 PUSH1 0xE0 SHL DUP7 MSTORE PUSH1 0x41 DUP8 MSTORE PUSH1 0x24 DUP7 REVERT JUMPDEST DUP4 MLOAD PUSH3 0x461BCD PUSH1 0xE5 SHL DUP2 MSTORE DUP1 DUP8 ADD DUP5 SWAP1 MSTORE PUSH1 0xE PUSH1 0x24 DUP3 ADD MSTORE PUSH14 0x24B73B30B634B210373AB6B132B9 PUSH1 0x91 SHL PUSH1 0x44 DUP3 ADD MSTORE PUSH1 0x64 SWAP1 REVERT JUMPDEST POP PUSH1 0x4B DUP3 GT ISZERO PUSH2 0x1C9 JUMP JUMPDEST POP DUP1 REVERT JUMPDEST DUP4 DUP3 CALLVALUE PUSH2 0x294 JUMPI DUP2 PUSH1 0x3 NOT CALLDATASIZE ADD SLT PUSH2 0x294 JUMPI PUSH1 0x20 SWAP1 MLOAD PUSH1 0x1E DUP2 MSTORE RETURN JUMPDEST DUP4 DUP3 CALLVALUE PUSH2 0x294 JUMPI DUP2 PUSH1 0x3 NOT CALLDATASIZE ADD SLT PUSH2 0x294 JUMPI PUSH1 0x20 SWAP1 MLOAD PUSH2 0x258 DUP2 MSTORE RETURN JUMPDEST POP DUP3 SWAP1 CALLVALUE PUSH2 0x294 JUMPI DUP2 PUSH1 0x3 NOT CALLDATASIZE ADD SLT PUSH2 0x294 JUMPI PUSH2 0x2EC PUSH2 0xDBB JUMP JUMPDEST PUSH1 0x2 SLOAD DUP3 MSTORE PUSH1 0x20 PUSH1 0x3 DUP2 MSTORE DUP2 DUP4 KECCAK256 SWAP2 DUP5 DUP4 ADD SWAP3 DUP4 SLOAD SWAP3 PUSH1 0xFF SWAP5 PUSH2 0x313 DUP7 DUP7 PUSH1 0x10 SHR AND PUSH2 0xD43 JUMP JUMPDEST PUSH1 0x3 DUP4 ADD SWAP3 CALLER DUP9 MSTORE DUP4 DUP4 MSTORE DUP7 DUP6 DUP10 KECCAK256 SLOAD AND PUSH1 0x3 DUP2 LT ISZERO PUSH2 0x531 JUMPI PUSH2 0x544 JUMPI PUSH2 0x33A CALLER PUSH2 0xECB JUMP JUMPDEST SWAP4 PUSH1 0x3 DUP6 LT ISZERO PUSH2 0x531 JUMPI DUP5 ISZERO PUSH2 0x4F3 JUMPI DUP9 SWAP7 PUSH1 0x1 DUP7 SUB PUSH2 0x47C JUMPI POP DUP3 SLOAD DUP9 DUP2 AND PUSH2 0x439 JUMPI PUSH1 0xFF NOT AND PUSH1 0x1 OR DUP4 SSTORE PUSH2 0x38B SWAP2 PUSH1 0x5 SWAP2 JUMPDEST CALLER DUP12 MSTORE DUP6 MSTORE DUP7 DUP11 KECCAK256 PUSH1 0xFF NOT DUP2 SLOAD AND DUP11 DUP9 AND OR SWAP1 SSTORE ADD SLOAD DUP5 PUSH2 0xE11 JUMP JUMPDEST SWAP6 DUP2 SLOAD SWAP1 DUP1 DUP3 AND SWAP1 DUP2 PUSH2 0x42C JUMPI JUMPDEST POP PUSH2 0x41D JUMPI JUMPDEST POP POP DUP6 DUP1 DUP7 DUP1 ISZERO PUSH2 0x413 JUMPI JUMPDEST DUP3 DUP1 SWAP3 SWAP2 DUP2 SWAP3 CALLER SWAP1 CALL ISZERO PUSH2 0x409 JUMPI PUSH1 0x2 SLOAD SWAP4 DUP4 MLOAD SWAP6 DUP7 MSTORE PUSH2 0x3F6 JUMPI DUP5 ADD MSTORE CALLER SWAP3 PUSH32 0xEE4BB642CB27260852B8EB6D8DE870BD4DCB15172193C279C0BC07DAFDAFA4CA SWAP2 SWAP1 LOG3 PUSH1 0x1 DUP1 SSTORE DUP1 RETURN JUMPDEST PUSH4 0x4E487B71 PUSH1 0xE0 SHL DUP7 MSTORE PUSH1 0x21 DUP8 MSTORE PUSH1 0x24 DUP7 REVERT JUMPDEST DUP3 MLOAD RETURNDATASIZE DUP8 DUP3 RETURNDATACOPY RETURNDATASIZE SWAP1 REVERT JUMPDEST PUSH2 0x8FC SWAP2 POP PUSH2 0x3AB JUMP JUMPDEST PUSH3 0xFF0000 NOT AND SWAP1 SSTORE DUP8 DUP1 PUSH2 0x39F JUMP JUMPDEST SWAP1 POP DUP2 PUSH1 0x8 SHR AND DUP11 PUSH2 0x399 JUMP JUMPDEST DUP7 MLOAD PUSH3 0x461BCD PUSH1 0xE5 SHL DUP2 MSTORE DUP1 DUP13 ADD DUP7 SWAP1 MSTORE PUSH1 0x1E PUSH1 0x24 DUP3 ADD MSTORE PUSH32 0x4F6E65206C696E65207072697A6520616C726561647920636C61696D65640000 PUSH1 0x44 DUP3 ADD MSTORE PUSH1 0x64 SWAP1 REVERT JUMPDEST DUP10 SWAP8 POP PUSH1 0x2 DUP7 EQ PUSH2 0x495 JUMPI JUMPDEST POP PUSH2 0x38B SWAP2 PUSH1 0x5 SWAP2 PUSH2 0x36F JUMP JUMPDEST DUP9 DUP2 PUSH1 0x8 SHR AND PUSH2 0x4B2 JUMPI PUSH2 0xFF00 NOT AND PUSH2 0x100 OR DUP4 SSTORE PUSH2 0x38B PUSH2 0x488 JUMP JUMPDEST PUSH1 0x64 DUP12 DUP7 DUP1 DUP11 MLOAD SWAP3 PUSH3 0x461BCD PUSH1 0xE5 SHL DUP5 MSTORE DUP4 ADD MSTORE PUSH1 0x24 DUP3 ADD MSTORE PUSH32 0x46756C6C20686F757365207072697A6520616C726561647920636C61696D6564 PUSH1 0x44 DUP3 ADD MSTORE REVERT JUMPDEST DUP6 MLOAD PUSH3 0x461BCD PUSH1 0xE5 SHL DUP2 MSTORE DUP1 DUP12 ADD DUP6 SWAP1 MSTORE PUSH1 0x18 PUSH1 0x24 DUP3 ADD MSTORE PUSH24 0x139BC81DDA5B9B9A5B99C81C185D1D195C9B88199BDD5B99 PUSH1 0x42 SHL PUSH1 0x44 DUP3 ADD MSTORE PUSH1 0x64 SWAP1 REVERT JUMPDEST PUSH4 0x4E487B71 PUSH1 0xE0 SHL DUP10 MSTORE PUSH1 0x21 DUP11 MSTORE PUSH1 0x24 DUP10 REVERT JUMPDEST DUP5 MLOAD PUSH3 0x461BCD PUSH1 0xE5 SHL DUP2 MSTORE DUP1 DUP11 ADD DUP5 SWAP1 MSTORE PUSH1 0xF PUSH1 0x24 DUP3 ADD MSTORE PUSH15 0x105B1C9958591E4818DB185A5B5959 PUSH1 0x8A SHL PUSH1 0x44 DUP3 ADD MSTORE PUSH1 0x64 SWAP1 REVERT JUMPDEST DUP4 DUP3 CALLVALUE PUSH2 0x294 JUMPI DUP2 PUSH1 0x3 NOT CALLDATASIZE ADD SLT PUSH2 0x294 JUMPI SWAP1 SLOAD SWAP1 MLOAD PUSH1 0x1 PUSH1 0x1 PUSH1 0xA0 SHL SUB SWAP1 SWAP2 AND DUP2 MSTORE PUSH1 0x20 SWAP1 RETURN JUMPDEST POP SWAP1 PUSH1 0x20 DUP1 PUSH1 0x3 NOT CALLDATASIZE ADD SLT PUSH2 0x9C1 JUMPI PUSH1 0x1 PUSH1 0x1 PUSH1 0x40 SHL SUB SWAP3 DUP3 CALLDATALOAD DUP5 DUP2 GT PUSH2 0x9BD JUMPI PUSH1 0x23 SWAP1 CALLDATASIZE DUP3 DUP3 ADD SLT ISZERO PUSH2 0x9B9 JUMPI DUP3 MLOAD SWAP2 PUSH1 0xA0 DUP4 ADD DUP4 DUP2 LT DUP9 DUP3 GT OR PUSH2 0x9A6 JUMPI DUP5 MSTORE DUP3 SWAP1 PUSH1 0xA4 DUP4 ADD SWAP3 CALLDATASIZE DUP5 GT PUSH2 0x9A2 JUMPI DUP1 DUP9 ADD SWAP3 JUMPDEST DUP5 DUP5 LT PUSH2 0x90E JUMPI POP POP POP POP POP PUSH2 0x60A PUSH2 0xDBB JUMP JUMPDEST PUSH6 0xAAFC2937C000 CALLVALUE SUB PUSH2 0x8D3 JUMPI PUSH1 0x2 SLOAD SWAP6 DUP7 DUP2 MSTORE PUSH1 0x3 DUP1 DUP6 MSTORE PUSH2 0x637 PUSH1 0xFF DUP8 DUP7 DUP6 KECCAK256 ADD SLOAD PUSH1 0x10 SHR AND PUSH2 0xD43 JUMP JUMPDEST DUP8 DUP3 MSTORE DUP1 DUP6 MSTORE DUP4 DUP3 KECCAK256 SLOAD PUSH2 0x258 DUP2 ADD DUP1 SWAP2 GT PUSH2 0x8C0 JUMPI TIMESTAMP LT ISZERO PUSH2 0x882 JUMPI DUP2 JUMPDEST PUSH1 0x5 DUP1 DUP3 LT ISZERO PUSH2 0x73C JUMPI DUP1 PUSH2 0x66B DUP4 DUP8 PUSH2 0xD80 JUMP JUMPDEST MLOAD MLOAD SUB PUSH2 0x703 JUMPI DUP4 JUMPDEST DUP2 DUP2 LT PUSH2 0x68B JUMPI POP POP PUSH2 0x686 SWAP1 PUSH2 0xD1E JUMP JUMPDEST PUSH2 0x656 JUMP JUMPDEST PUSH2 0x69F DUP2 PUSH2 0x699 DUP6 DUP10 PUSH2 0xD80 JUMP JUMPDEST MLOAD PUSH2 0xDA7 JUMP JUMPDEST MLOAD DUP1 ISZERO ISZERO SWAP1 DUP2 PUSH2 0x6F7 JUMPI JUMPDEST POP ISZERO PUSH2 0x6BE JUMPI PUSH2 0x6B9 SWAP1 PUSH2 0xD1E JUMP JUMPDEST PUSH2 0x674 JUMP JUMPDEST DUP7 MLOAD PUSH3 0x461BCD PUSH1 0xE5 SHL DUP2 MSTORE DUP1 DUP11 ADD DUP10 SWAP1 MSTORE PUSH1 0x13 PUSH1 0x24 DUP3 ADD MSTORE PUSH19 0x4E756D626572206F7574206F662072616E6765 PUSH1 0x68 SHL PUSH1 0x44 DUP3 ADD MSTORE PUSH1 0x64 SWAP1 REVERT JUMPDEST PUSH1 0x4B SWAP2 POP GT ISZERO CODESIZE PUSH2 0x6AA JUMP JUMPDEST DUP6 MLOAD PUSH3 0x461BCD PUSH1 0xE5 SHL DUP2 MSTORE DUP1 DUP10 ADD DUP9 SWAP1 MSTORE PUSH1 0x13 PUSH1 0x24 DUP3 ADD MSTORE PUSH19 0x125B9D985B1A590818D85C9908199BDC9B585D PUSH1 0x6A SHL PUSH1 0x44 DUP3 ADD MSTORE PUSH1 0x64 SWAP1 REVERT JUMPDEST POP POP SWAP4 SWAP5 SWAP3 SWAP6 SWAP2 SWAP1 SWAP7 DUP8 MSTORE DUP4 DUP6 MSTORE PUSH1 0x2 DUP7 DUP9 KECCAK256 ADD CALLER DUP9 MSTORE DUP6 MSTORE DUP6 DUP8 KECCAK256 SWAP1 DUP8 SWAP1 JUMPDEST PUSH1 0x5 DUP3 LT PUSH2 0x7E2 JUMPI POP POP POP POP PUSH1 0x2 SLOAD DUP6 MSTORE DUP2 DUP4 MSTORE PUSH1 0x5 DUP5 DUP7 KECCAK256 ADD DUP1 SLOAD SWAP2 CALLVALUE DUP4 ADD DUP1 SWAP4 GT PUSH2 0x7CF JUMPI POP SSTORE PUSH1 0x2 SLOAD DUP5 MSTORE DUP1 DUP3 MSTORE DUP3 DUP5 KECCAK256 ADD SWAP1 CALLER DUP5 MSTORE MSTORE DUP2 KECCAK256 PUSH1 0xFF NOT DUP2 SLOAD AND SWAP1 SSTORE CALLER PUSH1 0x2 SLOAD PUSH32 0x785F2865353AE960010300F584FC6C577B757A853AF69A99C769DF3C8232D3DE DUP4 DUP1 LOG3 PUSH1 0x1 DUP1 SSTORE DUP1 RETURN JUMPDEST PUSH4 0x4E487B71 PUSH1 0xE0 SHL DUP8 MSTORE PUSH1 0x11 SWAP1 MSTORE PUSH1 0x24 DUP7 REVERT JUMPDEST DUP1 MLOAD DUP1 MLOAD SWAP1 DUP6 DUP3 GT PUSH2 0x86F JUMPI PUSH1 0x1 PUSH1 0x40 SHL DUP3 GT PUSH2 0x86F JUMPI DUP9 SWAP1 DUP6 SLOAD DUP4 DUP8 SSTORE DUP1 DUP5 LT PUSH2 0x847 JUMPI JUMPDEST POP SWAP1 DUP1 SWAP4 SWAP3 SWAP2 ADD DUP6 DUP13 MSTORE DUP4 DUP13 KECCAK256 DUP13 JUMPDEST DUP4 DUP2 LT PUSH2 0x833 JUMPI POP POP POP POP PUSH1 0x1 SWAP2 DUP3 SWAP2 ADD SWAP4 ADD SWAP2 ADD SWAP1 SWAP2 PUSH2 0x75C JUMP JUMPDEST DUP3 MLOAD DUP2 DUP4 ADD SSTORE DUP12 SWAP6 SWAP1 SWAP3 ADD SWAP2 PUSH1 0x1 ADD PUSH2 0x817 JUMP JUMPDEST DUP4 DUP4 DUP15 DUP10 DUP2 MSTORE KECCAK256 SWAP2 DUP3 ADD SWAP2 ADD JUMPDEST DUP2 DUP2 LT PUSH2 0x861 JUMPI POP PUSH2 0x808 JUMP JUMPDEST DUP14 DUP2 SSTORE DUP12 SWAP4 POP PUSH1 0x1 ADD PUSH2 0x854 JUMP JUMPDEST PUSH4 0x4E487B71 PUSH1 0xE0 SHL DUP12 MSTORE PUSH1 0x41 DUP8 MSTORE PUSH1 0x24 DUP12 REVERT JUMPDEST DUP4 MLOAD PUSH3 0x461BCD PUSH1 0xE5 SHL DUP2 MSTORE DUP1 DUP8 ADD DUP7 SWAP1 MSTORE PUSH1 0x18 PUSH1 0x24 DUP3 ADD MSTORE PUSH24 0x47616D6520616C726561647920696E2070726F6772657373 PUSH1 0x40 SHL PUSH1 0x44 DUP3 ADD MSTORE PUSH1 0x64 SWAP1 REVERT JUMPDEST PUSH4 0x4E487B71 PUSH1 0xE0 SHL DUP4 MSTORE PUSH1 0x11 DUP8 MSTORE PUSH1 0x24 DUP4 REVERT JUMPDEST POP MLOAD PUSH3 0x461BCD PUSH1 0xE5 SHL DUP2 MSTORE SWAP2 DUP3 ADD MSTORE PUSH1 0x16 PUSH1 0x24 DUP3 ADD MSTORE PUSH22 0x496E636F7272656374207469636B6574207072696365 PUSH1 0x50 SHL PUSH1 0x44 DUP3 ADD MSTORE PUSH1 0x64 SWAP2 POP REVERT JUMPDEST DUP4 CALLDATALOAD DUP11 DUP2 GT PUSH2 0x99E JUMPI DUP3 ADD CALLDATASIZE DUP5 DUP3 ADD SLT ISZERO PUSH2 0x99E JUMPI DUP10 DUP2 ADD CALLDATALOAD SWAP1 DUP12 DUP3 GT PUSH2 0x98B JUMPI DUP2 PUSH1 0x5 SHL DUP10 MLOAD SWAP3 PUSH2 0x942 DUP13 DUP4 ADD DUP6 PUSH2 0xC8D JUMP JUMPDEST DUP4 MSTORE DUP11 DUP4 ADD SWAP1 PUSH1 0x24 DUP1 SWAP2 DUP5 ADD ADD SWAP3 CALLDATASIZE DUP5 GT PUSH2 0x987 JUMPI SWAP1 DUP13 SWAP5 SWAP3 SWAP6 SWAP4 SWAP2 ADD JUMPDEST DUP2 DUP2 LT PUSH2 0x977 JUMPI POP POP DUP3 SWAP4 POP DUP2 MSTORE ADD SWAP4 ADD SWAP3 PUSH2 0x5F6 JUMP JUMPDEST DUP1 CALLDATALOAD DUP7 MSTORE SWAP5 DUP5 ADD SWAP5 DUP13 SWAP5 ADD PUSH2 0x960 JUMP JUMPDEST DUP16 DUP1 REVERT JUMPDEST PUSH4 0x4E487B71 PUSH1 0xE0 SHL DUP14 MSTORE PUSH1 0x41 DUP12 MSTORE PUSH1 0x24 DUP14 REVERT JUMPDEST DUP12 DUP1 REVERT JUMPDEST DUP10 DUP1 REVERT JUMPDEST PUSH4 0x4E487B71 PUSH1 0xE0 SHL DUP10 MSTORE PUSH1 0x41 DUP8 MSTORE PUSH1 0x24 DUP10 REVERT JUMPDEST DUP7 DUP1 REVERT JUMPDEST DUP6 DUP1 REVERT JUMPDEST DUP4 DUP1 REVERT JUMPDEST DUP4 DUP3 CALLVALUE PUSH2 0x294 JUMPI DUP2 PUSH1 0x3 NOT CALLDATASIZE ADD SLT PUSH2 0x294 JUMPI PUSH1 0x20 SWAP1 MLOAD PUSH1 0x46 DUP2 MSTORE RETURN JUMPDEST DUP4 CALLVALUE PUSH2 0xA29 JUMPI DUP1 PUSH1 0x3 NOT CALLDATASIZE ADD SLT PUSH2 0xA29 JUMPI PUSH2 0x9FA PUSH2 0xCC6 JUMP JUMPDEST DUP1 SLOAD PUSH1 0x1 PUSH1 0x1 PUSH1 0xA0 SHL SUB NOT DUP2 AND DUP3 SSTORE DUP2 SWAP1 PUSH1 0x1 PUSH1 0x1 PUSH1 0xA0 SHL SUB AND PUSH1 0x0 DUP1 MLOAD PUSH1 0x20 PUSH2 0x1212 DUP4 CODECOPY DUP2 MLOAD SWAP2 MSTORE DUP3 DUP1 LOG3 DUP1 RETURN JUMPDEST DUP1 REVERT JUMPDEST DUP4 DUP3 CALLVALUE PUSH2 0x294 JUMPI DUP2 PUSH1 0x3 NOT CALLDATASIZE ADD SLT PUSH2 0x294 JUMPI PUSH2 0xA59 PUSH1 0x1 DUP3 PUSH2 0xA6C SWAP5 PUSH1 0x2 SLOAD DUP2 MSTORE PUSH1 0x3 PUSH1 0x20 MSTORE KECCAK256 ADD PUSH2 0xE7A JUMP JUMPDEST SWAP1 MLOAD SWAP2 DUP3 SWAP2 PUSH1 0x20 DUP4 MSTORE PUSH1 0x20 DUP4 ADD SWAP1 PUSH2 0xC59 JUMP JUMPDEST SUB SWAP1 RETURN JUMPDEST DUP4 DUP3 CALLVALUE PUSH2 0x294 JUMPI DUP2 PUSH1 0x3 NOT CALLDATASIZE ADD SLT PUSH2 0x294 JUMPI PUSH1 0x20 SWAP1 PUSH1 0x2 SLOAD SWAP1 MLOAD SWAP1 DUP2 MSTORE RETURN JUMPDEST POP SWAP1 CALLVALUE PUSH2 0x17F JUMPI DUP3 PUSH1 0x3 NOT CALLDATASIZE ADD SLT PUSH2 0x17F JUMPI PUSH2 0xAA9 PUSH2 0xCC6 JUMP JUMPDEST PUSH1 0x2 SLOAD DUP1 DUP5 MSTORE PUSH1 0x3 PUSH1 0x20 MSTORE PUSH1 0xFF DUP3 DUP5 DUP7 KECCAK256 ADD SLOAD PUSH1 0x10 SHR AND PUSH2 0xB1D JUMPI PUSH2 0xACD SWAP1 PUSH2 0xD1E JUMP JUMPDEST DUP1 PUSH1 0x2 SSTORE DUP4 MSTORE PUSH1 0x3 PUSH1 0x20 MSTORE DUP2 DUP4 KECCAK256 TIMESTAMP DUP2 SSTORE ADD PUSH3 0x10000 PUSH3 0xFFFFFF NOT DUP3 SLOAD AND OR SWAP1 SSTORE PUSH32 0xA2DFAA3573B86004EC9D4D4ABE5068D942579C59DA4DA8CD0D9E45E71A393BC1 PUSH1 0x20 PUSH1 0x2 SLOAD SWAP3 MLOAD TIMESTAMP DUP2 MSTORE LOG2 DUP1 RETURN JUMPDEST POP PUSH1 0x20 PUSH1 0x64 SWAP3 MLOAD SWAP2 PUSH3 0x461BCD PUSH1 0xE5 SHL DUP4 MSTORE DUP3 ADD MSTORE PUSH1 0x19 PUSH1 0x24 DUP3 ADD MSTORE PUSH25 0x43757272656E742067616D65207374696C6C20616374697665 PUSH1 0x38 SHL PUSH1 0x44 DUP3 ADD MSTORE REVERT JUMPDEST DUP4 DUP3 CALLVALUE PUSH2 0x294 JUMPI DUP2 PUSH1 0x3 NOT CALLDATASIZE ADD SLT PUSH2 0x294 JUMPI PUSH1 0x20 SWAP1 MLOAD PUSH6 0xAAFC2937C000 DUP2 MSTORE RETURN JUMPDEST POP SWAP2 CALLVALUE PUSH2 0xA29 JUMPI DUP1 PUSH1 0x3 NOT CALLDATASIZE ADD SLT PUSH2 0xA29 JUMPI DUP3 SWAP1 PUSH1 0x2 SLOAD DUP2 MSTORE PUSH1 0x3 PUSH1 0x20 MSTORE KECCAK256 SWAP1 DUP2 ADD SLOAD PUSH1 0xFF PUSH2 0xBE2 DUP4 SLOAD SWAP4 PUSH2 0xBB9 PUSH1 0x1 PUSH1 0x5 DUP4 ADD SLOAD SWAP3 ADD PUSH2 0xE7A JUMP JUMPDEST SWAP1 DUP7 MLOAD SWAP7 DUP8 SWAP7 DUP6 DUP8 PUSH1 0x10 SHR AND ISZERO ISZERO DUP9 MSTORE PUSH1 0x20 DUP9 ADD MSTORE DUP7 ADD MSTORE PUSH1 0xC0 PUSH1 0x60 DUP7 ADD MSTORE PUSH1 0xC0 DUP6 ADD SWAP1 PUSH2 0xC59 JUMP JUMPDEST SWAP2 DUP2 DUP2 AND ISZERO ISZERO PUSH1 0x80 DUP6 ADD MSTORE PUSH1 0x8 SHR AND ISZERO ISZERO PUSH1 0xA0 DUP4 ADD MSTORE SUB SWAP1 RETURN JUMPDEST SWAP3 SWAP2 SWAP1 POP CALLVALUE PUSH2 0x9C1 JUMPI PUSH1 0x20 CALLDATASIZE PUSH1 0x3 NOT ADD SLT PUSH2 0x9C1 JUMPI DUP1 PUSH1 0xFF SWAP2 PUSH1 0xA0 SWAP6 DUP5 CALLDATALOAD DUP2 MSTORE PUSH1 0x3 PUSH1 0x20 MSTORE KECCAK256 SWAP1 PUSH1 0x5 DUP3 SLOAD SWAP5 DUP4 ADD SLOAD SWAP3 ADD SLOAD SWAP4 DUP6 MSTORE DUP3 DUP3 AND ISZERO ISZERO PUSH1 0x20 DUP7 ADD MSTORE DUP3 DUP3 PUSH1 0x8 SHR AND ISZERO ISZERO SWAP1 DUP6 ADD MSTORE PUSH1 0x10 SHR AND ISZERO ISZERO PUSH1 0x60 DUP4 ADD MSTORE PUSH1 0x80 DUP3 ADD MSTORE RETURN JUMPDEST SWAP1 DUP2 MLOAD DUP1 DUP3 MSTORE PUSH1 0x20 DUP1 DUP1 SWAP4 ADD SWAP4 ADD SWAP2 PUSH1 0x0 JUMPDEST DUP3 DUP2 LT PUSH2 0xC79 JUMPI POP POP POP POP SWAP1 JUMP JUMPDEST DUP4 MLOAD DUP6 MSTORE SWAP4 DUP2 ADD SWAP4 SWAP3 DUP2 ADD SWAP3 PUSH1 0x1 ADD PUSH2 0xC6B JUMP JUMPDEST PUSH1 0x1F SWAP1 SWAP2 ADD PUSH1 0x1F NOT AND DUP2 ADD SWAP1 PUSH1 0x1 PUSH1 0x1 PUSH1 0x40 SHL SUB DUP3 GT SWAP1 DUP3 LT OR PUSH2 0xCB0 JUMPI PUSH1 0x40 MSTORE JUMP JUMPDEST PUSH4 0x4E487B71 PUSH1 0xE0 SHL PUSH1 0x0 MSTORE PUSH1 0x41 PUSH1 0x4 MSTORE PUSH1 0x24 PUSH1 0x0 REVERT JUMPDEST PUSH1 0x0 SLOAD PUSH1 0x1 PUSH1 0x1 PUSH1 0xA0 SHL SUB AND CALLER SUB PUSH2 0xCDA JUMPI JUMP JUMPDEST PUSH1 0x64 PUSH1 0x40 MLOAD PUSH3 0x461BCD PUSH1 0xE5 SHL DUP2 MSTORE PUSH1 0x20 PUSH1 0x4 DUP3 ADD MSTORE PUSH1 0x20 PUSH1 0x24 DUP3 ADD MSTORE PUSH32 0x4F776E61626C653A2063616C6C6572206973206E6F7420746865206F776E6572 PUSH1 0x44 DUP3 ADD MSTORE REVERT JUMPDEST PUSH1 0x0 NOT DUP2 EQ PUSH2 0xD2D JUMPI PUSH1 0x1 ADD SWAP1 JUMP JUMPDEST PUSH4 0x4E487B71 PUSH1 0xE0 SHL PUSH1 0x0 MSTORE PUSH1 0x11 PUSH1 0x4 MSTORE PUSH1 0x24 PUSH1 0x0 REVERT JUMPDEST ISZERO PUSH2 0xD4A JUMPI JUMP JUMPDEST PUSH1 0x40 MLOAD PUSH3 0x461BCD PUSH1 0xE5 SHL DUP2 MSTORE PUSH1 0x20 PUSH1 0x4 DUP3 ADD MSTORE PUSH1 0xE PUSH1 0x24 DUP3 ADD MSTORE PUSH14 0x4E6F206163746976652067616D65 PUSH1 0x90 SHL PUSH1 0x44 DUP3 ADD MSTORE PUSH1 0x64 SWAP1 REVERT JUMPDEST SWAP1 PUSH1 0x5 DUP2 LT ISZERO PUSH2 0xD91 JUMPI PUSH1 0x5 SHL ADD SWAP1 JUMP JUMPDEST PUSH4 0x4E487B71 PUSH1 0xE0 SHL PUSH1 0x0 MSTORE PUSH1 0x32 PUSH1 0x4 MSTORE PUSH1 0x24 PUSH1 0x0 REVERT JUMPDEST DUP1 MLOAD DUP3 LT ISZERO PUSH2 0xD91 JUMPI PUSH1 0x20 SWAP2 PUSH1 0x5 SHL ADD ADD SWAP1 JUMP JUMPDEST PUSH1 0x2 PUSH1 0x1 SLOAD EQ PUSH2 0xDCC JUMPI PUSH1 0x2 PUSH1 0x1 SSTORE JUMP JUMPDEST PUSH1 0x40 MLOAD PUSH3 0x461BCD PUSH1 0xE5 SHL DUP2 MSTORE PUSH1 0x20 PUSH1 0x4 DUP3 ADD MSTORE PUSH1 0x1F PUSH1 0x24 DUP3 ADD MSTORE PUSH32 0x5265656E7472616E637947756172643A207265656E7472616E742063616C6C00 PUSH1 0x44 DUP3 ADD MSTORE PUSH1 0x64 SWAP1 REVERT JUMPDEST PUSH1 0x3 DUP2 LT ISZERO PUSH2 0xE64 JUMPI PUSH1 0x1 DUP2 SUB PUSH2 0xE3D JUMPI POP PUSH1 0x1E DUP2 MUL SWAP1 DUP1 DUP3 DIV PUSH1 0x1E EQ SWAP1 ISZERO OR ISZERO PUSH2 0xD2D JUMPI PUSH1 0x64 SWAP1 DIV SWAP1 JUMP JUMPDEST PUSH1 0x2 EQ PUSH2 0xE4A JUMPI POP PUSH1 0x0 SWAP1 JUMP JUMPDEST PUSH1 0x46 DUP2 MUL SWAP1 DUP1 DUP3 DIV PUSH1 0x46 EQ SWAP1 ISZERO OR ISZERO PUSH2 0xD2D JUMPI PUSH1 0x64 SWAP1 DIV SWAP1 JUMP JUMPDEST PUSH4 0x4E487B71 PUSH1 0xE0 SHL PUSH1 0x0 MSTORE PUSH1 0x21 PUSH1 0x4 MSTORE PUSH1 0x24 PUSH1 0x0 REVERT JUMPDEST SWAP1 PUSH1 0x40 MLOAD SWAP2 DUP3 DUP2 SLOAD SWAP2 DUP3 DUP3 MSTORE PUSH1 0x20 SWAP3 DUP4 DUP4 ADD SWAP2 PUSH1 0x0 MSTORE DUP4 PUSH1 0x0 KECCAK256 SWAP4 PUSH1 0x0 SWAP1 JUMPDEST DUP3 DUP3 LT PUSH2 0xEB1 JUMPI POP POP POP PUSH2 0xEAF SWAP3 POP SUB DUP4 PUSH2 0xC8D JUMP JUMPDEST JUMP JUMPDEST DUP6 SLOAD DUP5 MSTORE PUSH1 0x1 SWAP6 DUP7 ADD SWAP6 DUP9 SWAP6 POP SWAP4 DUP2 ADD SWAP4 SWAP1 SWAP2 ADD SWAP1 PUSH2 0xE99 JUMP JUMPDEST PUSH1 0x2 DUP1 SLOAD PUSH1 0x0 SWAP1 DUP2 MSTORE PUSH1 0x3 PUSH1 0x20 SWAP1 DUP2 MSTORE PUSH1 0x40 DUP1 DUP4 KECCAK256 PUSH1 0x1 PUSH1 0x1 PUSH1 0xA0 SHL SUB SWAP1 SWAP6 AND DUP4 MSTORE SWAP3 DUP5 ADD DUP2 MSTORE DUP3 DUP3 KECCAK256 SWAP3 MLOAD SWAP2 SWAP4 SWAP3 SWAP1 PUSH1 0xA0 DUP4 ADD PUSH1 0x1 PUSH1 0x1 PUSH1 0x40 SHL SUB DUP2 GT DUP5 DUP3 LT OR PUSH2 0x11FD JUMPI PUSH1 0x40 MSTORE DUP5 SWAP1 DUP4 JUMPDEST PUSH1 0x5 DUP4 LT PUSH2 0x11E1 JUMPI POP POP POP POP PUSH1 0x1 SWAP2 PUSH2 0xF32 DUP4 DUP3 ADD PUSH2 0xE7A JUMP JUMPDEST SWAP2 DUP4 DUP6 DUP2 JUMPDEST PUSH2 0x1128 JUMPI JUMPDEST POP DUP1 PUSH2 0x1116 JUMPI JUMPDEST PUSH2 0x110C JUMPI DUP5 DUP5 JUMPDEST PUSH2 0x103E JUMPI JUMPDEST POP DUP5 SWAP4 SWAP3 SWAP2 SWAP1 DUP4 JUMPDEST PUSH2 0xF65 JUMPI JUMPDEST POP POP POP POP SWAP1 POP SWAP1 JUMP JUMPDEST PUSH1 0x5 DUP1 DUP8 LT ISZERO PUSH2 0x1038 JUMPI DUP5 SWAP1 DUP7 JUMPDEST DUP2 DUP2 LT PUSH2 0xFB1 JUMPI JUMPDEST POP POP DUP1 PUSH2 0xFA2 JUMPI JUMPDEST PUSH2 0xF99 JUMPI PUSH2 0xF92 DUP5 SWAP6 SWAP7 PUSH2 0xD1E JUMP JUMPDEST SWAP6 SWAP5 PUSH2 0xF57 JUMP JUMPDEST POP POP POP SWAP2 POP POP SWAP1 JUMP JUMPDEST POP PUSH1 0xFF PUSH1 0x4 DUP4 ADD SLOAD AND ISZERO PUSH2 0xF83 JUMP JUMPDEST DUP8 SWAP4 SWAP3 SWAP7 SWAP8 SWAP6 SWAP2 SWAP5 SWAP6 DUP9 DUP1 DUP7 SWAP1 JUMPDEST PUSH2 0xFF2 JUMPI JUMPDEST POP POP ISZERO PUSH2 0xFE2 JUMPI PUSH2 0xFD4 SWAP1 PUSH2 0xD1E JUMP JUMPDEST SWAP7 SWAP6 SWAP2 SWAP3 SWAP7 SWAP5 SWAP4 SWAP1 SWAP5 PUSH2 0xF73 JUMP JUMPDEST POP SWAP4 SWAP3 POP SWAP1 DUP1 SWAP6 SWAP5 POP CODESIZE DUP1 PUSH2 0xF7B JUMP JUMPDEST DUP5 MLOAD DUP2 LT ISZERO PUSH2 0x1033 JUMPI PUSH2 0x1009 DUP13 PUSH2 0x699 DUP7 DUP10 PUSH2 0xD80 JUMP JUMPDEST MLOAD PUSH2 0x1014 DUP3 DUP8 PUSH2 0xDA7 JUMP JUMPDEST MLOAD EQ PUSH2 0x1029 JUMPI PUSH2 0x1023 SWAP1 PUSH2 0xD1E JUMP JUMPDEST DUP2 PUSH2 0xFBF JUMP JUMPDEST POP SWAP1 POP DUP9 CODESIZE PUSH2 0xFC4 JUMP JUMPDEST PUSH2 0xFC4 JUMP JUMPDEST POP PUSH2 0xF5C JUMP JUMPDEST PUSH1 0x5 DUP6 DUP2 DUP4 LT ISZERO PUSH2 0x1105 JUMPI SWAP1 DUP8 JUMPDEST DUP2 DUP2 LT PUSH2 0x107F JUMPI JUMPDEST POP POP DUP1 PUSH2 0x1070 JUMPI JUMPDEST PUSH2 0xF5C JUMPI PUSH2 0x106A DUP6 SWAP2 PUSH2 0xD1E JUMP JUMPDEST SWAP1 PUSH2 0xF4A JUMP JUMPDEST POP PUSH1 0xFF PUSH1 0x4 DUP5 ADD SLOAD AND ISZERO PUSH2 0x105C JUMP JUMPDEST DUP9 SWAP4 SWAP9 SWAP7 SWAP2 SWAP5 SWAP3 SWAP7 DUP9 DUP1 DUP7 SWAP1 JUMPDEST PUSH2 0x10BC JUMPI JUMPDEST POP POP ISZERO PUSH2 0x10AE JUMPI PUSH2 0x10A1 SWAP1 PUSH2 0xD1E JUMP JUMPDEST SWAP8 SWAP3 SWAP8 SWAP6 SWAP2 SWAP4 SWAP1 SWAP6 PUSH2 0x104C JUMP JUMPDEST POP SWAP5 POP SWAP2 POP SWAP5 DUP6 CODESIZE DUP1 PUSH2 0x1054 JUMP JUMPDEST DUP12 DUP5 DUP7 MLOAD DUP4 LT ISZERO PUSH2 0x10FE JUMPI PUSH2 0x699 PUSH2 0x10D4 SWAP3 DUP10 PUSH2 0xD80 JUMP JUMPDEST MLOAD PUSH2 0x10DF DUP3 DUP8 PUSH2 0xDA7 JUMP JUMPDEST MLOAD EQ PUSH2 0x10F4 JUMPI PUSH2 0x10EE SWAP1 PUSH2 0xD1E JUMP JUMPDEST DUP2 PUSH2 0x108C JUMP JUMPDEST POP SWAP1 POP DUP9 CODESIZE PUSH2 0x1091 JUMP JUMPDEST POP POP PUSH2 0x1091 JUMP JUMPDEST POP POP PUSH2 0xF4F JUMP JUMPDEST POP POP POP POP POP PUSH1 0x2 SWAP1 JUMP JUMPDEST POP PUSH1 0xFF PUSH1 0x4 DUP4 ADD SLOAD PUSH1 0x8 SHR AND ISZERO PUSH2 0xF43 JUMP JUMPDEST PUSH1 0x5 DUP1 DUP3 LT DUP1 PUSH2 0x11DA JUMPI JUMPDEST ISZERO PUSH2 0x11D4 JUMPI SWAP1 DUP7 SWAP2 DUP9 JUMPDEST DUP2 DUP2 LT PUSH2 0x1156 JUMPI JUMPDEST POP POP PUSH2 0x1150 SWAP1 PUSH2 0xD1E JUMP JUMPDEST SWAP1 PUSH2 0xF37 JUMP JUMPDEST SWAP2 SWAP3 POP SWAP1 DUP9 DUP9 DUP2 DUP2 JUMPDEST PUSH2 0x118E JUMPI JUMPDEST POP POP ISZERO PUSH2 0x117D JUMPI PUSH2 0x1174 SWAP1 PUSH2 0xD1E JUMP JUMPDEST SWAP1 DUP8 SWAP3 SWAP2 PUSH2 0x113D JUMP JUMPDEST POP POP SWAP1 POP DUP5 PUSH2 0x1150 DUP8 SWAP3 SWAP1 CODESIZE PUSH2 0x1145 JUMP JUMPDEST DUP10 MLOAD DUP2 LT ISZERO PUSH2 0x11CF JUMPI PUSH2 0x11A5 DUP5 PUSH2 0x699 DUP9 DUP12 PUSH2 0xD80 JUMP JUMPDEST MLOAD PUSH2 0x11B0 DUP3 DUP13 PUSH2 0xDA7 JUMP JUMPDEST MLOAD EQ PUSH2 0x11C5 JUMPI PUSH2 0x11BF SWAP1 PUSH2 0xD1E JUMP JUMPDEST DUP2 PUSH2 0x115F JUMP JUMPDEST POP SWAP1 POP DUP9 CODESIZE PUSH2 0x1164 JUMP JUMPDEST PUSH2 0x1164 JUMP JUMPDEST POP PUSH2 0xF3C JUMP JUMPDEST POP DUP3 PUSH2 0x1133 JUMP JUMPDEST PUSH1 0x1 DUP3 DUP2 SWAP3 PUSH2 0x11EF DUP8 PUSH2 0xE7A JUMP JUMPDEST DUP2 MSTORE ADD SWAP5 ADD SWAP3 ADD SWAP2 SWAP3 PUSH2 0xF18 JUMP JUMPDEST PUSH4 0x4E487B71 PUSH1 0xE0 SHL DUP7 MSTORE PUSH1 0x41 PUSH1 0x4 MSTORE PUSH1 0x24 DUP7 REVERT INVALID DUP12 0xE0 SMOD SWAP13 MSTORE8 AND MSIZE EQ SGT PREVRANDAO 0xCD 0x1F 0xD0 LOG4 CALLCODE DUP5 NOT 0x49 PUSH32 0x9722A3DAAFE3B4186F6B6457E0A264697066735822122011A59B911618D97B49 0xAD 0xF6 DUP12 SWAP6 0xA5 0x23 0xCC CALLDATASIZE 0x4C 0x27 SWAP15 GT DUP7 PUSH18 0xB6CEA7FE7F8A8A525E64736F6C6343000813 STOP CALLER "},"methodIdentifiers":{"FULL_HOUSE_PERCENTAGE()":"7334cbf4","GAME_DURATION()":"c31b29ce","ONE_LINE_PERCENTAGE()":"c489d767","TICKET_PRICE()":"1a95f15f","buyTicket(uint256[][5])":"78253d35","callNumber(uint256)":"f1bed61f","claimWin()":"b5ffd817","currentGameId()":"536a3ddc","games(uint256)":"117a5b90","getCalledNumbers()":"5a7fbabc","getGameInfo()":"1746bd1b","owner()":"8da5cb5b","renounceOwnership()":"715018a6","startNewGame()":"482d51e0","transferOwnership(address)":"f2fde38b"}}}}}