{"contracts/PacaBingo.sol":{"PacaBingo":{"abi":[{"inputs":[{"internalType":"address","name":"_usdtToken","type":"address"},{"internalType":"address","name":"_stakingContract","type":"address"}],"stateMutability":"nonpayable","type":"constructor"},{"anonymous":false,"inputs":[{"indexed":true,"internalType":"uint256","name":"gameId","type":"uint256"},{"indexed":false,"internalType":"enum PacaBingo.GameMode","name":"mode","type":"uint8"}],"name":"GameCreated","type":"event"},{"anonymous":false,"inputs":[{"indexed":true,"internalType":"uint256","name":"gameId","type":"uint256"},{"indexed":false,"internalType":"address","name":"winner","type":"address"}],"name":"GameFinished","type":"event"},{"anonymous":false,"inputs":[{"indexed":true,"internalType":"address","name":"previousOwner","type":"address"},{"indexed":true,"internalType":"address","name":"newOwner","type":"address"}],"name":"OwnershipTransferred","type":"event"},{"anonymous":false,"inputs":[{"indexed":true,"internalType":"uint256","name":"gameId","type":"uint256"},{"indexed":true,"internalType":"address","name":"player","type":"address"}],"name":"TicketPurchased","type":"event"},{"inputs":[{"internalType":"enum PacaBingo.GameMode","name":"mode","type":"uint8"}],"name":"buyTicket","outputs":[],"stateMutability":"nonpayable","type":"function"},{"inputs":[],"name":"currentGameId","outputs":[{"internalType":"uint256","name":"","type":"uint256"}],"stateMutability":"view","type":"function"},{"inputs":[{"internalType":"uint256","name":"","type":"uint256"}],"name":"games","outputs":[{"internalType":"enum PacaBingo.GameMode","name":"mode","type":"uint8"},{"internalType":"uint256","name":"prizePool","type":"uint256"},{"internalType":"bool","name":"active","type":"bool"}],"stateMutability":"view","type":"function"},{"inputs":[{"internalType":"uint256","name":"gameId","type":"uint256"}],"name":"getGameInfo","outputs":[{"internalType":"enum PacaBingo.GameMode","name":"mode","type":"uint8"},{"internalType":"uint256","name":"prizePool","type":"uint256"},{"internalType":"bool","name":"active","type":"bool"},{"internalType":"uint256","name":"playerCount","type":"uint256"}],"stateMutability":"view","type":"function"},{"inputs":[{"internalType":"uint256","name":"gameId","type":"uint256"}],"name":"getGamePlayers","outputs":[{"internalType":"address[]","name":"","type":"address[]"}],"stateMutability":"view","type":"function"},{"inputs":[],"name":"owner","outputs":[{"internalType":"address","name":"","type":"address"}],"stateMutability":"view","type":"function"},{"inputs":[{"internalType":"address","name":"","type":"address"}],"name":"playerGames","outputs":[{"internalType":"uint256","name":"","type":"uint256"}],"stateMutability":"view","type":"function"},{"inputs":[{"internalType":"enum PacaBingo.GameMode","name":"","type":"uint8"}],"name":"playerLimits","outputs":[{"internalType":"uint256","name":"","type":"uint256"}],"stateMutability":"view","type":"function"},{"inputs":[],"name":"renounceOwnership","outputs":[],"stateMutability":"nonpayable","type":"function"},{"inputs":[],"name":"stakingContract","outputs":[{"internalType":"contract IStaking","name":"","type":"address"}],"stateMutability":"view","type":"function"},{"inputs":[{"internalType":"enum PacaBingo.GameMode","name":"","type":"uint8"}],"name":"ticketPrices","outputs":[{"internalType":"uint256","name":"","type":"uint256"}],"stateMutability":"view","type":"function"},{"inputs":[{"internalType":"address","name":"newOwner","type":"address"}],"name":"transferOwnership","outputs":[],"stateMutability":"nonpayable","type":"function"},{"inputs":[],"name":"usdt","outputs":[{"internalType":"contract IERC20","name":"","type":"address"}],"stateMutability":"view","type":"function"}],"evm":{"bytecode":{"linkReferences":{},"object":"60803461013b57610eff90601f38839003908101601f19168201906001600160401b03821183831017610140578083916040958694855283398101031261013b5781816100596020610052601495610156565b9201610156565b60008054336001600160a01b031980831682178455929492936001600160a01b0393909284929083167f8be0079c531659141344cd1fd0a4f28419497f9722a3daafe3b4186f6b6457e08880a36001805516836002541617600255169060035416176003558080526004602052670de0b6b3a76400008282205560018152671bc16d674ec800008282205560028152674563918244f400008282205560038152678ac7230489e800008282205580805260056020526001828220556001815260058282205560028152600a8282205560038152205551610d94908161016b8239f35b600080fd5b634e487b7160e01b600052604160045260246000fd5b51906001600160a01b038216820361013b5756fe608080604052600436101561001357600080fd5b60003560e01c908163023697f01461044557508063117a5b90146103f357806315a40f49146103385780632f48ab7d1461030f57806340056505146102d157806347e1d55014610274578063536a3ddc146102565780636e4107961461022e578063715018a6146101e757806386b7a177146101b65780638da5cb5b1461018d578063ee99205c146101645763f2fde38b146100ae57600080fd5b3461015f57602036600319011261015f576004356001600160a01b038181169182900361015f576100dd610a05565b811561010b576000548260018060a01b031982161760005516600080516020610d3f833981519152600080a3005b60405162461bcd60e51b815260206004820152602660248201527f4f776e61626c653a206e6577206f776e657220697320746865207a65726f206160448201526564647265737360d01b6064820152608490fd5b600080fd5b3461015f57600036600319011261015f576003546040516001600160a01b039091168152602090f35b3461015f57600036600319011261015f576000546040516001600160a01b039091168152602090f35b3461015f57602036600319011261015f57600435600481101561015f576101de6020916109ec565b54604051908152f35b3461015f57600036600319011261015f57610200610a05565b600080546001600160a01b0319811682556001600160a01b0316600080516020610d3f8339815191528280a3005b3461015f57602036600319011261015f57600435600481101561015f576101de6020916109d3565b3461015f57600036600319011261015f576020600854604051908152f35b3461015f57602036600319011261015f5760043560005260066020526080604060002060ff81541690600181015490600360ff600283015416910154916102be60405180956109b0565b6020840152151560408301526060820152f35b3461015f57602036600319011261015f576004356001600160a01b0381169081900361015f5760005260076020526020604060002054604051908152f35b3461015f57600036600319011261015f576002546040516001600160a01b039091168152602090f35b3461015f5760208060031936011261015f5760043560005260068152600360406000200160405190818382549182815201908192600052846000209060005b868282106103d657868661038d82880383610a5d565b604051928392818401908285525180915260408401929160005b8281106103b657505050500390f35b83516001600160a01b0316855286955093810193928101926001016103a7565b83546001600160a01b031685529093019260019283019201610377565b3461015f57602036600319011261015f5760043560005260066020526060604060002060ff8154169060ff60026001830154920154169061043760405180946109b0565b602083015215156040820152f35b3461015f57602036600319011261015f5760043590600482101561015f5760026001541461096e575060026001553360005260076020526040600020546109355761048f816109d3565b54156108fc576002546000906020906001600160a01b031660646104b2856109d3565b5460405194859384926323b872dd60e01b845233600485015230602485015260448401525af19081156107be576000916108dd575b50156108a1576104f681610ad5565b90816000526006602052604060002033600052600760205282604060002055600381018054600160401b81101561083e578060016105379201835582610a98565b81546001600160a01b0360039290921b91821b19163390911b179055600161055e846109d3565b54920191825490810180911161088b576105a1925533847f785f2865353ae960010300f584fc6c577b757a853af69a99c769df3c8232d3de600080a354916109ec565b54146105ae575b60018055005b80600052600660205260406000209060028201549060ff8216156108545760405160208101904282524460408201523360601b6060820152605481526080810181811060018060401b0382111761083e57604052519020600384015480156108285761061e910660038501610a98565b60018060a01b0391549060031b1c16600184019260008454945560ff1916600285015560005b600385015481101561068c57806106616106879260038801610a98565b905460039190911b1c6001600160a01b0316600090815260076020526040812055610ac6565b610644565b5060025460035460405163095ea7b360e01b81526001600160a01b039182166004820152602481018690529395509193929160209183916044918391600091165af19081156107be57600091610809575b50156107ca5760035460405163534a7e1d60e11b81526004810192909252602090829060249082906000906001600160a01b03165af19081156107be5760009161078f575b50156107595760207fb7f35e624e036288272fbf3342c09219261ff29fdddd826989b289134e9ae53591604051908152a2806105a8565b60405162461bcd60e51b815260206004820152600e60248201526d14dd185ada5b99c819985a5b195960921b6044820152606490fd5b6107b1915060203d6020116107b7575b6107a98183610a5d565b810190610a80565b83610722565b503d61079f565b6040513d6000823e3d90fd5b60405162461bcd60e51b815260206004820152601760248201527614dd185ada5b99c8185c1c1c9bdd985b0819985a5b1959604a1b6044820152606490fd5b610822915060203d6020116107b7576107a98183610a5d565b846106dd565b634e487b7160e01b600052601260045260246000fd5b634e487b7160e01b600052604160045260246000fd5b60405162461bcd60e51b815260206004820152600f60248201526e47616d65206e6f742061637469766560881b6044820152606490fd5b634e487b7160e01b600052601160045260246000fd5b60405162461bcd60e51b81526020600482015260146024820152731554d115081d1c985b9cd9995c8819985a5b195960621b6044820152606490fd5b6108f6915060203d6020116107b7576107a98183610a5d565b826104e7565b60405162461bcd60e51b8152602060048201526011602482015270496e76616c69642067616d65206d6f646560781b6044820152606490fd5b60405162461bcd60e51b8152602060048201526011602482015270416c726561647920696e20612067616d6560781b6044820152606490fd5b62461bcd60e51b815260206004820152601f60248201527f5265656e7472616e637947756172643a207265656e7472616e742063616c6c006044820152606490fd5b9060048210156109bd5752565b634e487b7160e01b600052602160045260246000fd5b60048110156109bd576000526004602052604060002090565b60048110156109bd576000526005602052604060002090565b6000546001600160a01b03163303610a1957565b606460405162461bcd60e51b815260206004820152602060248201527f4f776e61626c653a2063616c6c6572206973206e6f7420746865206f776e65726044820152fd5b601f909101601f19168101906001600160401b0382119082101761083e57604052565b9081602091031261015f5751801515810361015f5790565b8054821015610ab05760005260206000200190600090565b634e487b7160e01b600052603260045260246000fd5b600019811461088b5760010190565b906008548080915b610c985750610aeb90610ac6565b60088190556040805190916020916001600160401b03908381018281118282101761083e578552600080825285516080810181811085821117610c84578752600490818a1015610c7157898152868101838152888201906001978883526060840196875285526006895289852092519084821015610c5e5790600393929160ff199160ff838654169116178455518984015560ff6002840192511515918354169116179055019251908151948511610c4b57600160401b8511610c4b575085908354858555808610610c21575b5001918152848120905b838110610c075750505050507f33fbd5015d61fe861a1a149e88720cc4ee49722a3c3dd94d6947600a9de1993890610c0393946008549485945180926109b0565ba290565b82516001600160a01b031682820155918501918401610bc2565b848452868684862092830192015b828110610c3d575050610bb8565b858155899450889101610c2f565b634e487b7160e01b835260419052602482fd5b634e487b7160e01b865260218552602486fd5b634e487b7160e01b835260218252602483fd5b634e487b7160e01b83526041600452602483fd5b600081815260066020526040812060ff91826002830154169283610d05575b505081610cee575b50610ce9578015610cd4576000190180610add565b60246000634e487b7160e01b81526011600452fd5b925050565b600391500154610cfd856109ec565b541138610cbf565b9091809350541690600480881015610d2b5780831015610d2b5750508514903880610cb7565b634e487b7160e01b825260219052602490fdfe8be0079c531659141344cd1fd0a4f28419497f9722a3daafe3b4186f6b6457e0a26469706673582212201b7254af5aaf834011252bbadbeb98359e8ecaa7029dc95dd5b8561a07030bbc64736f6c63430008130033","opcodes":"PUSH1 0x80 CALLVALUE PUSH2 0x13B JUMPI PUSH2 0xEFF SWAP1 PUSH1 0x1F CODESIZE DUP4 SWAP1 SUB SWAP1 DUP2 ADD PUSH1 0x1F NOT AND DUP3 ADD SWAP1 PUSH1 0x1 PUSH1 0x1 PUSH1 0x40 SHL SUB DUP3 GT DUP4 DUP4 LT OR PUSH2 0x140 JUMPI DUP1 DUP4 SWAP2 PUSH1 0x40 SWAP6 DUP7 SWAP5 DUP6 MSTORE DUP4 CODECOPY DUP2 ADD SUB SLT PUSH2 0x13B JUMPI DUP2 DUP2 PUSH2 0x59 PUSH1 0x20 PUSH2 0x52 PUSH1 0x14 SWAP6 PUSH2 0x156 JUMP JUMPDEST SWAP3 ADD PUSH2 0x156 JUMP JUMPDEST PUSH1 0x0 DUP1 SLOAD CALLER PUSH1 0x1 PUSH1 0x1 PUSH1 0xA0 SHL SUB NOT DUP1 DUP4 AND DUP3 OR DUP5 SSTORE SWAP3 SWAP5 SWAP3 SWAP4 PUSH1 0x1 PUSH1 0x1 PUSH1 0xA0 SHL SUB SWAP4 SWAP1 SWAP3 DUP5 SWAP3 SWAP1 DUP4 AND PUSH32 0x8BE0079C531659141344CD1FD0A4F28419497F9722A3DAAFE3B4186F6B6457E0 DUP9 DUP1 LOG3 PUSH1 0x1 DUP1 SSTORE AND DUP4 PUSH1 0x2 SLOAD AND OR PUSH1 0x2 SSTORE AND SWAP1 PUSH1 0x3 SLOAD AND OR PUSH1 0x3 SSTORE DUP1 DUP1 MSTORE PUSH1 0x4 PUSH1 0x20 MSTORE PUSH8 0xDE0B6B3A7640000 DUP3 DUP3 KECCAK256 SSTORE PUSH1 0x1 DUP2 MSTORE PUSH8 0x1BC16D674EC80000 DUP3 DUP3 KECCAK256 SSTORE PUSH1 0x2 DUP2 MSTORE PUSH8 0x4563918244F40000 DUP3 DUP3 KECCAK256 SSTORE PUSH1 0x3 DUP2 MSTORE PUSH8 0x8AC7230489E80000 DUP3 DUP3 KECCAK256 SSTORE DUP1 DUP1 MSTORE PUSH1 0x5 PUSH1 0x20 MSTORE PUSH1 0x1 DUP3 DUP3 KECCAK256 SSTORE PUSH1 0x1 DUP2 MSTORE PUSH1 0x5 DUP3 DUP3 KECCAK256 SSTORE PUSH1 0x2 DUP2 MSTORE PUSH1 0xA DUP3 DUP3 KECCAK256 SSTORE PUSH1 0x3 DUP2 MSTORE KECCAK256 SSTORE MLOAD PUSH2 0xD94 SWAP1 DUP2 PUSH2 0x16B DUP3 CODECOPY RETURN JUMPDEST PUSH1 0x0 DUP1 REVERT JUMPDEST PUSH4 0x4E487B71 PUSH1 0xE0 SHL PUSH1 0x0 MSTORE PUSH1 0x41 PUSH1 0x4 MSTORE PUSH1 0x24 PUSH1 0x0 REVERT JUMPDEST MLOAD SWAP1 PUSH1 0x1 PUSH1 0x1 PUSH1 0xA0 SHL SUB DUP3 AND DUP3 SUB PUSH2 0x13B JUMPI JUMP INVALID PUSH1 0x80 DUP1 PUSH1 0x40 MSTORE PUSH1 0x4 CALLDATASIZE LT ISZERO PUSH2 0x13 JUMPI PUSH1 0x0 DUP1 REVERT JUMPDEST PUSH1 0x0 CALLDATALOAD PUSH1 0xE0 SHR SWAP1 DUP2 PUSH4 0x23697F0 EQ PUSH2 0x445 JUMPI POP DUP1 PUSH4 0x117A5B90 EQ PUSH2 0x3F3 JUMPI DUP1 PUSH4 0x15A40F49 EQ PUSH2 0x338 JUMPI DUP1 PUSH4 0x2F48AB7D EQ PUSH2 0x30F JUMPI DUP1 PUSH4 0x40056505 EQ PUSH2 0x2D1 JUMPI DUP1 PUSH4 0x47E1D550 EQ PUSH2 0x274 JUMPI DUP1 PUSH4 0x536A3DDC EQ PUSH2 0x256 JUMPI DUP1 PUSH4 0x6E410796 EQ PUSH2 0x22E JUMPI DUP1 PUSH4 0x715018A6 EQ PUSH2 0x1E7 JUMPI DUP1 PUSH4 0x86B7A177 EQ PUSH2 0x1B6 JUMPI DUP1 PUSH4 0x8DA5CB5B EQ PUSH2 0x18D JUMPI DUP1 PUSH4 0xEE99205C EQ PUSH2 0x164 JUMPI PUSH4 0xF2FDE38B EQ PUSH2 0xAE JUMPI PUSH1 0x0 DUP1 REVERT JUMPDEST CALLVALUE PUSH2 0x15F JUMPI PUSH1 0x20 CALLDATASIZE PUSH1 0x3 NOT ADD SLT PUSH2 0x15F JUMPI PUSH1 0x4 CALLDATALOAD PUSH1 0x1 PUSH1 0x1 PUSH1 0xA0 SHL SUB DUP2 DUP2 AND SWAP2 DUP3 SWAP1 SUB PUSH2 0x15F JUMPI PUSH2 0xDD PUSH2 0xA05 JUMP JUMPDEST DUP2 ISZERO PUSH2 0x10B JUMPI PUSH1 0x0 SLOAD DUP3 PUSH1 0x1 DUP1 PUSH1 0xA0 SHL SUB NOT DUP3 AND OR PUSH1 0x0 SSTORE AND PUSH1 0x0 DUP1 MLOAD PUSH1 0x20 PUSH2 0xD3F DUP4 CODECOPY DUP2 MLOAD SWAP2 MSTORE PUSH1 0x0 DUP1 LOG3 STOP JUMPDEST PUSH1 0x40 MLOAD PUSH3 0x461BCD PUSH1 0xE5 SHL DUP2 MSTORE PUSH1 0x20 PUSH1 0x4 DUP3 ADD MSTORE PUSH1 0x26 PUSH1 0x24 DUP3 ADD MSTORE PUSH32 0x4F776E61626C653A206E6577206F776E657220697320746865207A65726F2061 PUSH1 0x44 DUP3 ADD MSTORE PUSH6 0x646472657373 PUSH1 0xD0 SHL PUSH1 0x64 DUP3 ADD MSTORE PUSH1 0x84 SWAP1 REVERT JUMPDEST PUSH1 0x0 DUP1 REVERT JUMPDEST CALLVALUE PUSH2 0x15F JUMPI PUSH1 0x0 CALLDATASIZE PUSH1 0x3 NOT ADD SLT PUSH2 0x15F JUMPI PUSH1 0x3 SLOAD PUSH1 0x40 MLOAD PUSH1 0x1 PUSH1 0x1 PUSH1 0xA0 SHL SUB SWAP1 SWAP2 AND DUP2 MSTORE PUSH1 0x20 SWAP1 RETURN JUMPDEST CALLVALUE PUSH2 0x15F JUMPI PUSH1 0x0 CALLDATASIZE PUSH1 0x3 NOT ADD SLT PUSH2 0x15F JUMPI PUSH1 0x0 SLOAD PUSH1 0x40 MLOAD PUSH1 0x1 PUSH1 0x1 PUSH1 0xA0 SHL SUB SWAP1 SWAP2 AND DUP2 MSTORE PUSH1 0x20 SWAP1 RETURN JUMPDEST CALLVALUE PUSH2 0x15F JUMPI PUSH1 0x20 CALLDATASIZE PUSH1 0x3 NOT ADD SLT PUSH2 0x15F JUMPI PUSH1 0x4 CALLDATALOAD PUSH1 0x4 DUP2 LT ISZERO PUSH2 0x15F JUMPI PUSH2 0x1DE PUSH1 0x20 SWAP2 PUSH2 0x9EC JUMP JUMPDEST SLOAD PUSH1 0x40 MLOAD SWAP1 DUP2 MSTORE RETURN JUMPDEST CALLVALUE PUSH2 0x15F JUMPI PUSH1 0x0 CALLDATASIZE PUSH1 0x3 NOT ADD SLT PUSH2 0x15F JUMPI PUSH2 0x200 PUSH2 0xA05 JUMP JUMPDEST PUSH1 0x0 DUP1 SLOAD PUSH1 0x1 PUSH1 0x1 PUSH1 0xA0 SHL SUB NOT DUP2 AND DUP3 SSTORE PUSH1 0x1 PUSH1 0x1 PUSH1 0xA0 SHL SUB AND PUSH1 0x0 DUP1 MLOAD PUSH1 0x20 PUSH2 0xD3F DUP4 CODECOPY DUP2 MLOAD SWAP2 MSTORE DUP3 DUP1 LOG3 STOP JUMPDEST CALLVALUE PUSH2 0x15F JUMPI PUSH1 0x20 CALLDATASIZE PUSH1 0x3 NOT ADD SLT PUSH2 0x15F JUMPI PUSH1 0x4 CALLDATALOAD PUSH1 0x4 DUP2 LT ISZERO PUSH2 0x15F JUMPI PUSH2 0x1DE PUSH1 0x20 SWAP2 PUSH2 0x9D3 JUMP JUMPDEST CALLVALUE PUSH2 0x15F JUMPI PUSH1 0x0 CALLDATASIZE PUSH1 0x3 NOT ADD SLT PUSH2 0x15F JUMPI PUSH1 0x20 PUSH1 0x8 SLOAD PUSH1 0x40 MLOAD SWAP1 DUP2 MSTORE RETURN JUMPDEST CALLVALUE PUSH2 0x15F JUMPI PUSH1 0x20 CALLDATASIZE PUSH1 0x3 NOT ADD SLT PUSH2 0x15F JUMPI PUSH1 0x4 CALLDATALOAD PUSH1 0x0 MSTORE PUSH1 0x6 PUSH1 0x20 MSTORE PUSH1 0x80 PUSH1 0x40 PUSH1 0x0 KECCAK256 PUSH1 0xFF DUP2 SLOAD AND SWAP1 PUSH1 0x1 DUP2 ADD SLOAD SWAP1 PUSH1 0x3 PUSH1 0xFF PUSH1 0x2 DUP4 ADD SLOAD AND SWAP2 ADD SLOAD SWAP2 PUSH2 0x2BE PUSH1 0x40 MLOAD DUP1 SWAP6 PUSH2 0x9B0 JUMP JUMPDEST PUSH1 0x20 DUP5 ADD MSTORE ISZERO ISZERO PUSH1 0x40 DUP4 ADD MSTORE PUSH1 0x60 DUP3 ADD MSTORE RETURN JUMPDEST CALLVALUE PUSH2 0x15F JUMPI PUSH1 0x20 CALLDATASIZE PUSH1 0x3 NOT ADD SLT PUSH2 0x15F JUMPI PUSH1 0x4 CALLDATALOAD PUSH1 0x1 PUSH1 0x1 PUSH1 0xA0 SHL SUB DUP2 AND SWAP1 DUP2 SWAP1 SUB PUSH2 0x15F JUMPI PUSH1 0x0 MSTORE PUSH1 0x7 PUSH1 0x20 MSTORE PUSH1 0x20 PUSH1 0x40 PUSH1 0x0 KECCAK256 SLOAD PUSH1 0x40 MLOAD SWAP1 DUP2 MSTORE RETURN JUMPDEST CALLVALUE PUSH2 0x15F JUMPI PUSH1 0x0 CALLDATASIZE PUSH1 0x3 NOT ADD SLT PUSH2 0x15F JUMPI PUSH1 0x2 SLOAD PUSH1 0x40 MLOAD PUSH1 0x1 PUSH1 0x1 PUSH1 0xA0 SHL SUB SWAP1 SWAP2 AND DUP2 MSTORE PUSH1 0x20 SWAP1 RETURN JUMPDEST CALLVALUE PUSH2 0x15F JUMPI PUSH1 0x20 DUP1 PUSH1 0x3 NOT CALLDATASIZE ADD SLT PUSH2 0x15F JUMPI PUSH1 0x4 CALLDATALOAD PUSH1 0x0 MSTORE PUSH1 0x6 DUP2 MSTORE PUSH1 0x3 PUSH1 0x40 PUSH1 0x0 KECCAK256 ADD PUSH1 0x40 MLOAD SWAP1 DUP2 DUP4 DUP3 SLOAD SWAP2 DUP3 DUP2 MSTORE ADD SWAP1 DUP2 SWAP3 PUSH1 0x0 MSTORE DUP5 PUSH1 0x0 KECCAK256 SWAP1 PUSH1 0x0 JUMPDEST DUP7 DUP3 DUP3 LT PUSH2 0x3D6 JUMPI DUP7 DUP7 PUSH2 0x38D DUP3 DUP9 SUB DUP4 PUSH2 0xA5D JUMP JUMPDEST PUSH1 0x40 MLOAD SWAP3 DUP4 SWAP3 DUP2 DUP5 ADD SWAP1 DUP3 DUP6 MSTORE MLOAD DUP1 SWAP2 MSTORE PUSH1 0x40 DUP5 ADD SWAP3 SWAP2 PUSH1 0x0 JUMPDEST DUP3 DUP2 LT PUSH2 0x3B6 JUMPI POP POP POP POP SUB SWAP1 RETURN JUMPDEST DUP4 MLOAD PUSH1 0x1 PUSH1 0x1 PUSH1 0xA0 SHL SUB AND DUP6 MSTORE DUP7 SWAP6 POP SWAP4 DUP2 ADD SWAP4 SWAP3 DUP2 ADD SWAP3 PUSH1 0x1 ADD PUSH2 0x3A7 JUMP JUMPDEST DUP4 SLOAD PUSH1 0x1 PUSH1 0x1 PUSH1 0xA0 SHL SUB AND DUP6 MSTORE SWAP1 SWAP4 ADD SWAP3 PUSH1 0x1 SWAP3 DUP4 ADD SWAP3 ADD PUSH2 0x377 JUMP JUMPDEST CALLVALUE PUSH2 0x15F JUMPI PUSH1 0x20 CALLDATASIZE PUSH1 0x3 NOT ADD SLT PUSH2 0x15F JUMPI PUSH1 0x4 CALLDATALOAD PUSH1 0x0 MSTORE PUSH1 0x6 PUSH1 0x20 MSTORE PUSH1 0x60 PUSH1 0x40 PUSH1 0x0 KECCAK256 PUSH1 0xFF DUP2 SLOAD AND SWAP1 PUSH1 0xFF PUSH1 0x2 PUSH1 0x1 DUP4 ADD SLOAD SWAP3 ADD SLOAD AND SWAP1 PUSH2 0x437 PUSH1 0x40 MLOAD DUP1 SWAP5 PUSH2 0x9B0 JUMP JUMPDEST PUSH1 0x20 DUP4 ADD MSTORE ISZERO ISZERO PUSH1 0x40 DUP3 ADD MSTORE RETURN JUMPDEST CALLVALUE PUSH2 0x15F JUMPI PUSH1 0x20 CALLDATASIZE PUSH1 0x3 NOT ADD SLT PUSH2 0x15F JUMPI PUSH1 0x4 CALLDATALOAD SWAP1 PUSH1 0x4 DUP3 LT ISZERO PUSH2 0x15F JUMPI PUSH1 0x2 PUSH1 0x1 SLOAD EQ PUSH2 0x96E JUMPI POP PUSH1 0x2 PUSH1 0x1 SSTORE CALLER PUSH1 0x0 MSTORE PUSH1 0x7 PUSH1 0x20 MSTORE PUSH1 0x40 PUSH1 0x0 KECCAK256 SLOAD PUSH2 0x935 JUMPI PUSH2 0x48F DUP2 PUSH2 0x9D3 JUMP JUMPDEST SLOAD ISZERO PUSH2 0x8FC JUMPI PUSH1 0x2 SLOAD PUSH1 0x0 SWAP1 PUSH1 0x20 SWAP1 PUSH1 0x1 PUSH1 0x1 PUSH1 0xA0 SHL SUB AND PUSH1 0x64 PUSH2 0x4B2 DUP6 PUSH2 0x9D3 JUMP JUMPDEST SLOAD PUSH1 0x40 MLOAD SWAP5 DUP6 SWAP4 DUP5 SWAP3 PUSH4 0x23B872DD PUSH1 0xE0 SHL DUP5 MSTORE CALLER PUSH1 0x4 DUP6 ADD MSTORE ADDRESS PUSH1 0x24 DUP6 ADD MSTORE PUSH1 0x44 DUP5 ADD MSTORE GAS CALL SWAP1 DUP2 ISZERO PUSH2 0x7BE JUMPI PUSH1 0x0 SWAP2 PUSH2 0x8DD JUMPI JUMPDEST POP ISZERO PUSH2 0x8A1 JUMPI PUSH2 0x4F6 DUP2 PUSH2 0xAD5 JUMP JUMPDEST SWAP1 DUP2 PUSH1 0x0 MSTORE PUSH1 0x6 PUSH1 0x20 MSTORE PUSH1 0x40 PUSH1 0x0 KECCAK256 CALLER PUSH1 0x0 MSTORE PUSH1 0x7 PUSH1 0x20 MSTORE DUP3 PUSH1 0x40 PUSH1 0x0 KECCAK256 SSTORE PUSH1 0x3 DUP2 ADD DUP1 SLOAD PUSH1 0x1 PUSH1 0x40 SHL DUP2 LT ISZERO PUSH2 0x83E JUMPI DUP1 PUSH1 0x1 PUSH2 0x537 SWAP3 ADD DUP4 SSTORE DUP3 PUSH2 0xA98 JUMP JUMPDEST DUP2 SLOAD PUSH1 0x1 PUSH1 0x1 PUSH1 0xA0 SHL SUB PUSH1 0x3 SWAP3 SWAP1 SWAP3 SHL SWAP2 DUP3 SHL NOT AND CALLER SWAP1 SWAP2 SHL OR SWAP1 SSTORE PUSH1 0x1 PUSH2 0x55E DUP5 PUSH2 0x9D3 JUMP JUMPDEST SLOAD SWAP3 ADD SWAP2 DUP3 SLOAD SWAP1 DUP2 ADD DUP1 SWAP2 GT PUSH2 0x88B JUMPI PUSH2 0x5A1 SWAP3 SSTORE CALLER DUP5 PUSH32 0x785F2865353AE960010300F584FC6C577B757A853AF69A99C769DF3C8232D3DE PUSH1 0x0 DUP1 LOG3 SLOAD SWAP2 PUSH2 0x9EC JUMP JUMPDEST SLOAD EQ PUSH2 0x5AE JUMPI JUMPDEST PUSH1 0x1 DUP1 SSTORE STOP JUMPDEST DUP1 PUSH1 0x0 MSTORE PUSH1 0x6 PUSH1 0x20 MSTORE PUSH1 0x40 PUSH1 0x0 KECCAK256 SWAP1 PUSH1 0x2 DUP3 ADD SLOAD SWAP1 PUSH1 0xFF DUP3 AND ISZERO PUSH2 0x854 JUMPI PUSH1 0x40 MLOAD PUSH1 0x20 DUP2 ADD SWAP1 TIMESTAMP DUP3 MSTORE PREVRANDAO PUSH1 0x40 DUP3 ADD MSTORE CALLER PUSH1 0x60 SHL PUSH1 0x60 DUP3 ADD MSTORE PUSH1 0x54 DUP2 MSTORE PUSH1 0x80 DUP2 ADD DUP2 DUP2 LT PUSH1 0x1 DUP1 PUSH1 0x40 SHL SUB DUP3 GT OR PUSH2 0x83E JUMPI PUSH1 0x40 MSTORE MLOAD SWAP1 KECCAK256 PUSH1 0x3 DUP5 ADD SLOAD DUP1 ISZERO PUSH2 0x828 JUMPI PUSH2 0x61E SWAP2 MOD PUSH1 0x3 DUP6 ADD PUSH2 0xA98 JUMP JUMPDEST PUSH1 0x1 DUP1 PUSH1 0xA0 SHL SUB SWAP2 SLOAD SWAP1 PUSH1 0x3 SHL SHR AND PUSH1 0x1 DUP5 ADD SWAP3 PUSH1 0x0 DUP5 SLOAD SWAP5 SSTORE PUSH1 0xFF NOT AND PUSH1 0x2 DUP6 ADD SSTORE PUSH1 0x0 JUMPDEST PUSH1 0x3 DUP6 ADD SLOAD DUP2 LT ISZERO PUSH2 0x68C JUMPI DUP1 PUSH2 0x661 PUSH2 0x687 SWAP3 PUSH1 0x3 DUP9 ADD PUSH2 0xA98 JUMP JUMPDEST SWAP1 SLOAD PUSH1 0x3 SWAP2 SWAP1 SWAP2 SHL SHR PUSH1 0x1 PUSH1 0x1 PUSH1 0xA0 SHL SUB AND PUSH1 0x0 SWAP1 DUP2 MSTORE PUSH1 0x7 PUSH1 0x20 MSTORE PUSH1 0x40 DUP2 KECCAK256 SSTORE PUSH2 0xAC6 JUMP JUMPDEST PUSH2 0x644 JUMP JUMPDEST POP PUSH1 0x2 SLOAD PUSH1 0x3 SLOAD PUSH1 0x40 MLOAD PUSH4 0x95EA7B3 PUSH1 0xE0 SHL DUP2 MSTORE PUSH1 0x1 PUSH1 0x1 PUSH1 0xA0 SHL SUB SWAP2 DUP3 AND PUSH1 0x4 DUP3 ADD MSTORE PUSH1 0x24 DUP2 ADD DUP7 SWAP1 MSTORE SWAP4 SWAP6 POP SWAP2 SWAP4 SWAP3 SWAP2 PUSH1 0x20 SWAP2 DUP4 SWAP2 PUSH1 0x44 SWAP2 DUP4 SWAP2 PUSH1 0x0 SWAP2 AND GAS CALL SWAP1 DUP2 ISZERO PUSH2 0x7BE JUMPI PUSH1 0x0 SWAP2 PUSH2 0x809 JUMPI JUMPDEST POP ISZERO PUSH2 0x7CA JUMPI PUSH1 0x3 SLOAD PUSH1 0x40 MLOAD PUSH4 0x534A7E1D PUSH1 0xE1 SHL DUP2 MSTORE PUSH1 0x4 DUP2 ADD SWAP3 SWAP1 SWAP3 MSTORE PUSH1 0x20 SWAP1 DUP3 SWAP1 PUSH1 0x24 SWAP1 DUP3 SWAP1 PUSH1 0x0 SWAP1 PUSH1 0x1 PUSH1 0x1 PUSH1 0xA0 SHL SUB AND GAS CALL SWAP1 DUP2 ISZERO PUSH2 0x7BE JUMPI PUSH1 0x0 SWAP2 PUSH2 0x78F JUMPI JUMPDEST POP ISZERO PUSH2 0x759 JUMPI PUSH1 0x20 PUSH32 0xB7F35E624E036288272FBF3342C09219261FF29FDDDD826989B289134E9AE535 SWAP2 PUSH1 0x40 MLOAD SWAP1 DUP2 MSTORE LOG2 DUP1 PUSH2 0x5A8 JUMP JUMPDEST PUSH1 0x40 MLOAD PUSH3 0x461BCD PUSH1 0xE5 SHL DUP2 MSTORE PUSH1 0x20 PUSH1 0x4 DUP3 ADD MSTORE PUSH1 0xE PUSH1 0x24 DUP3 ADD MSTORE PUSH14 0x14DD185ADA5B99C819985A5B1959 PUSH1 0x92 SHL PUSH1 0x44 DUP3 ADD MSTORE PUSH1 0x64 SWAP1 REVERT JUMPDEST PUSH2 0x7B1 SWAP2 POP PUSH1 0x20 RETURNDATASIZE PUSH1 0x20 GT PUSH2 0x7B7 JUMPI JUMPDEST PUSH2 0x7A9 DUP2 DUP4 PUSH2 0xA5D JUMP JUMPDEST DUP2 ADD SWAP1 PUSH2 0xA80 JUMP JUMPDEST DUP4 PUSH2 0x722 JUMP JUMPDEST POP RETURNDATASIZE PUSH2 0x79F JUMP JUMPDEST PUSH1 0x40 MLOAD RETURNDATASIZE PUSH1 0x0 DUP3 RETURNDATACOPY RETURNDATASIZE SWAP1 REVERT JUMPDEST PUSH1 0x40 MLOAD PUSH3 0x461BCD PUSH1 0xE5 SHL DUP2 MSTORE PUSH1 0x20 PUSH1 0x4 DUP3 ADD MSTORE PUSH1 0x17 PUSH1 0x24 DUP3 ADD MSTORE PUSH23 0x14DD185ADA5B99C8185C1C1C9BDD985B0819985A5B1959 PUSH1 0x4A SHL PUSH1 0x44 DUP3 ADD MSTORE PUSH1 0x64 SWAP1 REVERT JUMPDEST PUSH2 0x822 SWAP2 POP PUSH1 0x20 RETURNDATASIZE PUSH1 0x20 GT PUSH2 0x7B7 JUMPI PUSH2 0x7A9 DUP2 DUP4 PUSH2 0xA5D JUMP JUMPDEST DUP5 PUSH2 0x6DD JUMP JUMPDEST PUSH4 0x4E487B71 PUSH1 0xE0 SHL PUSH1 0x0 MSTORE PUSH1 0x12 PUSH1 0x4 MSTORE PUSH1 0x24 PUSH1 0x0 REVERT JUMPDEST PUSH4 0x4E487B71 PUSH1 0xE0 SHL PUSH1 0x0 MSTORE PUSH1 0x41 PUSH1 0x4 MSTORE PUSH1 0x24 PUSH1 0x0 REVERT JUMPDEST PUSH1 0x40 MLOAD PUSH3 0x461BCD PUSH1 0xE5 SHL DUP2 MSTORE PUSH1 0x20 PUSH1 0x4 DUP3 ADD MSTORE PUSH1 0xF PUSH1 0x24 DUP3 ADD MSTORE PUSH15 0x47616D65206E6F7420616374697665 PUSH1 0x88 SHL PUSH1 0x44 DUP3 ADD MSTORE PUSH1 0x64 SWAP1 REVERT JUMPDEST PUSH4 0x4E487B71 PUSH1 0xE0 SHL PUSH1 0x0 MSTORE PUSH1 0x11 PUSH1 0x4 MSTORE PUSH1 0x24 PUSH1 0x0 REVERT JUMPDEST PUSH1 0x40 MLOAD PUSH3 0x461BCD PUSH1 0xE5 SHL DUP2 MSTORE PUSH1 0x20 PUSH1 0x4 DUP3 ADD MSTORE PUSH1 0x14 PUSH1 0x24 DUP3 ADD MSTORE PUSH20 0x1554D115081D1C985B9CD9995C8819985A5B1959 PUSH1 0x62 SHL PUSH1 0x44 DUP3 ADD MSTORE PUSH1 0x64 SWAP1 REVERT JUMPDEST PUSH2 0x8F6 SWAP2 POP PUSH1 0x20 RETURNDATASIZE PUSH1 0x20 GT PUSH2 0x7B7 JUMPI PUSH2 0x7A9 DUP2 DUP4 PUSH2 0xA5D JUMP JUMPDEST DUP3 PUSH2 0x4E7 JUMP JUMPDEST PUSH1 0x40 MLOAD PUSH3 0x461BCD PUSH1 0xE5 SHL DUP2 MSTORE PUSH1 0x20 PUSH1 0x4 DUP3 ADD MSTORE PUSH1 0x11 PUSH1 0x24 DUP3 ADD MSTORE PUSH17 0x496E76616C69642067616D65206D6F6465 PUSH1 0x78 SHL PUSH1 0x44 DUP3 ADD MSTORE PUSH1 0x64 SWAP1 REVERT JUMPDEST PUSH1 0x40 MLOAD PUSH3 0x461BCD PUSH1 0xE5 SHL DUP2 MSTORE PUSH1 0x20 PUSH1 0x4 DUP3 ADD MSTORE PUSH1 0x11 PUSH1 0x24 DUP3 ADD MSTORE PUSH17 0x416C726561647920696E20612067616D65 PUSH1 0x78 SHL PUSH1 0x44 DUP3 ADD MSTORE PUSH1 0x64 SWAP1 REVERT JUMPDEST PUSH3 0x461BCD PUSH1 0xE5 SHL DUP2 MSTORE PUSH1 0x20 PUSH1 0x4 DUP3 ADD MSTORE PUSH1 0x1F PUSH1 0x24 DUP3 ADD MSTORE PUSH32 0x5265656E7472616E637947756172643A207265656E7472616E742063616C6C00 PUSH1 0x44 DUP3 ADD MSTORE PUSH1 0x64 SWAP1 REVERT JUMPDEST SWAP1 PUSH1 0x4 DUP3 LT ISZERO PUSH2 0x9BD JUMPI MSTORE JUMP JUMPDEST PUSH4 0x4E487B71 PUSH1 0xE0 SHL PUSH1 0x0 MSTORE PUSH1 0x21 PUSH1 0x4 MSTORE PUSH1 0x24 PUSH1 0x0 REVERT JUMPDEST PUSH1 0x4 DUP2 LT ISZERO PUSH2 0x9BD JUMPI PUSH1 0x0 MSTORE PUSH1 0x4 PUSH1 0x20 MSTORE PUSH1 0x40 PUSH1 0x0 KECCAK256 SWAP1 JUMP JUMPDEST PUSH1 0x4 DUP2 LT ISZERO PUSH2 0x9BD JUMPI PUSH1 0x0 MSTORE PUSH1 0x5 PUSH1 0x20 MSTORE PUSH1 0x40 PUSH1 0x0 KECCAK256 SWAP1 JUMP JUMPDEST PUSH1 0x0 SLOAD PUSH1 0x1 PUSH1 0x1 PUSH1 0xA0 SHL SUB AND CALLER SUB PUSH2 0xA19 JUMPI JUMP JUMPDEST PUSH1 0x64 PUSH1 0x40 MLOAD PUSH3 0x461BCD PUSH1 0xE5 SHL DUP2 MSTORE PUSH1 0x20 PUSH1 0x4 DUP3 ADD MSTORE PUSH1 0x20 PUSH1 0x24 DUP3 ADD MSTORE PUSH32 0x4F776E61626C653A2063616C6C6572206973206E6F7420746865206F776E6572 PUSH1 0x44 DUP3 ADD MSTORE REVERT JUMPDEST PUSH1 0x1F SWAP1 SWAP2 ADD PUSH1 0x1F NOT AND DUP2 ADD SWAP1 PUSH1 0x1 PUSH1 0x1 PUSH1 0x40 SHL SUB DUP3 GT SWAP1 DUP3 LT OR PUSH2 0x83E JUMPI PUSH1 0x40 MSTORE JUMP JUMPDEST SWAP1 DUP2 PUSH1 0x20 SWAP2 SUB SLT PUSH2 0x15F JUMPI MLOAD DUP1 ISZERO ISZERO DUP2 SUB PUSH2 0x15F JUMPI SWAP1 JUMP JUMPDEST DUP1 SLOAD DUP3 LT ISZERO PUSH2 0xAB0 JUMPI PUSH1 0x0 MSTORE PUSH1 0x20 PUSH1 0x0 KECCAK256 ADD SWAP1 PUSH1 0x0 SWAP1 JUMP JUMPDEST PUSH4 0x4E487B71 PUSH1 0xE0 SHL PUSH1 0x0 MSTORE PUSH1 0x32 PUSH1 0x4 MSTORE PUSH1 0x24 PUSH1 0x0 REVERT JUMPDEST PUSH1 0x0 NOT DUP2 EQ PUSH2 0x88B JUMPI PUSH1 0x1 ADD SWAP1 JUMP JUMPDEST SWAP1 PUSH1 0x8 SLOAD DUP1 DUP1 SWAP2 JUMPDEST PUSH2 0xC98 JUMPI POP PUSH2 0xAEB SWAP1 PUSH2 0xAC6 JUMP JUMPDEST PUSH1 0x8 DUP2 SWAP1 SSTORE PUSH1 0x40 DUP1 MLOAD SWAP1 SWAP2 PUSH1 0x20 SWAP2 PUSH1 0x1 PUSH1 0x1 PUSH1 0x40 SHL SUB SWAP1 DUP4 DUP2 ADD DUP3 DUP2 GT DUP3 DUP3 LT OR PUSH2 0x83E JUMPI DUP6 MSTORE PUSH1 0x0 DUP1 DUP3 MSTORE DUP6 MLOAD PUSH1 0x80 DUP2 ADD DUP2 DUP2 LT DUP6 DUP3 GT OR PUSH2 0xC84 JUMPI DUP8 MSTORE PUSH1 0x4 SWAP1 DUP2 DUP11 LT ISZERO PUSH2 0xC71 JUMPI DUP10 DUP2 MSTORE DUP7 DUP2 ADD DUP4 DUP2 MSTORE DUP9 DUP3 ADD SWAP1 PUSH1 0x1 SWAP8 DUP9 DUP4 MSTORE PUSH1 0x60 DUP5 ADD SWAP7 DUP8 MSTORE DUP6 MSTORE PUSH1 0x6 DUP10 MSTORE DUP10 DUP6 KECCAK256 SWAP3 MLOAD SWAP1 DUP5 DUP3 LT ISZERO PUSH2 0xC5E JUMPI SWAP1 PUSH1 0x3 SWAP4 SWAP3 SWAP2 PUSH1 0xFF NOT SWAP2 PUSH1 0xFF DUP4 DUP7 SLOAD AND SWAP2 AND OR DUP5 SSTORE MLOAD DUP10 DUP5 ADD SSTORE PUSH1 0xFF PUSH1 0x2 DUP5 ADD SWAP3 MLOAD ISZERO ISZERO SWAP2 DUP4 SLOAD AND SWAP2 AND OR SWAP1 SSTORE ADD SWAP3 MLOAD SWAP1 DUP2 MLOAD SWAP5 DUP6 GT PUSH2 0xC4B JUMPI PUSH1 0x1 PUSH1 0x40 SHL DUP6 GT PUSH2 0xC4B JUMPI POP DUP6 SWAP1 DUP4 SLOAD DUP6 DUP6 SSTORE DUP1 DUP7 LT PUSH2 0xC21 JUMPI JUMPDEST POP ADD SWAP2 DUP2 MSTORE DUP5 DUP2 KECCAK256 SWAP1 JUMPDEST DUP4 DUP2 LT PUSH2 0xC07 JUMPI POP POP POP POP POP PUSH32 0x33FBD5015D61FE861A1A149E88720CC4EE49722A3C3DD94D6947600A9DE19938 SWAP1 PUSH2 0xC03 SWAP4 SWAP5 PUSH1 0x8 SLOAD SWAP5 DUP6 SWAP5 MLOAD DUP1 SWAP3 PUSH2 0x9B0 JUMP JUMPDEST LOG2 SWAP1 JUMP JUMPDEST DUP3 MLOAD PUSH1 0x1 PUSH1 0x1 PUSH1 0xA0 SHL SUB AND DUP3 DUP3 ADD SSTORE SWAP2 DUP6 ADD SWAP2 DUP5 ADD PUSH2 0xBC2 JUMP JUMPDEST DUP5 DUP5 MSTORE DUP7 DUP7 DUP5 DUP7 KECCAK256 SWAP3 DUP4 ADD SWAP3 ADD JUMPDEST DUP3 DUP2 LT PUSH2 0xC3D JUMPI POP POP PUSH2 0xBB8 JUMP JUMPDEST DUP6 DUP2 SSTORE DUP10 SWAP5 POP DUP9 SWAP2 ADD PUSH2 0xC2F JUMP JUMPDEST PUSH4 0x4E487B71 PUSH1 0xE0 SHL DUP4 MSTORE PUSH1 0x41 SWAP1 MSTORE PUSH1 0x24 DUP3 REVERT JUMPDEST PUSH4 0x4E487B71 PUSH1 0xE0 SHL DUP7 MSTORE PUSH1 0x21 DUP6 MSTORE PUSH1 0x24 DUP7 REVERT JUMPDEST PUSH4 0x4E487B71 PUSH1 0xE0 SHL DUP4 MSTORE PUSH1 0x21 DUP3 MSTORE PUSH1 0x24 DUP4 REVERT JUMPDEST PUSH4 0x4E487B71 PUSH1 0xE0 SHL DUP4 MSTORE PUSH1 0x41 PUSH1 0x4 MSTORE PUSH1 0x24 DUP4 REVERT JUMPDEST PUSH1 0x0 DUP2 DUP2 MSTORE PUSH1 0x6 PUSH1 0x20 MSTORE PUSH1 0x40 DUP2 KECCAK256 PUSH1 0xFF SWAP2 DUP3 PUSH1 0x2 DUP4 ADD SLOAD AND SWAP3 DUP4 PUSH2 0xD05 JUMPI JUMPDEST POP POP DUP2 PUSH2 0xCEE JUMPI JUMPDEST POP PUSH2 0xCE9 JUMPI DUP1 ISZERO PUSH2 0xCD4 JUMPI PUSH1 0x0 NOT ADD DUP1 PUSH2 0xADD JUMP JUMPDEST PUSH1 0x24 PUSH1 0x0 PUSH4 0x4E487B71 PUSH1 0xE0 SHL DUP2 MSTORE PUSH1 0x11 PUSH1 0x4 MSTORE REVERT JUMPDEST SWAP3 POP POP JUMP JUMPDEST PUSH1 0x3 SWAP2 POP ADD SLOAD PUSH2 0xCFD DUP6 PUSH2 0x9EC JUMP JUMPDEST SLOAD GT CODESIZE PUSH2 0xCBF JUMP JUMPDEST SWAP1 SWAP2 DUP1 SWAP4 POP SLOAD AND SWAP1 PUSH1 0x4 DUP1 DUP9 LT ISZERO PUSH2 0xD2B JUMPI DUP1 DUP4 LT ISZERO PUSH2 0xD2B JUMPI POP POP DUP6 EQ SWAP1 CODESIZE DUP1 PUSH2 0xCB7 JUMP JUMPDEST PUSH4 0x4E487B71 PUSH1 0xE0 SHL DUP3 MSTORE PUSH1 0x21 SWAP1 MSTORE PUSH1 0x24 SWAP1 REVERT INVALID DUP12 0xE0 SMOD SWAP13 MSTORE8 AND MSIZE EQ SGT PREVRANDAO 0xCD 0x1F 0xD0 LOG4 CALLCODE DUP5 NOT 0x49 PUSH32 0x9722A3DAAFE3B4186F6B6457E0A26469706673582212201B7254AF5AAF834011 0x25 0x2B 0xBA 0xDB 0xEB SWAP9 CALLDATALOAD SWAP15 DUP15 0xCA 0xA7 MUL SWAP14 0xC9 0x5D 0xD5 0xB8 JUMP BYTE SMOD SUB SIGNEXTEND 0xBC PUSH5 0x736F6C6343 STOP ADDMOD SGT STOP CALLER "},"methodIdentifiers":{"buyTicket(uint8)":"023697f0","currentGameId()":"536a3ddc","games(uint256)":"117a5b90","getGameInfo(uint256)":"47e1d550","getGamePlayers(uint256)":"15a40f49","owner()":"8da5cb5b","playerGames(address)":"40056505","playerLimits(uint8)":"86b7a177","renounceOwnership()":"715018a6","stakingContract()":"ee99205c","ticketPrices(uint8)":"6e410796","transferOwnership(address)":"f2fde38b","usdt()":"2f48ab7d"}}}}}