{"contracts/PacaBingo.sol":{"PacaBingo":{"abi":[{"inputs":[{"internalType":"address","name":"_usdtAddress","type":"address"},{"internalType":"address","name":"_stakingAddress","type":"address"}],"stateMutability":"nonpayable","type":"constructor"},{"anonymous":false,"inputs":[{"indexed":false,"internalType":"enum PacaBingo.GameMode","name":"mode","type":"uint8"},{"indexed":false,"internalType":"uint256","name":"minPlayers","type":"uint256"},{"indexed":false,"internalType":"uint256","name":"maxPlayers","type":"uint256"},{"indexed":false,"internalType":"uint256","name":"ticketPrice","type":"uint256"}],"name":"GameModeConfigUpdated","type":"event"},{"anonymous":false,"inputs":[{"indexed":true,"internalType":"uint256","name":"gameId","type":"uint256"},{"indexed":false,"internalType":"uint256","name":"startTime","type":"uint256"},{"indexed":false,"internalType":"enum PacaBingo.GameMode","name":"mode","type":"uint8"}],"name":"GameStarted","type":"event"},{"anonymous":false,"inputs":[{"indexed":true,"internalType":"uint256","name":"gameId","type":"uint256"},{"indexed":false,"internalType":"uint256","name":"number","type":"uint256"}],"name":"NumberCalled","type":"event"},{"anonymous":false,"inputs":[{"indexed":true,"internalType":"address","name":"previousOwner","type":"address"},{"indexed":true,"internalType":"address","name":"newOwner","type":"address"}],"name":"OwnershipTransferred","type":"event"},{"anonymous":false,"inputs":[{"indexed":false,"internalType":"uint256","name":"oneLinePercent","type":"uint256"},{"indexed":false,"internalType":"uint256","name":"fullHousePercent","type":"uint256"}],"name":"PrizePoolPercentagesUpdated","type":"event"},{"anonymous":false,"inputs":[{"indexed":false,"internalType":"enum PacaBingo.GameMode","name":"mode","type":"uint8"},{"indexed":false,"internalType":"uint256","name":"newPrice","type":"uint256"}],"name":"TicketPriceUpdated","type":"event"},{"anonymous":false,"inputs":[{"indexed":true,"internalType":"uint256","name":"gameId","type":"uint256"},{"indexed":true,"internalType":"address","name":"player","type":"address"},{"indexed":false,"internalType":"enum PacaBingo.GameMode","name":"mode","type":"uint8"}],"name":"TicketPurchased","type":"event"},{"anonymous":false,"inputs":[{"indexed":true,"internalType":"uint256","name":"gameId","type":"uint256"},{"indexed":true,"internalType":"address","name":"winner","type":"address"},{"indexed":false,"internalType":"uint256","name":"prize","type":"uint256"},{"indexed":false,"internalType":"enum PacaBingo.WinType","name":"winType","type":"uint8"}],"name":"Winner","type":"event"},{"anonymous":false,"inputs":[{"indexed":true,"internalType":"uint256","name":"gameId","type":"uint256"},{"indexed":true,"internalType":"address","name":"winner","type":"address"},{"indexed":false,"internalType":"uint256","name":"amount","type":"uint256"}],"name":"WinningsStaked","type":"event"},{"inputs":[],"name":"GAME_DURATION","outputs":[{"internalType":"uint256","name":"","type":"uint256"}],"stateMutability":"view","type":"function"},{"inputs":[],"name":"admin","outputs":[{"internalType":"address","name":"","type":"address"}],"stateMutability":"view","type":"function"},{"inputs":[{"internalType":"uint256[][5]","name":"numbers","type":"uint256[][5]"},{"internalType":"enum PacaBingo.GameMode","name":"mode","type":"uint8"}],"name":"buyTicket","outputs":[],"stateMutability":"nonpayable","type":"function"},{"inputs":[{"internalType":"uint256","name":"number","type":"uint256"},{"internalType":"uint256","name":"gameId","type":"uint256"}],"name":"callNumber","outputs":[],"stateMutability":"nonpayable","type":"function"},{"inputs":[{"internalType":"uint256","name":"gameId","type":"uint256"}],"name":"claimPrize","outputs":[],"stateMutability":"nonpayable","type":"function"},{"inputs":[],"name":"currentGameId","outputs":[{"internalType":"uint256","name":"","type":"uint256"}],"stateMutability":"view","type":"function"},{"inputs":[],"name":"fullHousePercentage","outputs":[{"internalType":"uint256","name":"","type":"uint256"}],"stateMutability":"view","type":"function"},{"inputs":[{"internalType":"enum PacaBingo.GameMode","name":"","type":"uint8"}],"name":"gameModeConfigs","outputs":[{"internalType":"uint256","name":"minPlayers","type":"uint256"},{"internalType":"uint256","name":"maxPlayers","type":"uint256"},{"internalType":"uint256","name":"ticketPrice","type":"uint256"},{"internalType":"bool","name":"active","type":"bool"}],"stateMutability":"view","type":"function"},{"inputs":[{"internalType":"uint256","name":"","type":"uint256"}],"name":"games","outputs":[{"internalType":"uint256","name":"startTime","type":"uint256"},{"internalType":"bool","name":"hasOneLineWinner","type":"bool"},{"internalType":"bool","name":"hasFullHouseWinner","type":"bool"},{"internalType":"bool","name":"isActive","type":"bool"},{"internalType":"uint256","name":"prizePool","type":"uint256"},{"internalType":"enum PacaBingo.GameMode","name":"mode","type":"uint8"},{"internalType":"uint256","name":"minPlayers","type":"uint256"},{"internalType":"uint256","name":"maxPlayers","type":"uint256"}],"stateMutability":"view","type":"function"},{"inputs":[{"internalType":"uint256","name":"gameId","type":"uint256"}],"name":"getCalledNumbers","outputs":[{"internalType":"uint256[]","name":"","type":"uint256[]"}],"stateMutability":"view","type":"function"},{"inputs":[{"internalType":"uint256","name":"gameId","type":"uint256"}],"name":"getGameInfo","outputs":[{"internalType":"bool","name":"isActive","type":"bool"},{"internalType":"uint256","name":"startTime","type":"uint256"},{"internalType":"uint256","name":"prizePool","type":"uint256"},{"internalType":"uint256[]","name":"calledNumbers","type":"uint256[]"},{"internalType":"bool","name":"hasOneLineWinner","type":"bool"},{"internalType":"bool","name":"hasFullHouseWinner","type":"bool"}],"stateMutability":"view","type":"function"},{"inputs":[],"name":"oneLinePercentage","outputs":[{"internalType":"uint256","name":"","type":"uint256"}],"stateMutability":"view","type":"function"},{"inputs":[],"name":"owner","outputs":[{"internalType":"address","name":"","type":"address"}],"stateMutability":"view","type":"function"},{"inputs":[{"internalType":"address","name":"","type":"address"}],"name":"playerCurrentGame","outputs":[{"internalType":"uint256","name":"","type":"uint256"}],"stateMutability":"view","type":"function"},{"inputs":[],"name":"renounceOwnership","outputs":[],"stateMutability":"nonpayable","type":"function"},{"inputs":[],"name":"stakingContract","outputs":[{"internalType":"contract IStaking","name":"","type":"address"}],"stateMutability":"view","type":"function"},{"inputs":[{"internalType":"enum PacaBingo.GameMode","name":"mode","type":"uint8"}],"name":"startNewGame","outputs":[],"stateMutability":"nonpayable","type":"function"},{"inputs":[],"name":"ticketPrice","outputs":[{"internalType":"uint256","name":"","type":"uint256"}],"stateMutability":"view","type":"function"},{"inputs":[{"internalType":"address","name":"newOwner","type":"address"}],"name":"transferOwnership","outputs":[],"stateMutability":"nonpayable","type":"function"},{"inputs":[{"internalType":"enum PacaBingo.GameMode","name":"mode","type":"uint8"},{"internalType":"uint256","name":"minPlayers","type":"uint256"},{"internalType":"uint256","name":"maxPlayers","type":"uint256"},{"internalType":"uint256","name":"_ticketPrice","type":"uint256"},{"internalType":"bool","name":"active","type":"bool"}],"name":"updateGameModeConfig","outputs":[],"stateMutability":"nonpayable","type":"function"},{"inputs":[],"name":"usdt","outputs":[{"internalType":"contract IERC20","name":"","type":"address"}],"stateMutability":"view","type":"function"}],"evm":{"bytecode":{"linkReferences":{},"object":"6080346200023d5762001d5a90601f38839003908101601f19168201906001600160401b038211838310176200024257808391604095869485528339810103126200023d576200004f8162000278565b60ff62000060602080940162000278565b600080546001600160a01b03198082163390811784556001600160a01b03969193919287167f8be0079c531659141344cd1fd0a4f28419497f9722a3daafe3b4186f6b6457e08380a3600192838055670de0b6b3a76400009687600455601e600555604660065533826007541617600755806002941682855416178455600395169085541617845583620000f362000258565b848152888101978589528a82019081526060820198868a5284805260088b528b85209251835551868301555184820155019551151595851996868883541691161790556200014062000258565b600581528488820191600583528a8101671bc16d674ec800008152606082019387855287865260088c528c862092518355518783015551858201550190511515868883541691161790556200019462000258565b600a81528488820191600a83528a8101674563918244f400008152606082019387855286865260088c528c86209251835551878301555185820155019051151586888354169116179055620001e862000258565b9260148452878401601481528980860193678ac7230489e8000085526008606088019b858d5289835252209451855551908401555190820155019251151591835416911617905551611acc90816200028e8239f35b600080fd5b634e487b7160e01b600052604160045260246000fd5b60405190608082016001600160401b038111838210176200024257604052565b51906001600160a01b03821682036200023d5756fe608080604052600436101561001357600080fd5b60003560e01c908163117a5b901461120a575080631209b1f6146111ec578063234f54d6146111945780632f48ab7d1461116b5780633a5ff2001461112d57806347e1d550146110a9578063536a3ddc1461108b5780636ed296e414611063578063715018a61461101c5780638da5cb5b14610ff35780639f6b188b14610fd5578063c31b29ce14610fb8578063c468c126146109fd578063d70981541461056c578063db28865c1461054e578063edb75c2a146103e7578063ee99205c146103be578063f030a1eb1461022c578063f2fde38b1461017b578063f3d6226d146101345763f851a4401461010657600080fd5b3461012f57600036600319011261012f576007546040516001600160a01b039091168152602090f35b600080fd5b3461012f57602036600319011261012f57600435600052600a60205261017761016360016040600020016116e5565b6040519182916020835260208301906112b9565b0390f35b3461012f57602036600319011261012f576004356001600160a01b038181169182900361012f576101aa61132b565b81156101d8576000548260018060a01b031982161760005516600080516020611a77833981519152600080a3005b60405162461bcd60e51b815260206004820152602660248201527f4f776e61626c653a206e6577206f776e657220697320746865207a65726f206160448201526564647265737360d01b6064820152608490fd5b3461012f5760a036600319011261012f57600435600481101561012f5760243590604435906064356084359283151580940361012f5760075461028490336001600160a01b03918216149081156103b0575b50611383565b841515806103a6575b1561036957811561032d577f57c3e38d13a12a101b7937aaa9236f351667fce4c827c1f26dcf828f3627767c9460809460036040516102cb816112ed565b838152602081018581526040820190878252606083019485526102ed896112a0565b92518355516001830155516002820155019051151560ff8019835416911617905561031b6040518095611293565b602084015260408301526060820152a1005b60405162461bcd60e51b8152602060048201526014602482015273496e76616c6964207469636b657420707269636560601b6044820152606490fd5b60405162461bcd60e51b8152602060048201526015602482015274496e76616c696420706c6179657220636f756e747360581b6044820152606490fd5b508481101561028d565b90506000541633148761027e565b3461012f57600036600319011261012f576003546040516001600160a01b039091168152602090f35b3461012f57604036600319011261012f57600754602435906004359061042190336001600160a01b03918216149081156105405750611383565b81600052600a602052604060002060ff600482015460101c161561050a576001821015806104ff575b156104c95760010180549091600160401b8210156104b357610495827f1754f3d9eef4b548e8798e66a0205867a07fc802e7d501a6a1f9aafa63df980194600160209501815561153a565b81549060031b9083821b91600019901b1916179055604051908152a2005b634e487b7160e01b600052604160045260246000fd5b60405162461bcd60e51b815260206004820152600e60248201526d24b73b30b634b210373ab6b132b960911b6044820152606490fd5b50604b82111561044a565b60405162461bcd60e51b815260206004820152600e60248201526d4e6f206163746976652067616d6560901b6044820152606490fd5b90506000541633148461027e565b3461012f57600036600319011261012f576020600654604051908152f35b3461012f5760208060031936011261012f576004359061058a611552565b81600052600a81526040600020600481019283549260ff93848160101c16156109c657835461025881018091116109b0574210610972576105cb8333611736565b90600382101561085157811561094457600385019433600052858452866040600020541660038110156108515761090d576000916001841480610903575b1561086757506106226005606492015460055490611527565b885460ff1916600117895504945b3360005283526040600020906108515760ff1981541686831617905560018060a01b03610680838683600254168460035416600060405180968195829463095ea7b360e01b8452600484016116ca565b03925af19081156107d857600091610834575b50156107e457600354168260405180926305dc812160e31b8252816000816106bf8b33600484016116ca565b03925af19081156107d8576000916107ab575b501561076b57907fcb9591d31874681c3f148e4a633681dd8145e4a26143635c9e89c14170bf7877916040519085825282820152837fee4bb642cb27260852b8eb6d8de870bd4dcb15172193c279c0bc07dafdafa4ca60403393a36040519384523393a3815490808216908161075e575b5061074f575b60018055005b62ff0000191690558080610749565b90508160081c1683610743565b60405162461bcd60e51b81526004810183905260186024820152774661696c656420746f207374616b652077696e6e696e677360401b6044820152606490fd5b6107cb9150833d85116107d1575b6107c38183611308565b81019061150f565b876106d2565b503d6107b9565b6040513d6000823e3d90fd5b60405162461bcd60e51b815260048101849052602260248201527f4661696c656420746f20617070726f7665207374616b696e6720636f6e74726160448201526118dd60f21b6064820152608490fd5b61084b9150843d86116107d1576107c38183611308565b88610693565b634e487b7160e01b600052602160045260246000fd5b95600092509060028414806108f6575b156108a1576064610892600561010093015460065490611527565b049661ff001916178855610630565b60405162461bcd60e51b815260048101869052602760248201527f5072697a6520616c726561647920636c61696d656420666f7220746869732077604482015266696e207479706560c81b6064820152608490fd5b50878760081c1615610877565b5087811615610609565b60405162461bcd60e51b815260048101859052600f60248201526e105b1c9958591e4818db185a5b5959608a1b6044820152606490fd5b60405162461bcd60e51b81526004810184905260066024820152652737903bb4b760d11b6044820152606490fd5b60405162461bcd60e51b815260048101839052601660248201527547616d65207374696c6c20696e2070726f677265737360501b6044820152606490fd5b634e487b7160e01b600052601160045260246000fd5b60405162461bcd60e51b815260048101839052600f60248201526e47616d65206e6f742061637469766560881b6044820152606490fd5b3461012f57604036600319011261012f576004356001600160401b03811161012f57602336818301121561012f576040519160a083016001600160401b038111848210176104b3576040528260a482019136831161012f5780600401915b838310610f3057856004602435101561012f57610a76611552565b610a816024356112a0565b610abd60ff600360405193610a95856112ed565b80548552600181015460208601526002810154604086015201541615158060608401526113c0565b33600052600b602052604060002054610ef757610adb6024356115a8565b9182600052600a602052604060002092600784015460098501541115610ec357610b04816116b4565b610e835760005b600580821015610c0b5780610b2083866114d4565b515103610bd05760005b818110610b41575050610b3c90611403565b610b0b565b6001610b5782610b5186896114d4565b516114fb565b51101580610bb7575b15610b7357610b6e90611403565b610b2a565b606460405162461bcd60e51b815260206004820152602060248201527f4e756d62657273206d757374206265206265747765656e203120616e642037356044820152fd5b50604b610bc882610b5186896114d4565b511115610b60565b60405162461bcd60e51b8152602060048201526013602482015272125b9d985b1a590818d85c9908199bdc9b585d606a1b6044820152606490fd5b828686866000602060018060a01b03600254166064604086015160405194859384926323b872dd60e01b845233600485015230602485015260448401525af19081156107d857600091610e64575b5015610e285733600052600283016020526040600020906000905b60058210610d9257505050600782015490600160401b8210156104b357610ca98260016040940160078601556007850161153a565b81546001600160a01b0360039290921b91821b19163390911b17905501516005820180549182019182106109b0575533600052600b60205281604060002055604051610cf781602435611293565b827fe889b3dc10d31e126aa93ffc718b91364323274db119c933aa6abd402bfe772360203393a36009600782015491015414610d335760018055005b600052600a60205260406000206007810154600882015411610d585742905580610749565b60405162461bcd60e51b81526020600482015260126024820152714e6f7420656e6f75676820706c617965727360701b6044820152606490fd5b80518051906001600160401b0382116104b357600160401b82116104b3578454828655808310610dfe575b5060200184600052602060002060005b838110610dea575050505060016020819201930191019091610c74565b600190602084519401938184015501610dcd565b856000526020600020908382015b8183018110610e1c575050610dbd565b60008155600101610e0c565b60405162461bcd60e51b81526020600482015260146024820152731554d115081d1c985b9cd9995c8819985a5b195960621b6044820152606490fd5b610e7d915060203d6020116107d1576107c38183611308565b85610c59565b60405162461bcd60e51b815260206004820152601860248201527747616d6520616c726561647920696e2070726f677265737360401b6044820152606490fd5b60405162461bcd60e51b815260206004820152600c60248201526b11d85b59481a5cc8199d5b1b60a21b6044820152606490fd5b60405162461bcd60e51b8152602060048201526011602482015270416c726561647920696e20612067616d6560781b6044820152606490fd5b82356001600160401b03811161012f5782019036868301121561012f576004820135916001600160401b0383116104b3578260051b60405191602094610f7886840185611308565b835284830191602480918301019136831161012f5701915b818310610fa95750505081526020939093019201610a5b565b82358152918501918501610f90565b3461012f57600036600319011261012f5760206040516102588152f35b3461012f57600036600319011261012f576020600554604051908152f35b3461012f57600036600319011261012f576000546040516001600160a01b039091168152602090f35b3461012f57600036600319011261012f5761103561132b565b600080546001600160a01b0319811682556001600160a01b0316600080516020611a778339815191528280a3005b3461012f57602036600319011261012f57600435600481101561012f5761108990611412565b005b3461012f57600036600319011261012f576020600954604051908152f35b3461012f57602036600319011261012f57600435600052600a6020526040600020600481015481549060ff6111136110e86001600587015496016116e5565b604051958695848660101c16151587526020870152604086015260c0606086015260c08501906112b9565b918181161515608085015260081c16151560a08301520390f35b3461012f57602036600319011261012f576004356001600160a01b0381169081900361012f57600052600b6020526020604060002054604051908152f35b3461012f57600036600319011261012f576002546040516001600160a01b039091168152602090f35b3461012f57602036600319011261012f57600435600481101561012f576111bc6080916112a0565b80549060018101549060ff6003600283015492015416916040519384526020840152604083015215156060820152f35b3461012f57600036600319011261012f576020600454604051908152f35b3461012f57602036600319011261012f5761010090600435600052600a60205260406000208054906112876004820154600583015460ff80600686015416926009600887015496015496885281811615156020890152818160081c161515604089015260101c1615156060870152608086015260a0850190611293565b60c083015260e0820152f35b9060048210156108515752565b6004811015610851576000526008602052604060002090565b90815180825260208080930193019160005b8281106112d9575050505090565b8351855293810193928101926001016112cb565b608081019081106001600160401b038211176104b357604052565b601f909101601f19168101906001600160401b038211908210176104b357604052565b6000546001600160a01b0316330361133f57565b606460405162461bcd60e51b815260206004820152602060248201527f4f776e61626c653a2063616c6c6572206973206e6f7420746865206f776e65726044820152fd5b1561138a57565b60405162461bcd60e51b815260206004820152600e60248201526d139bdd08185d5d1a1bdc9a5e995960921b6044820152606490fd5b156113c757565b60405162461bcd60e51b815260206004820152601460248201527347616d65206d6f6465206e6f742061637469766560601b6044820152606490fd5b60001981146109b05760010190565b61142a60ff6003611422846112a0565b0154166113c0565b611435600954611403565b80600955600052600a6020526040600020428155600481016201000062ff0000198254161790556006810160048310156108515760ff1981541660ff841617905561147f826112a0565b54600882015560096001611492846112a0565b01549101557f5ebe9e4b5ec73754b320dc4b775c3350188dd025d94a21e5dd5a987dba556da26040600954926114d18251914283526020830190611293565ba2565b9060058110156114e55760051b0190565b634e487b7160e01b600052603260045260246000fd5b80518210156114e55760209160051b010190565b9081602091031261012f5751801515810361012f5790565b818102929181159184041417156109b057565b80548210156114e55760005260206000200190600090565b600260015414611563576002600155565b60405162461bcd60e51b815260206004820152601f60248201527f5265656e7472616e637947756172643a207265656e7472616e742063616c6c006044820152606490fd5b90600991825492835b801515806116a0575b1561168f576000818152600a6020918183526040918282209360ff600490808288015460101c169687611655575b50505084611643575b84611629575b5050505061162357801561160e57600019016115b1565b60246000634e487b7160e01b81526011600452fd5b93505050565b8583525220600781015490840154119050388080806115f7565b935061164e856116b4565b15936115f1565b60069192939750015416908089101561167c578082101561167c57508714933880806115e8565b634e487b7160e01b845260219052602483fd5b5091925061169c90611412565b5490565b50600919850185811161160e5781116115ba565b600052600a602052600160406000200154151590565b6001600160a01b039091168152602081019190915260400190565b9060405191828154918282526020928383019160005283600020936000905b82821061171c5750505061171a92500383611308565b565b855484526001958601958895509381019390910190611704565b6000918252600a602090815260408084206001600160a01b03909316845260028301825280842090519160a083016001600160401b03811184821017611a62576040528490835b60058310611a4657505050506001916117978382016116e5565b918385815b61198d575b508061197b575b6119715784845b6118a3575b508493929190835b6117ca575b50505050905090565b60058087101561189d578490865b818110611816575b505080611807575b6117fe576117f7849596611403565b95946117bc565b50505091505090565b5060ff600483015416156117e8565b879392969795919495888086905b611857575b5050156118475761183990611403565b9695919296949390946117d8565b50939250908095945038806117e0565b84518110156118985761186e8c610b5186896114d4565b5161187982876114fb565b511461188e5761188890611403565b81611824565b5090508838611829565b611829565b506117c1565b6005858183101561196a5790875b8181106118e4575b5050806118d5575b6117c1576118cf8591611403565b906117af565b5060ff600484015416156118c1565b8893989691949296888086905b611921575b5050156119135761190690611403565b97929795919390956118b1565b5094509150948538806118b9565b8b84865183101561196357610b5161193992896114d4565b5161194482876114fb565b51146119595761195390611403565b816118f1565b50905088386118f6565b50506118f6565b50506117b4565b5050505050600290565b5060ff600483015460081c16156117a8565b600580821080611a3f575b15611a3957908691885b8181106119bb575b50506119b590611403565b9061179c565b91925090888881815b6119f3575b5050156119e2576119d990611403565b908792916119a2565b50509050846119b5879290386119aa565b8951811015611a3457611a0a84610b51888b6114d4565b51611a15828c6114fb565b5114611a2a57611a2490611403565b816119c4565b50905088386119c9565b6119c9565b506117a1565b5082611998565b6001828192611a54876116e5565b81520194019201919261177d565b634e487b7160e01b86526041600452602486fdfe8be0079c531659141344cd1fd0a4f28419497f9722a3daafe3b4186f6b6457e0a2646970667358221220ed05e25d36eb0d93b8ac41969cc56d6a876fa5947cba8ae45fe19b00e5553a5764736f6c63430008130033","opcodes":"PUSH1 0x80 CALLVALUE PUSH3 0x23D JUMPI PUSH3 0x1D5A SWAP1 PUSH1 0x1F CODESIZE DUP4 SWAP1 SUB SWAP1 DUP2 ADD PUSH1 0x1F NOT AND DUP3 ADD SWAP1 PUSH1 0x1 PUSH1 0x1 PUSH1 0x40 SHL SUB DUP3 GT DUP4 DUP4 LT OR PUSH3 0x242 JUMPI DUP1 DUP4 SWAP2 PUSH1 0x40 SWAP6 DUP7 SWAP5 DUP6 MSTORE DUP4 CODECOPY DUP2 ADD SUB SLT PUSH3 0x23D JUMPI PUSH3 0x4F DUP2 PUSH3 0x278 JUMP JUMPDEST PUSH1 0xFF PUSH3 0x60 PUSH1 0x20 DUP1 SWAP5 ADD PUSH3 0x278 JUMP JUMPDEST PUSH1 0x0 DUP1 SLOAD PUSH1 0x1 PUSH1 0x1 PUSH1 0xA0 SHL SUB NOT DUP1 DUP3 AND CALLER SWAP1 DUP2 OR DUP5 SSTORE PUSH1 0x1 PUSH1 0x1 PUSH1 0xA0 SHL SUB SWAP7 SWAP2 SWAP4 SWAP2 SWAP3 DUP8 AND PUSH32 0x8BE0079C531659141344CD1FD0A4F28419497F9722A3DAAFE3B4186F6B6457E0 DUP4 DUP1 LOG3 PUSH1 0x1 SWAP3 DUP4 DUP1 SSTORE PUSH8 0xDE0B6B3A7640000 SWAP7 DUP8 PUSH1 0x4 SSTORE PUSH1 0x1E PUSH1 0x5 SSTORE PUSH1 0x46 PUSH1 0x6 SSTORE CALLER DUP3 PUSH1 0x7 SLOAD AND OR PUSH1 0x7 SSTORE DUP1 PUSH1 0x2 SWAP5 AND DUP3 DUP6 SLOAD AND OR DUP5 SSTORE PUSH1 0x3 SWAP6 AND SWAP1 DUP6 SLOAD AND OR DUP5 SSTORE DUP4 PUSH3 0xF3 PUSH3 0x258 JUMP JUMPDEST DUP5 DUP2 MSTORE DUP9 DUP2 ADD SWAP8 DUP6 DUP10 MSTORE DUP11 DUP3 ADD SWAP1 DUP2 MSTORE PUSH1 0x60 DUP3 ADD SWAP9 DUP7 DUP11 MSTORE DUP5 DUP1 MSTORE PUSH1 0x8 DUP12 MSTORE DUP12 DUP6 KECCAK256 SWAP3 MLOAD DUP4 SSTORE MLOAD DUP7 DUP4 ADD SSTORE MLOAD DUP5 DUP3 ADD SSTORE ADD SWAP6 MLOAD ISZERO ISZERO SWAP6 DUP6 NOT SWAP7 DUP7 DUP9 DUP4 SLOAD AND SWAP2 AND OR SWAP1 SSTORE PUSH3 0x140 PUSH3 0x258 JUMP JUMPDEST PUSH1 0x5 DUP2 MSTORE DUP5 DUP9 DUP3 ADD SWAP2 PUSH1 0x5 DUP4 MSTORE DUP11 DUP2 ADD PUSH8 0x1BC16D674EC80000 DUP2 MSTORE PUSH1 0x60 DUP3 ADD SWAP4 DUP8 DUP6 MSTORE DUP8 DUP7 MSTORE PUSH1 0x8 DUP13 MSTORE DUP13 DUP7 KECCAK256 SWAP3 MLOAD DUP4 SSTORE MLOAD DUP8 DUP4 ADD SSTORE MLOAD DUP6 DUP3 ADD SSTORE ADD SWAP1 MLOAD ISZERO ISZERO DUP7 DUP9 DUP4 SLOAD AND SWAP2 AND OR SWAP1 SSTORE PUSH3 0x194 PUSH3 0x258 JUMP JUMPDEST PUSH1 0xA DUP2 MSTORE DUP5 DUP9 DUP3 ADD SWAP2 PUSH1 0xA DUP4 MSTORE DUP11 DUP2 ADD PUSH8 0x4563918244F40000 DUP2 MSTORE PUSH1 0x60 DUP3 ADD SWAP4 DUP8 DUP6 MSTORE DUP7 DUP7 MSTORE PUSH1 0x8 DUP13 MSTORE DUP13 DUP7 KECCAK256 SWAP3 MLOAD DUP4 SSTORE MLOAD DUP8 DUP4 ADD SSTORE MLOAD DUP6 DUP3 ADD SSTORE ADD SWAP1 MLOAD ISZERO ISZERO DUP7 DUP9 DUP4 SLOAD AND SWAP2 AND OR SWAP1 SSTORE PUSH3 0x1E8 PUSH3 0x258 JUMP JUMPDEST SWAP3 PUSH1 0x14 DUP5 MSTORE DUP8 DUP5 ADD PUSH1 0x14 DUP2 MSTORE DUP10 DUP1 DUP7 ADD SWAP4 PUSH8 0x8AC7230489E80000 DUP6 MSTORE PUSH1 0x8 PUSH1 0x60 DUP9 ADD SWAP12 DUP6 DUP14 MSTORE DUP10 DUP4 MSTORE MSTORE KECCAK256 SWAP5 MLOAD DUP6 SSTORE MLOAD SWAP1 DUP5 ADD SSTORE MLOAD SWAP1 DUP3 ADD SSTORE ADD SWAP3 MLOAD ISZERO ISZERO SWAP2 DUP4 SLOAD AND SWAP2 AND OR SWAP1 SSTORE MLOAD PUSH2 0x1ACC SWAP1 DUP2 PUSH3 0x28E DUP3 CODECOPY RETURN JUMPDEST PUSH1 0x0 DUP1 REVERT JUMPDEST PUSH4 0x4E487B71 PUSH1 0xE0 SHL PUSH1 0x0 MSTORE PUSH1 0x41 PUSH1 0x4 MSTORE PUSH1 0x24 PUSH1 0x0 REVERT JUMPDEST PUSH1 0x40 MLOAD SWAP1 PUSH1 0x80 DUP3 ADD PUSH1 0x1 PUSH1 0x1 PUSH1 0x40 SHL SUB DUP2 GT DUP4 DUP3 LT OR PUSH3 0x242 JUMPI PUSH1 0x40 MSTORE JUMP JUMPDEST MLOAD SWAP1 PUSH1 0x1 PUSH1 0x1 PUSH1 0xA0 SHL SUB DUP3 AND DUP3 SUB PUSH3 0x23D JUMPI JUMP INVALID PUSH1 0x80 DUP1 PUSH1 0x40 MSTORE PUSH1 0x4 CALLDATASIZE LT ISZERO PUSH2 0x13 JUMPI PUSH1 0x0 DUP1 REVERT JUMPDEST PUSH1 0x0 CALLDATALOAD PUSH1 0xE0 SHR SWAP1 DUP2 PUSH4 0x117A5B90 EQ PUSH2 0x120A JUMPI POP DUP1 PUSH4 0x1209B1F6 EQ PUSH2 0x11EC JUMPI DUP1 PUSH4 0x234F54D6 EQ PUSH2 0x1194 JUMPI DUP1 PUSH4 0x2F48AB7D EQ PUSH2 0x116B JUMPI DUP1 PUSH4 0x3A5FF200 EQ PUSH2 0x112D JUMPI DUP1 PUSH4 0x47E1D550 EQ PUSH2 0x10A9 JUMPI DUP1 PUSH4 0x536A3DDC EQ PUSH2 0x108B JUMPI DUP1 PUSH4 0x6ED296E4 EQ PUSH2 0x1063 JUMPI DUP1 PUSH4 0x715018A6 EQ PUSH2 0x101C JUMPI DUP1 PUSH4 0x8DA5CB5B EQ PUSH2 0xFF3 JUMPI DUP1 PUSH4 0x9F6B188B EQ PUSH2 0xFD5 JUMPI DUP1 PUSH4 0xC31B29CE EQ PUSH2 0xFB8 JUMPI DUP1 PUSH4 0xC468C126 EQ PUSH2 0x9FD JUMPI DUP1 PUSH4 0xD7098154 EQ PUSH2 0x56C JUMPI DUP1 PUSH4 0xDB28865C EQ PUSH2 0x54E JUMPI DUP1 PUSH4 0xEDB75C2A EQ PUSH2 0x3E7 JUMPI DUP1 PUSH4 0xEE99205C EQ PUSH2 0x3BE JUMPI DUP1 PUSH4 0xF030A1EB EQ PUSH2 0x22C JUMPI DUP1 PUSH4 0xF2FDE38B EQ PUSH2 0x17B JUMPI DUP1 PUSH4 0xF3D6226D EQ PUSH2 0x134 JUMPI PUSH4 0xF851A440 EQ PUSH2 0x106 JUMPI PUSH1 0x0 DUP1 REVERT JUMPDEST CALLVALUE PUSH2 0x12F JUMPI PUSH1 0x0 CALLDATASIZE PUSH1 0x3 NOT ADD SLT PUSH2 0x12F JUMPI PUSH1 0x7 SLOAD PUSH1 0x40 MLOAD PUSH1 0x1 PUSH1 0x1 PUSH1 0xA0 SHL SUB SWAP1 SWAP2 AND DUP2 MSTORE PUSH1 0x20 SWAP1 RETURN JUMPDEST PUSH1 0x0 DUP1 REVERT JUMPDEST CALLVALUE PUSH2 0x12F JUMPI PUSH1 0x20 CALLDATASIZE PUSH1 0x3 NOT ADD SLT PUSH2 0x12F JUMPI PUSH1 0x4 CALLDATALOAD PUSH1 0x0 MSTORE PUSH1 0xA PUSH1 0x20 MSTORE PUSH2 0x177 PUSH2 0x163 PUSH1 0x1 PUSH1 0x40 PUSH1 0x0 KECCAK256 ADD PUSH2 0x16E5 JUMP JUMPDEST PUSH1 0x40 MLOAD SWAP2 DUP3 SWAP2 PUSH1 0x20 DUP4 MSTORE PUSH1 0x20 DUP4 ADD SWAP1 PUSH2 0x12B9 JUMP JUMPDEST SUB SWAP1 RETURN JUMPDEST CALLVALUE PUSH2 0x12F JUMPI PUSH1 0x20 CALLDATASIZE PUSH1 0x3 NOT ADD SLT PUSH2 0x12F JUMPI PUSH1 0x4 CALLDATALOAD PUSH1 0x1 PUSH1 0x1 PUSH1 0xA0 SHL SUB DUP2 DUP2 AND SWAP2 DUP3 SWAP1 SUB PUSH2 0x12F JUMPI PUSH2 0x1AA PUSH2 0x132B JUMP JUMPDEST DUP2 ISZERO PUSH2 0x1D8 JUMPI PUSH1 0x0 SLOAD DUP3 PUSH1 0x1 DUP1 PUSH1 0xA0 SHL SUB NOT DUP3 AND OR PUSH1 0x0 SSTORE AND PUSH1 0x0 DUP1 MLOAD PUSH1 0x20 PUSH2 0x1A77 DUP4 CODECOPY DUP2 MLOAD SWAP2 MSTORE PUSH1 0x0 DUP1 LOG3 STOP JUMPDEST PUSH1 0x40 MLOAD PUSH3 0x461BCD PUSH1 0xE5 SHL DUP2 MSTORE PUSH1 0x20 PUSH1 0x4 DUP3 ADD MSTORE PUSH1 0x26 PUSH1 0x24 DUP3 ADD MSTORE PUSH32 0x4F776E61626C653A206E6577206F776E657220697320746865207A65726F2061 PUSH1 0x44 DUP3 ADD MSTORE PUSH6 0x646472657373 PUSH1 0xD0 SHL PUSH1 0x64 DUP3 ADD MSTORE PUSH1 0x84 SWAP1 REVERT JUMPDEST CALLVALUE PUSH2 0x12F JUMPI PUSH1 0xA0 CALLDATASIZE PUSH1 0x3 NOT ADD SLT PUSH2 0x12F JUMPI PUSH1 0x4 CALLDATALOAD PUSH1 0x4 DUP2 LT ISZERO PUSH2 0x12F JUMPI PUSH1 0x24 CALLDATALOAD SWAP1 PUSH1 0x44 CALLDATALOAD SWAP1 PUSH1 0x64 CALLDATALOAD PUSH1 0x84 CALLDATALOAD SWAP3 DUP4 ISZERO ISZERO DUP1 SWAP5 SUB PUSH2 0x12F JUMPI PUSH1 0x7 SLOAD PUSH2 0x284 SWAP1 CALLER PUSH1 0x1 PUSH1 0x1 PUSH1 0xA0 SHL SUB SWAP2 DUP3 AND EQ SWAP1 DUP2 ISZERO PUSH2 0x3B0 JUMPI JUMPDEST POP PUSH2 0x1383 JUMP JUMPDEST DUP5 ISZERO ISZERO DUP1 PUSH2 0x3A6 JUMPI JUMPDEST ISZERO PUSH2 0x369 JUMPI DUP2 ISZERO PUSH2 0x32D JUMPI PUSH32 0x57C3E38D13A12A101B7937AAA9236F351667FCE4C827C1F26DCF828F3627767C SWAP5 PUSH1 0x80 SWAP5 PUSH1 0x3 PUSH1 0x40 MLOAD PUSH2 0x2CB DUP2 PUSH2 0x12ED JUMP JUMPDEST DUP4 DUP2 MSTORE PUSH1 0x20 DUP2 ADD DUP6 DUP2 MSTORE PUSH1 0x40 DUP3 ADD SWAP1 DUP8 DUP3 MSTORE PUSH1 0x60 DUP4 ADD SWAP5 DUP6 MSTORE PUSH2 0x2ED DUP10 PUSH2 0x12A0 JUMP JUMPDEST SWAP3 MLOAD DUP4 SSTORE MLOAD PUSH1 0x1 DUP4 ADD SSTORE MLOAD PUSH1 0x2 DUP3 ADD SSTORE ADD SWAP1 MLOAD ISZERO ISZERO PUSH1 0xFF DUP1 NOT DUP4 SLOAD AND SWAP2 AND OR SWAP1 SSTORE PUSH2 0x31B PUSH1 0x40 MLOAD DUP1 SWAP6 PUSH2 0x1293 JUMP JUMPDEST PUSH1 0x20 DUP5 ADD MSTORE PUSH1 0x40 DUP4 ADD MSTORE PUSH1 0x60 DUP3 ADD MSTORE LOG1 STOP JUMPDEST PUSH1 0x40 MLOAD PUSH3 0x461BCD PUSH1 0xE5 SHL DUP2 MSTORE PUSH1 0x20 PUSH1 0x4 DUP3 ADD MSTORE PUSH1 0x14 PUSH1 0x24 DUP3 ADD MSTORE PUSH20 0x496E76616C6964207469636B6574207072696365 PUSH1 0x60 SHL PUSH1 0x44 DUP3 ADD MSTORE PUSH1 0x64 SWAP1 REVERT JUMPDEST PUSH1 0x40 MLOAD PUSH3 0x461BCD PUSH1 0xE5 SHL DUP2 MSTORE PUSH1 0x20 PUSH1 0x4 DUP3 ADD MSTORE PUSH1 0x15 PUSH1 0x24 DUP3 ADD MSTORE PUSH21 0x496E76616C696420706C6179657220636F756E7473 PUSH1 0x58 SHL PUSH1 0x44 DUP3 ADD MSTORE PUSH1 0x64 SWAP1 REVERT JUMPDEST POP DUP5 DUP2 LT ISZERO PUSH2 0x28D JUMP JUMPDEST SWAP1 POP PUSH1 0x0 SLOAD AND CALLER EQ DUP8 PUSH2 0x27E JUMP JUMPDEST CALLVALUE PUSH2 0x12F JUMPI PUSH1 0x0 CALLDATASIZE PUSH1 0x3 NOT ADD SLT PUSH2 0x12F JUMPI PUSH1 0x3 SLOAD PUSH1 0x40 MLOAD PUSH1 0x1 PUSH1 0x1 PUSH1 0xA0 SHL SUB SWAP1 SWAP2 AND DUP2 MSTORE PUSH1 0x20 SWAP1 RETURN JUMPDEST CALLVALUE PUSH2 0x12F JUMPI PUSH1 0x40 CALLDATASIZE PUSH1 0x3 NOT ADD SLT PUSH2 0x12F JUMPI PUSH1 0x7 SLOAD PUSH1 0x24 CALLDATALOAD SWAP1 PUSH1 0x4 CALLDATALOAD SWAP1 PUSH2 0x421 SWAP1 CALLER PUSH1 0x1 PUSH1 0x1 PUSH1 0xA0 SHL SUB SWAP2 DUP3 AND EQ SWAP1 DUP2 ISZERO PUSH2 0x540 JUMPI POP PUSH2 0x1383 JUMP JUMPDEST DUP2 PUSH1 0x0 MSTORE PUSH1 0xA PUSH1 0x20 MSTORE PUSH1 0x40 PUSH1 0x0 KECCAK256 PUSH1 0xFF PUSH1 0x4 DUP3 ADD SLOAD PUSH1 0x10 SHR AND ISZERO PUSH2 0x50A JUMPI PUSH1 0x1 DUP3 LT ISZERO DUP1 PUSH2 0x4FF JUMPI JUMPDEST ISZERO PUSH2 0x4C9 JUMPI PUSH1 0x1 ADD DUP1 SLOAD SWAP1 SWAP2 PUSH1 0x1 PUSH1 0x40 SHL DUP3 LT ISZERO PUSH2 0x4B3 JUMPI PUSH2 0x495 DUP3 PUSH32 0x1754F3D9EEF4B548E8798E66A0205867A07FC802E7D501A6A1F9AAFA63DF9801 SWAP5 PUSH1 0x1 PUSH1 0x20 SWAP6 ADD DUP2 SSTORE PUSH2 0x153A JUMP JUMPDEST DUP2 SLOAD SWAP1 PUSH1 0x3 SHL SWAP1 DUP4 DUP3 SHL SWAP2 PUSH1 0x0 NOT SWAP1 SHL NOT AND OR SWAP1 SSTORE PUSH1 0x40 MLOAD SWAP1 DUP2 MSTORE LOG2 STOP JUMPDEST PUSH4 0x4E487B71 PUSH1 0xE0 SHL PUSH1 0x0 MSTORE PUSH1 0x41 PUSH1 0x4 MSTORE PUSH1 0x24 PUSH1 0x0 REVERT JUMPDEST PUSH1 0x40 MLOAD PUSH3 0x461BCD PUSH1 0xE5 SHL DUP2 MSTORE PUSH1 0x20 PUSH1 0x4 DUP3 ADD MSTORE PUSH1 0xE PUSH1 0x24 DUP3 ADD MSTORE PUSH14 0x24B73B30B634B210373AB6B132B9 PUSH1 0x91 SHL PUSH1 0x44 DUP3 ADD MSTORE PUSH1 0x64 SWAP1 REVERT JUMPDEST POP PUSH1 0x4B DUP3 GT ISZERO PUSH2 0x44A JUMP JUMPDEST PUSH1 0x40 MLOAD PUSH3 0x461BCD PUSH1 0xE5 SHL DUP2 MSTORE PUSH1 0x20 PUSH1 0x4 DUP3 ADD MSTORE PUSH1 0xE PUSH1 0x24 DUP3 ADD MSTORE PUSH14 0x4E6F206163746976652067616D65 PUSH1 0x90 SHL PUSH1 0x44 DUP3 ADD MSTORE PUSH1 0x64 SWAP1 REVERT JUMPDEST SWAP1 POP PUSH1 0x0 SLOAD AND CALLER EQ DUP5 PUSH2 0x27E JUMP JUMPDEST CALLVALUE PUSH2 0x12F JUMPI PUSH1 0x0 CALLDATASIZE PUSH1 0x3 NOT ADD SLT PUSH2 0x12F JUMPI PUSH1 0x20 PUSH1 0x6 SLOAD PUSH1 0x40 MLOAD SWAP1 DUP2 MSTORE RETURN JUMPDEST CALLVALUE PUSH2 0x12F JUMPI PUSH1 0x20 DUP1 PUSH1 0x3 NOT CALLDATASIZE ADD SLT PUSH2 0x12F JUMPI PUSH1 0x4 CALLDATALOAD SWAP1 PUSH2 0x58A PUSH2 0x1552 JUMP JUMPDEST DUP2 PUSH1 0x0 MSTORE PUSH1 0xA DUP2 MSTORE PUSH1 0x40 PUSH1 0x0 KECCAK256 PUSH1 0x4 DUP2 ADD SWAP3 DUP4 SLOAD SWAP3 PUSH1 0xFF SWAP4 DUP5 DUP2 PUSH1 0x10 SHR AND ISZERO PUSH2 0x9C6 JUMPI DUP4 SLOAD PUSH2 0x258 DUP2 ADD DUP1 SWAP2 GT PUSH2 0x9B0 JUMPI TIMESTAMP LT PUSH2 0x972 JUMPI PUSH2 0x5CB DUP4 CALLER PUSH2 0x1736 JUMP JUMPDEST SWAP1 PUSH1 0x3 DUP3 LT ISZERO PUSH2 0x851 JUMPI DUP2 ISZERO PUSH2 0x944 JUMPI PUSH1 0x3 DUP6 ADD SWAP5 CALLER PUSH1 0x0 MSTORE DUP6 DUP5 MSTORE DUP7 PUSH1 0x40 PUSH1 0x0 KECCAK256 SLOAD AND PUSH1 0x3 DUP2 LT ISZERO PUSH2 0x851 JUMPI PUSH2 0x90D JUMPI PUSH1 0x0 SWAP2 PUSH1 0x1 DUP5 EQ DUP1 PUSH2 0x903 JUMPI JUMPDEST ISZERO PUSH2 0x867 JUMPI POP PUSH2 0x622 PUSH1 0x5 PUSH1 0x64 SWAP3 ADD SLOAD PUSH1 0x5 SLOAD SWAP1 PUSH2 0x1527 JUMP JUMPDEST DUP9 SLOAD PUSH1 0xFF NOT AND PUSH1 0x1 OR DUP10 SSTORE DIV SWAP5 JUMPDEST CALLER PUSH1 0x0 MSTORE DUP4 MSTORE PUSH1 0x40 PUSH1 0x0 KECCAK256 SWAP1 PUSH2 0x851 JUMPI PUSH1 0xFF NOT DUP2 SLOAD AND DUP7 DUP4 AND OR SWAP1 SSTORE PUSH1 0x1 DUP1 PUSH1 0xA0 SHL SUB PUSH2 0x680 DUP4 DUP7 DUP4 PUSH1 0x2 SLOAD AND DUP5 PUSH1 0x3 SLOAD AND PUSH1 0x0 PUSH1 0x40 MLOAD DUP1 SWAP7 DUP2 SWAP6 DUP3 SWAP5 PUSH4 0x95EA7B3 PUSH1 0xE0 SHL DUP5 MSTORE PUSH1 0x4 DUP5 ADD PUSH2 0x16CA JUMP JUMPDEST SUB SWAP3 GAS CALL SWAP1 DUP2 ISZERO PUSH2 0x7D8 JUMPI PUSH1 0x0 SWAP2 PUSH2 0x834 JUMPI JUMPDEST POP ISZERO PUSH2 0x7E4 JUMPI PUSH1 0x3 SLOAD AND DUP3 PUSH1 0x40 MLOAD DUP1 SWAP3 PUSH4 0x5DC8121 PUSH1 0xE3 SHL DUP3 MSTORE DUP2 PUSH1 0x0 DUP2 PUSH2 0x6BF DUP12 CALLER PUSH1 0x4 DUP5 ADD PUSH2 0x16CA JUMP JUMPDEST SUB SWAP3 GAS CALL SWAP1 DUP2 ISZERO PUSH2 0x7D8 JUMPI PUSH1 0x0 SWAP2 PUSH2 0x7AB JUMPI JUMPDEST POP ISZERO PUSH2 0x76B JUMPI SWAP1 PUSH32 0xCB9591D31874681C3F148E4A633681DD8145E4A26143635C9E89C14170BF7877 SWAP2 PUSH1 0x40 MLOAD SWAP1 DUP6 DUP3 MSTORE DUP3 DUP3 ADD MSTORE DUP4 PUSH32 0xEE4BB642CB27260852B8EB6D8DE870BD4DCB15172193C279C0BC07DAFDAFA4CA PUSH1 0x40 CALLER SWAP4 LOG3 PUSH1 0x40 MLOAD SWAP4 DUP5 MSTORE CALLER SWAP4 LOG3 DUP2 SLOAD SWAP1 DUP1 DUP3 AND SWAP1 DUP2 PUSH2 0x75E JUMPI JUMPDEST POP PUSH2 0x74F JUMPI JUMPDEST PUSH1 0x1 DUP1 SSTORE STOP JUMPDEST PUSH3 0xFF0000 NOT AND SWAP1 SSTORE DUP1 DUP1 PUSH2 0x749 JUMP JUMPDEST SWAP1 POP DUP2 PUSH1 0x8 SHR AND DUP4 PUSH2 0x743 JUMP JUMPDEST PUSH1 0x40 MLOAD PUSH3 0x461BCD PUSH1 0xE5 SHL DUP2 MSTORE PUSH1 0x4 DUP2 ADD DUP4 SWAP1 MSTORE PUSH1 0x18 PUSH1 0x24 DUP3 ADD MSTORE PUSH24 0x4661696C656420746F207374616B652077696E6E696E6773 PUSH1 0x40 SHL PUSH1 0x44 DUP3 ADD MSTORE PUSH1 0x64 SWAP1 REVERT JUMPDEST PUSH2 0x7CB SWAP2 POP DUP4 RETURNDATASIZE DUP6 GT PUSH2 0x7D1 JUMPI JUMPDEST PUSH2 0x7C3 DUP2 DUP4 PUSH2 0x1308 JUMP JUMPDEST DUP2 ADD SWAP1 PUSH2 0x150F JUMP JUMPDEST DUP8 PUSH2 0x6D2 JUMP JUMPDEST POP RETURNDATASIZE PUSH2 0x7B9 JUMP JUMPDEST PUSH1 0x40 MLOAD RETURNDATASIZE PUSH1 0x0 DUP3 RETURNDATACOPY RETURNDATASIZE SWAP1 REVERT JUMPDEST PUSH1 0x40 MLOAD PUSH3 0x461BCD PUSH1 0xE5 SHL DUP2 MSTORE PUSH1 0x4 DUP2 ADD DUP5 SWAP1 MSTORE PUSH1 0x22 PUSH1 0x24 DUP3 ADD MSTORE PUSH32 0x4661696C656420746F20617070726F7665207374616B696E6720636F6E747261 PUSH1 0x44 DUP3 ADD MSTORE PUSH2 0x18DD PUSH1 0xF2 SHL PUSH1 0x64 DUP3 ADD MSTORE PUSH1 0x84 SWAP1 REVERT JUMPDEST PUSH2 0x84B SWAP2 POP DUP5 RETURNDATASIZE DUP7 GT PUSH2 0x7D1 JUMPI PUSH2 0x7C3 DUP2 DUP4 PUSH2 0x1308 JUMP JUMPDEST DUP9 PUSH2 0x693 JUMP JUMPDEST PUSH4 0x4E487B71 PUSH1 0xE0 SHL PUSH1 0x0 MSTORE PUSH1 0x21 PUSH1 0x4 MSTORE PUSH1 0x24 PUSH1 0x0 REVERT JUMPDEST SWAP6 PUSH1 0x0 SWAP3 POP SWAP1 PUSH1 0x2 DUP5 EQ DUP1 PUSH2 0x8F6 JUMPI JUMPDEST ISZERO PUSH2 0x8A1 JUMPI PUSH1 0x64 PUSH2 0x892 PUSH1 0x5 PUSH2 0x100 SWAP4 ADD SLOAD PUSH1 0x6 SLOAD SWAP1 PUSH2 0x1527 JUMP JUMPDEST DIV SWAP7 PUSH2 0xFF00 NOT AND OR DUP9 SSTORE PUSH2 0x630 JUMP JUMPDEST PUSH1 0x40 MLOAD PUSH3 0x461BCD PUSH1 0xE5 SHL DUP2 MSTORE PUSH1 0x4 DUP2 ADD DUP7 SWAP1 MSTORE PUSH1 0x27 PUSH1 0x24 DUP3 ADD MSTORE PUSH32 0x5072697A6520616C726561647920636C61696D656420666F7220746869732077 PUSH1 0x44 DUP3 ADD MSTORE PUSH7 0x696E2074797065 PUSH1 0xC8 SHL PUSH1 0x64 DUP3 ADD MSTORE PUSH1 0x84 SWAP1 REVERT JUMPDEST POP DUP8 DUP8 PUSH1 0x8 SHR AND ISZERO PUSH2 0x877 JUMP JUMPDEST POP DUP8 DUP2 AND ISZERO PUSH2 0x609 JUMP JUMPDEST PUSH1 0x40 MLOAD PUSH3 0x461BCD PUSH1 0xE5 SHL DUP2 MSTORE PUSH1 0x4 DUP2 ADD DUP6 SWAP1 MSTORE PUSH1 0xF PUSH1 0x24 DUP3 ADD MSTORE PUSH15 0x105B1C9958591E4818DB185A5B5959 PUSH1 0x8A SHL PUSH1 0x44 DUP3 ADD MSTORE PUSH1 0x64 SWAP1 REVERT JUMPDEST PUSH1 0x40 MLOAD PUSH3 0x461BCD PUSH1 0xE5 SHL DUP2 MSTORE PUSH1 0x4 DUP2 ADD DUP5 SWAP1 MSTORE PUSH1 0x6 PUSH1 0x24 DUP3 ADD MSTORE PUSH6 0x2737903BB4B7 PUSH1 0xD1 SHL PUSH1 0x44 DUP3 ADD MSTORE PUSH1 0x64 SWAP1 REVERT JUMPDEST PUSH1 0x40 MLOAD PUSH3 0x461BCD PUSH1 0xE5 SHL DUP2 MSTORE PUSH1 0x4 DUP2 ADD DUP4 SWAP1 MSTORE PUSH1 0x16 PUSH1 0x24 DUP3 ADD MSTORE PUSH22 0x47616D65207374696C6C20696E2070726F6772657373 PUSH1 0x50 SHL PUSH1 0x44 DUP3 ADD MSTORE PUSH1 0x64 SWAP1 REVERT JUMPDEST PUSH4 0x4E487B71 PUSH1 0xE0 SHL PUSH1 0x0 MSTORE PUSH1 0x11 PUSH1 0x4 MSTORE PUSH1 0x24 PUSH1 0x0 REVERT JUMPDEST PUSH1 0x40 MLOAD PUSH3 0x461BCD PUSH1 0xE5 SHL DUP2 MSTORE PUSH1 0x4 DUP2 ADD DUP4 SWAP1 MSTORE PUSH1 0xF PUSH1 0x24 DUP3 ADD MSTORE PUSH15 0x47616D65206E6F7420616374697665 PUSH1 0x88 SHL PUSH1 0x44 DUP3 ADD MSTORE PUSH1 0x64 SWAP1 REVERT JUMPDEST CALLVALUE PUSH2 0x12F JUMPI PUSH1 0x40 CALLDATASIZE PUSH1 0x3 NOT ADD SLT PUSH2 0x12F JUMPI PUSH1 0x4 CALLDATALOAD PUSH1 0x1 PUSH1 0x1 PUSH1 0x40 SHL SUB DUP2 GT PUSH2 0x12F JUMPI PUSH1 0x23 CALLDATASIZE DUP2 DUP4 ADD SLT ISZERO PUSH2 0x12F JUMPI PUSH1 0x40 MLOAD SWAP2 PUSH1 0xA0 DUP4 ADD PUSH1 0x1 PUSH1 0x1 PUSH1 0x40 SHL SUB DUP2 GT DUP5 DUP3 LT OR PUSH2 0x4B3 JUMPI PUSH1 0x40 MSTORE DUP3 PUSH1 0xA4 DUP3 ADD SWAP2 CALLDATASIZE DUP4 GT PUSH2 0x12F JUMPI DUP1 PUSH1 0x4 ADD SWAP2 JUMPDEST DUP4 DUP4 LT PUSH2 0xF30 JUMPI DUP6 PUSH1 0x4 PUSH1 0x24 CALLDATALOAD LT ISZERO PUSH2 0x12F JUMPI PUSH2 0xA76 PUSH2 0x1552 JUMP JUMPDEST PUSH2 0xA81 PUSH1 0x24 CALLDATALOAD PUSH2 0x12A0 JUMP JUMPDEST PUSH2 0xABD PUSH1 0xFF PUSH1 0x3 PUSH1 0x40 MLOAD SWAP4 PUSH2 0xA95 DUP6 PUSH2 0x12ED JUMP JUMPDEST DUP1 SLOAD DUP6 MSTORE PUSH1 0x1 DUP2 ADD SLOAD PUSH1 0x20 DUP7 ADD MSTORE PUSH1 0x2 DUP2 ADD SLOAD PUSH1 0x40 DUP7 ADD MSTORE ADD SLOAD AND ISZERO ISZERO DUP1 PUSH1 0x60 DUP5 ADD MSTORE PUSH2 0x13C0 JUMP JUMPDEST CALLER PUSH1 0x0 MSTORE PUSH1 0xB PUSH1 0x20 MSTORE PUSH1 0x40 PUSH1 0x0 KECCAK256 SLOAD PUSH2 0xEF7 JUMPI PUSH2 0xADB PUSH1 0x24 CALLDATALOAD PUSH2 0x15A8 JUMP JUMPDEST SWAP2 DUP3 PUSH1 0x0 MSTORE PUSH1 0xA PUSH1 0x20 MSTORE PUSH1 0x40 PUSH1 0x0 KECCAK256 SWAP3 PUSH1 0x7 DUP5 ADD SLOAD PUSH1 0x9 DUP6 ADD SLOAD GT ISZERO PUSH2 0xEC3 JUMPI PUSH2 0xB04 DUP2 PUSH2 0x16B4 JUMP JUMPDEST PUSH2 0xE83 JUMPI PUSH1 0x0 JUMPDEST PUSH1 0x5 DUP1 DUP3 LT ISZERO PUSH2 0xC0B JUMPI DUP1 PUSH2 0xB20 DUP4 DUP7 PUSH2 0x14D4 JUMP JUMPDEST MLOAD MLOAD SUB PUSH2 0xBD0 JUMPI PUSH1 0x0 JUMPDEST DUP2 DUP2 LT PUSH2 0xB41 JUMPI POP POP PUSH2 0xB3C SWAP1 PUSH2 0x1403 JUMP JUMPDEST PUSH2 0xB0B JUMP JUMPDEST PUSH1 0x1 PUSH2 0xB57 DUP3 PUSH2 0xB51 DUP7 DUP10 PUSH2 0x14D4 JUMP JUMPDEST MLOAD PUSH2 0x14FB JUMP JUMPDEST MLOAD LT ISZERO DUP1 PUSH2 0xBB7 JUMPI JUMPDEST ISZERO PUSH2 0xB73 JUMPI PUSH2 0xB6E SWAP1 PUSH2 0x1403 JUMP JUMPDEST PUSH2 0xB2A JUMP JUMPDEST PUSH1 0x64 PUSH1 0x40 MLOAD PUSH3 0x461BCD PUSH1 0xE5 SHL DUP2 MSTORE PUSH1 0x20 PUSH1 0x4 DUP3 ADD MSTORE PUSH1 0x20 PUSH1 0x24 DUP3 ADD MSTORE PUSH32 0x4E756D62657273206D757374206265206265747765656E203120616E64203735 PUSH1 0x44 DUP3 ADD MSTORE REVERT JUMPDEST POP PUSH1 0x4B PUSH2 0xBC8 DUP3 PUSH2 0xB51 DUP7 DUP10 PUSH2 0x14D4 JUMP JUMPDEST MLOAD GT ISZERO PUSH2 0xB60 JUMP JUMPDEST PUSH1 0x40 MLOAD PUSH3 0x461BCD PUSH1 0xE5 SHL DUP2 MSTORE PUSH1 0x20 PUSH1 0x4 DUP3 ADD MSTORE PUSH1 0x13 PUSH1 0x24 DUP3 ADD MSTORE PUSH19 0x125B9D985B1A590818D85C9908199BDC9B585D PUSH1 0x6A SHL PUSH1 0x44 DUP3 ADD MSTORE PUSH1 0x64 SWAP1 REVERT JUMPDEST DUP3 DUP7 DUP7 DUP7 PUSH1 0x0 PUSH1 0x20 PUSH1 0x1 DUP1 PUSH1 0xA0 SHL SUB PUSH1 0x2 SLOAD AND PUSH1 0x64 PUSH1 0x40 DUP7 ADD MLOAD PUSH1 0x40 MLOAD SWAP5 DUP6 SWAP4 DUP5 SWAP3 PUSH4 0x23B872DD PUSH1 0xE0 SHL DUP5 MSTORE CALLER PUSH1 0x4 DUP6 ADD MSTORE ADDRESS PUSH1 0x24 DUP6 ADD MSTORE PUSH1 0x44 DUP5 ADD MSTORE GAS CALL SWAP1 DUP2 ISZERO PUSH2 0x7D8 JUMPI PUSH1 0x0 SWAP2 PUSH2 0xE64 JUMPI JUMPDEST POP ISZERO PUSH2 0xE28 JUMPI CALLER PUSH1 0x0 MSTORE PUSH1 0x2 DUP4 ADD PUSH1 0x20 MSTORE PUSH1 0x40 PUSH1 0x0 KECCAK256 SWAP1 PUSH1 0x0 SWAP1 JUMPDEST PUSH1 0x5 DUP3 LT PUSH2 0xD92 JUMPI POP POP POP PUSH1 0x7 DUP3 ADD SLOAD SWAP1 PUSH1 0x1 PUSH1 0x40 SHL DUP3 LT ISZERO PUSH2 0x4B3 JUMPI PUSH2 0xCA9 DUP3 PUSH1 0x1 PUSH1 0x40 SWAP5 ADD PUSH1 0x7 DUP7 ADD SSTORE PUSH1 0x7 DUP6 ADD PUSH2 0x153A JUMP JUMPDEST DUP2 SLOAD PUSH1 0x1 PUSH1 0x1 PUSH1 0xA0 SHL SUB PUSH1 0x3 SWAP3 SWAP1 SWAP3 SHL SWAP2 DUP3 SHL NOT AND CALLER SWAP1 SWAP2 SHL OR SWAP1 SSTORE ADD MLOAD PUSH1 0x5 DUP3 ADD DUP1 SLOAD SWAP2 DUP3 ADD SWAP2 DUP3 LT PUSH2 0x9B0 JUMPI SSTORE CALLER PUSH1 0x0 MSTORE PUSH1 0xB PUSH1 0x20 MSTORE DUP2 PUSH1 0x40 PUSH1 0x0 KECCAK256 SSTORE PUSH1 0x40 MLOAD PUSH2 0xCF7 DUP2 PUSH1 0x24 CALLDATALOAD PUSH2 0x1293 JUMP JUMPDEST DUP3 PUSH32 0xE889B3DC10D31E126AA93FFC718B91364323274DB119C933AA6ABD402BFE7723 PUSH1 0x20 CALLER SWAP4 LOG3 PUSH1 0x9 PUSH1 0x7 DUP3 ADD SLOAD SWAP2 ADD SLOAD EQ PUSH2 0xD33 JUMPI PUSH1 0x1 DUP1 SSTORE STOP JUMPDEST PUSH1 0x0 MSTORE PUSH1 0xA PUSH1 0x20 MSTORE PUSH1 0x40 PUSH1 0x0 KECCAK256 PUSH1 0x7 DUP2 ADD SLOAD PUSH1 0x8 DUP3 ADD SLOAD GT PUSH2 0xD58 JUMPI TIMESTAMP SWAP1 SSTORE DUP1 PUSH2 0x749 JUMP JUMPDEST PUSH1 0x40 MLOAD PUSH3 0x461BCD PUSH1 0xE5 SHL DUP2 MSTORE PUSH1 0x20 PUSH1 0x4 DUP3 ADD MSTORE PUSH1 0x12 PUSH1 0x24 DUP3 ADD MSTORE PUSH18 0x4E6F7420656E6F75676820706C6179657273 PUSH1 0x70 SHL PUSH1 0x44 DUP3 ADD MSTORE PUSH1 0x64 SWAP1 REVERT JUMPDEST DUP1 MLOAD DUP1 MLOAD SWAP1 PUSH1 0x1 PUSH1 0x1 PUSH1 0x40 SHL SUB DUP3 GT PUSH2 0x4B3 JUMPI PUSH1 0x1 PUSH1 0x40 SHL DUP3 GT PUSH2 0x4B3 JUMPI DUP5 SLOAD DUP3 DUP7 SSTORE DUP1 DUP4 LT PUSH2 0xDFE JUMPI JUMPDEST POP PUSH1 0x20 ADD DUP5 PUSH1 0x0 MSTORE PUSH1 0x20 PUSH1 0x0 KECCAK256 PUSH1 0x0 JUMPDEST DUP4 DUP2 LT PUSH2 0xDEA JUMPI POP POP POP POP PUSH1 0x1 PUSH1 0x20 DUP2 SWAP3 ADD SWAP4 ADD SWAP2 ADD SWAP1 SWAP2 PUSH2 0xC74 JUMP JUMPDEST PUSH1 0x1 SWAP1 PUSH1 0x20 DUP5 MLOAD SWAP5 ADD SWAP4 DUP2 DUP5 ADD SSTORE ADD PUSH2 0xDCD JUMP JUMPDEST DUP6 PUSH1 0x0 MSTORE PUSH1 0x20 PUSH1 0x0 KECCAK256 SWAP1 DUP4 DUP3 ADD JUMPDEST DUP2 DUP4 ADD DUP2 LT PUSH2 0xE1C JUMPI POP POP PUSH2 0xDBD JUMP JUMPDEST PUSH1 0x0 DUP2 SSTORE PUSH1 0x1 ADD PUSH2 0xE0C JUMP JUMPDEST PUSH1 0x40 MLOAD PUSH3 0x461BCD PUSH1 0xE5 SHL DUP2 MSTORE PUSH1 0x20 PUSH1 0x4 DUP3 ADD MSTORE PUSH1 0x14 PUSH1 0x24 DUP3 ADD MSTORE PUSH20 0x1554D115081D1C985B9CD9995C8819985A5B1959 PUSH1 0x62 SHL PUSH1 0x44 DUP3 ADD MSTORE PUSH1 0x64 SWAP1 REVERT JUMPDEST PUSH2 0xE7D SWAP2 POP PUSH1 0x20 RETURNDATASIZE PUSH1 0x20 GT PUSH2 0x7D1 JUMPI PUSH2 0x7C3 DUP2 DUP4 PUSH2 0x1308 JUMP JUMPDEST DUP6 PUSH2 0xC59 JUMP JUMPDEST PUSH1 0x40 MLOAD PUSH3 0x461BCD PUSH1 0xE5 SHL DUP2 MSTORE PUSH1 0x20 PUSH1 0x4 DUP3 ADD MSTORE PUSH1 0x18 PUSH1 0x24 DUP3 ADD MSTORE PUSH24 0x47616D6520616C726561647920696E2070726F6772657373 PUSH1 0x40 SHL PUSH1 0x44 DUP3 ADD MSTORE PUSH1 0x64 SWAP1 REVERT JUMPDEST PUSH1 0x40 MLOAD PUSH3 0x461BCD PUSH1 0xE5 SHL DUP2 MSTORE PUSH1 0x20 PUSH1 0x4 DUP3 ADD MSTORE PUSH1 0xC PUSH1 0x24 DUP3 ADD MSTORE PUSH12 0x11D85B59481A5CC8199D5B1B PUSH1 0xA2 SHL PUSH1 0x44 DUP3 ADD MSTORE PUSH1 0x64 SWAP1 REVERT JUMPDEST PUSH1 0x40 MLOAD PUSH3 0x461BCD PUSH1 0xE5 SHL DUP2 MSTORE PUSH1 0x20 PUSH1 0x4 DUP3 ADD MSTORE PUSH1 0x11 PUSH1 0x24 DUP3 ADD MSTORE PUSH17 0x416C726561647920696E20612067616D65 PUSH1 0x78 SHL PUSH1 0x44 DUP3 ADD MSTORE PUSH1 0x64 SWAP1 REVERT JUMPDEST DUP3 CALLDATALOAD PUSH1 0x1 PUSH1 0x1 PUSH1 0x40 SHL SUB DUP2 GT PUSH2 0x12F JUMPI DUP3 ADD SWAP1 CALLDATASIZE DUP7 DUP4 ADD SLT ISZERO PUSH2 0x12F JUMPI PUSH1 0x4 DUP3 ADD CALLDATALOAD SWAP2 PUSH1 0x1 PUSH1 0x1 PUSH1 0x40 SHL SUB DUP4 GT PUSH2 0x4B3 JUMPI DUP3 PUSH1 0x5 SHL PUSH1 0x40 MLOAD SWAP2 PUSH1 0x20 SWAP5 PUSH2 0xF78 DUP7 DUP5 ADD DUP6 PUSH2 0x1308 JUMP JUMPDEST DUP4 MSTORE DUP5 DUP4 ADD SWAP2 PUSH1 0x24 DUP1 SWAP2 DUP4 ADD ADD SWAP2 CALLDATASIZE DUP4 GT PUSH2 0x12F JUMPI ADD SWAP2 JUMPDEST DUP2 DUP4 LT PUSH2 0xFA9 JUMPI POP POP POP DUP2 MSTORE PUSH1 0x20 SWAP4 SWAP1 SWAP4 ADD SWAP3 ADD PUSH2 0xA5B JUMP JUMPDEST DUP3 CALLDATALOAD DUP2 MSTORE SWAP2 DUP6 ADD SWAP2 DUP6 ADD PUSH2 0xF90 JUMP JUMPDEST CALLVALUE PUSH2 0x12F JUMPI PUSH1 0x0 CALLDATASIZE PUSH1 0x3 NOT ADD SLT PUSH2 0x12F JUMPI PUSH1 0x20 PUSH1 0x40 MLOAD PUSH2 0x258 DUP2 MSTORE RETURN JUMPDEST CALLVALUE PUSH2 0x12F JUMPI PUSH1 0x0 CALLDATASIZE PUSH1 0x3 NOT ADD SLT PUSH2 0x12F JUMPI PUSH1 0x20 PUSH1 0x5 SLOAD PUSH1 0x40 MLOAD SWAP1 DUP2 MSTORE RETURN JUMPDEST CALLVALUE PUSH2 0x12F JUMPI PUSH1 0x0 CALLDATASIZE PUSH1 0x3 NOT ADD SLT PUSH2 0x12F JUMPI PUSH1 0x0 SLOAD PUSH1 0x40 MLOAD PUSH1 0x1 PUSH1 0x1 PUSH1 0xA0 SHL SUB SWAP1 SWAP2 AND DUP2 MSTORE PUSH1 0x20 SWAP1 RETURN JUMPDEST CALLVALUE PUSH2 0x12F JUMPI PUSH1 0x0 CALLDATASIZE PUSH1 0x3 NOT ADD SLT PUSH2 0x12F JUMPI PUSH2 0x1035 PUSH2 0x132B JUMP JUMPDEST PUSH1 0x0 DUP1 SLOAD PUSH1 0x1 PUSH1 0x1 PUSH1 0xA0 SHL SUB NOT DUP2 AND DUP3 SSTORE PUSH1 0x1 PUSH1 0x1 PUSH1 0xA0 SHL SUB AND PUSH1 0x0 DUP1 MLOAD PUSH1 0x20 PUSH2 0x1A77 DUP4 CODECOPY DUP2 MLOAD SWAP2 MSTORE DUP3 DUP1 LOG3 STOP JUMPDEST CALLVALUE PUSH2 0x12F JUMPI PUSH1 0x20 CALLDATASIZE PUSH1 0x3 NOT ADD SLT PUSH2 0x12F JUMPI PUSH1 0x4 CALLDATALOAD PUSH1 0x4 DUP2 LT ISZERO PUSH2 0x12F JUMPI PUSH2 0x1089 SWAP1 PUSH2 0x1412 JUMP JUMPDEST STOP JUMPDEST CALLVALUE PUSH2 0x12F JUMPI PUSH1 0x0 CALLDATASIZE PUSH1 0x3 NOT ADD SLT PUSH2 0x12F JUMPI PUSH1 0x20 PUSH1 0x9 SLOAD PUSH1 0x40 MLOAD SWAP1 DUP2 MSTORE RETURN JUMPDEST CALLVALUE PUSH2 0x12F JUMPI PUSH1 0x20 CALLDATASIZE PUSH1 0x3 NOT ADD SLT PUSH2 0x12F JUMPI PUSH1 0x4 CALLDATALOAD PUSH1 0x0 MSTORE PUSH1 0xA PUSH1 0x20 MSTORE PUSH1 0x40 PUSH1 0x0 KECCAK256 PUSH1 0x4 DUP2 ADD SLOAD DUP2 SLOAD SWAP1 PUSH1 0xFF PUSH2 0x1113 PUSH2 0x10E8 PUSH1 0x1 PUSH1 0x5 DUP8 ADD SLOAD SWAP7 ADD PUSH2 0x16E5 JUMP JUMPDEST PUSH1 0x40 MLOAD SWAP6 DUP7 SWAP6 DUP5 DUP7 PUSH1 0x10 SHR AND ISZERO ISZERO DUP8 MSTORE PUSH1 0x20 DUP8 ADD MSTORE PUSH1 0x40 DUP7 ADD MSTORE PUSH1 0xC0 PUSH1 0x60 DUP7 ADD MSTORE PUSH1 0xC0 DUP6 ADD SWAP1 PUSH2 0x12B9 JUMP JUMPDEST SWAP2 DUP2 DUP2 AND ISZERO ISZERO PUSH1 0x80 DUP6 ADD MSTORE PUSH1 0x8 SHR AND ISZERO ISZERO PUSH1 0xA0 DUP4 ADD MSTORE SUB SWAP1 RETURN JUMPDEST CALLVALUE PUSH2 0x12F JUMPI PUSH1 0x20 CALLDATASIZE PUSH1 0x3 NOT ADD SLT PUSH2 0x12F JUMPI PUSH1 0x4 CALLDATALOAD PUSH1 0x1 PUSH1 0x1 PUSH1 0xA0 SHL SUB DUP2 AND SWAP1 DUP2 SWAP1 SUB PUSH2 0x12F JUMPI PUSH1 0x0 MSTORE PUSH1 0xB PUSH1 0x20 MSTORE PUSH1 0x20 PUSH1 0x40 PUSH1 0x0 KECCAK256 SLOAD PUSH1 0x40 MLOAD SWAP1 DUP2 MSTORE RETURN JUMPDEST CALLVALUE PUSH2 0x12F JUMPI PUSH1 0x0 CALLDATASIZE PUSH1 0x3 NOT ADD SLT PUSH2 0x12F JUMPI PUSH1 0x2 SLOAD PUSH1 0x40 MLOAD PUSH1 0x1 PUSH1 0x1 PUSH1 0xA0 SHL SUB SWAP1 SWAP2 AND DUP2 MSTORE PUSH1 0x20 SWAP1 RETURN JUMPDEST CALLVALUE PUSH2 0x12F JUMPI PUSH1 0x20 CALLDATASIZE PUSH1 0x3 NOT ADD SLT PUSH2 0x12F JUMPI PUSH1 0x4 CALLDATALOAD PUSH1 0x4 DUP2 LT ISZERO PUSH2 0x12F JUMPI PUSH2 0x11BC PUSH1 0x80 SWAP2 PUSH2 0x12A0 JUMP JUMPDEST DUP1 SLOAD SWAP1 PUSH1 0x1 DUP2 ADD SLOAD SWAP1 PUSH1 0xFF PUSH1 0x3 PUSH1 0x2 DUP4 ADD SLOAD SWAP3 ADD SLOAD AND SWAP2 PUSH1 0x40 MLOAD SWAP4 DUP5 MSTORE PUSH1 0x20 DUP5 ADD MSTORE PUSH1 0x40 DUP4 ADD MSTORE ISZERO ISZERO PUSH1 0x60 DUP3 ADD MSTORE RETURN JUMPDEST CALLVALUE PUSH2 0x12F JUMPI PUSH1 0x0 CALLDATASIZE PUSH1 0x3 NOT ADD SLT PUSH2 0x12F JUMPI PUSH1 0x20 PUSH1 0x4 SLOAD PUSH1 0x40 MLOAD SWAP1 DUP2 MSTORE RETURN JUMPDEST CALLVALUE PUSH2 0x12F JUMPI PUSH1 0x20 CALLDATASIZE PUSH1 0x3 NOT ADD SLT PUSH2 0x12F JUMPI PUSH2 0x100 SWAP1 PUSH1 0x4 CALLDATALOAD PUSH1 0x0 MSTORE PUSH1 0xA PUSH1 0x20 MSTORE PUSH1 0x40 PUSH1 0x0 KECCAK256 DUP1 SLOAD SWAP1 PUSH2 0x1287 PUSH1 0x4 DUP3 ADD SLOAD PUSH1 0x5 DUP4 ADD SLOAD PUSH1 0xFF DUP1 PUSH1 0x6 DUP7 ADD SLOAD AND SWAP3 PUSH1 0x9 PUSH1 0x8 DUP8 ADD SLOAD SWAP7 ADD SLOAD SWAP7 DUP9 MSTORE DUP2 DUP2 AND ISZERO ISZERO PUSH1 0x20 DUP10 ADD MSTORE DUP2 DUP2 PUSH1 0x8 SHR AND ISZERO ISZERO PUSH1 0x40 DUP10 ADD MSTORE PUSH1 0x10 SHR AND ISZERO ISZERO PUSH1 0x60 DUP8 ADD MSTORE PUSH1 0x80 DUP7 ADD MSTORE PUSH1 0xA0 DUP6 ADD SWAP1 PUSH2 0x1293 JUMP JUMPDEST PUSH1 0xC0 DUP4 ADD MSTORE PUSH1 0xE0 DUP3 ADD MSTORE RETURN JUMPDEST SWAP1 PUSH1 0x4 DUP3 LT ISZERO PUSH2 0x851 JUMPI MSTORE JUMP JUMPDEST PUSH1 0x4 DUP2 LT ISZERO PUSH2 0x851 JUMPI PUSH1 0x0 MSTORE PUSH1 0x8 PUSH1 0x20 MSTORE PUSH1 0x40 PUSH1 0x0 KECCAK256 SWAP1 JUMP JUMPDEST SWAP1 DUP2 MLOAD DUP1 DUP3 MSTORE PUSH1 0x20 DUP1 DUP1 SWAP4 ADD SWAP4 ADD SWAP2 PUSH1 0x0 JUMPDEST DUP3 DUP2 LT PUSH2 0x12D9 JUMPI POP POP POP POP SWAP1 JUMP JUMPDEST DUP4 MLOAD DUP6 MSTORE SWAP4 DUP2 ADD SWAP4 SWAP3 DUP2 ADD SWAP3 PUSH1 0x1 ADD PUSH2 0x12CB JUMP JUMPDEST PUSH1 0x80 DUP2 ADD SWAP1 DUP2 LT PUSH1 0x1 PUSH1 0x1 PUSH1 0x40 SHL SUB DUP3 GT OR PUSH2 0x4B3 JUMPI PUSH1 0x40 MSTORE JUMP JUMPDEST PUSH1 0x1F SWAP1 SWAP2 ADD PUSH1 0x1F NOT AND DUP2 ADD SWAP1 PUSH1 0x1 PUSH1 0x1 PUSH1 0x40 SHL SUB DUP3 GT SWAP1 DUP3 LT OR PUSH2 0x4B3 JUMPI PUSH1 0x40 MSTORE JUMP JUMPDEST PUSH1 0x0 SLOAD PUSH1 0x1 PUSH1 0x1 PUSH1 0xA0 SHL SUB AND CALLER SUB PUSH2 0x133F JUMPI JUMP JUMPDEST PUSH1 0x64 PUSH1 0x40 MLOAD PUSH3 0x461BCD PUSH1 0xE5 SHL DUP2 MSTORE PUSH1 0x20 PUSH1 0x4 DUP3 ADD MSTORE PUSH1 0x20 PUSH1 0x24 DUP3 ADD MSTORE PUSH32 0x4F776E61626C653A2063616C6C6572206973206E6F7420746865206F776E6572 PUSH1 0x44 DUP3 ADD MSTORE REVERT JUMPDEST ISZERO PUSH2 0x138A JUMPI JUMP JUMPDEST PUSH1 0x40 MLOAD PUSH3 0x461BCD PUSH1 0xE5 SHL DUP2 MSTORE PUSH1 0x20 PUSH1 0x4 DUP3 ADD MSTORE PUSH1 0xE PUSH1 0x24 DUP3 ADD MSTORE PUSH14 0x139BDD08185D5D1A1BDC9A5E9959 PUSH1 0x92 SHL PUSH1 0x44 DUP3 ADD MSTORE PUSH1 0x64 SWAP1 REVERT JUMPDEST ISZERO PUSH2 0x13C7 JUMPI JUMP JUMPDEST PUSH1 0x40 MLOAD PUSH3 0x461BCD PUSH1 0xE5 SHL DUP2 MSTORE PUSH1 0x20 PUSH1 0x4 DUP3 ADD MSTORE PUSH1 0x14 PUSH1 0x24 DUP3 ADD MSTORE PUSH20 0x47616D65206D6F6465206E6F7420616374697665 PUSH1 0x60 SHL PUSH1 0x44 DUP3 ADD MSTORE PUSH1 0x64 SWAP1 REVERT JUMPDEST PUSH1 0x0 NOT DUP2 EQ PUSH2 0x9B0 JUMPI PUSH1 0x1 ADD SWAP1 JUMP JUMPDEST PUSH2 0x142A PUSH1 0xFF PUSH1 0x3 PUSH2 0x1422 DUP5 PUSH2 0x12A0 JUMP JUMPDEST ADD SLOAD AND PUSH2 0x13C0 JUMP JUMPDEST PUSH2 0x1435 PUSH1 0x9 SLOAD PUSH2 0x1403 JUMP JUMPDEST DUP1 PUSH1 0x9 SSTORE PUSH1 0x0 MSTORE PUSH1 0xA PUSH1 0x20 MSTORE PUSH1 0x40 PUSH1 0x0 KECCAK256 TIMESTAMP DUP2 SSTORE PUSH1 0x4 DUP2 ADD PUSH3 0x10000 PUSH3 0xFF0000 NOT DUP3 SLOAD AND OR SWAP1 SSTORE PUSH1 0x6 DUP2 ADD PUSH1 0x4 DUP4 LT ISZERO PUSH2 0x851 JUMPI PUSH1 0xFF NOT DUP2 SLOAD AND PUSH1 0xFF DUP5 AND OR SWAP1 SSTORE PUSH2 0x147F DUP3 PUSH2 0x12A0 JUMP JUMPDEST SLOAD PUSH1 0x8 DUP3 ADD SSTORE PUSH1 0x9 PUSH1 0x1 PUSH2 0x1492 DUP5 PUSH2 0x12A0 JUMP JUMPDEST ADD SLOAD SWAP2 ADD SSTORE PUSH32 0x5EBE9E4B5EC73754B320DC4B775C3350188DD025D94A21E5DD5A987DBA556DA2 PUSH1 0x40 PUSH1 0x9 SLOAD SWAP3 PUSH2 0x14D1 DUP3 MLOAD SWAP2 TIMESTAMP DUP4 MSTORE PUSH1 0x20 DUP4 ADD SWAP1 PUSH2 0x1293 JUMP JUMPDEST LOG2 JUMP JUMPDEST SWAP1 PUSH1 0x5 DUP2 LT ISZERO PUSH2 0x14E5 JUMPI PUSH1 0x5 SHL ADD SWAP1 JUMP JUMPDEST PUSH4 0x4E487B71 PUSH1 0xE0 SHL PUSH1 0x0 MSTORE PUSH1 0x32 PUSH1 0x4 MSTORE PUSH1 0x24 PUSH1 0x0 REVERT JUMPDEST DUP1 MLOAD DUP3 LT ISZERO PUSH2 0x14E5 JUMPI PUSH1 0x20 SWAP2 PUSH1 0x5 SHL ADD ADD SWAP1 JUMP JUMPDEST SWAP1 DUP2 PUSH1 0x20 SWAP2 SUB SLT PUSH2 0x12F JUMPI MLOAD DUP1 ISZERO ISZERO DUP2 SUB PUSH2 0x12F JUMPI SWAP1 JUMP JUMPDEST DUP2 DUP2 MUL SWAP3 SWAP2 DUP2 ISZERO SWAP2 DUP5 DIV EQ OR ISZERO PUSH2 0x9B0 JUMPI JUMP JUMPDEST DUP1 SLOAD DUP3 LT ISZERO PUSH2 0x14E5 JUMPI PUSH1 0x0 MSTORE PUSH1 0x20 PUSH1 0x0 KECCAK256 ADD SWAP1 PUSH1 0x0 SWAP1 JUMP JUMPDEST PUSH1 0x2 PUSH1 0x1 SLOAD EQ PUSH2 0x1563 JUMPI PUSH1 0x2 PUSH1 0x1 SSTORE JUMP JUMPDEST PUSH1 0x40 MLOAD PUSH3 0x461BCD PUSH1 0xE5 SHL DUP2 MSTORE PUSH1 0x20 PUSH1 0x4 DUP3 ADD MSTORE PUSH1 0x1F PUSH1 0x24 DUP3 ADD MSTORE PUSH32 0x5265656E7472616E637947756172643A207265656E7472616E742063616C6C00 PUSH1 0x44 DUP3 ADD MSTORE PUSH1 0x64 SWAP1 REVERT JUMPDEST SWAP1 PUSH1 0x9 SWAP2 DUP3 SLOAD SWAP3 DUP4 JUMPDEST DUP1 ISZERO ISZERO DUP1 PUSH2 0x16A0 JUMPI JUMPDEST ISZERO PUSH2 0x168F JUMPI PUSH1 0x0 DUP2 DUP2 MSTORE PUSH1 0xA PUSH1 0x20 SWAP2 DUP2 DUP4 MSTORE PUSH1 0x40 SWAP2 DUP3 DUP3 KECCAK256 SWAP4 PUSH1 0xFF PUSH1 0x4 SWAP1 DUP1 DUP3 DUP9 ADD SLOAD PUSH1 0x10 SHR AND SWAP7 DUP8 PUSH2 0x1655 JUMPI JUMPDEST POP POP POP DUP5 PUSH2 0x1643 JUMPI JUMPDEST DUP5 PUSH2 0x1629 JUMPI JUMPDEST POP POP POP POP PUSH2 0x1623 JUMPI DUP1 ISZERO PUSH2 0x160E JUMPI PUSH1 0x0 NOT ADD PUSH2 0x15B1 JUMP JUMPDEST PUSH1 0x24 PUSH1 0x0 PUSH4 0x4E487B71 PUSH1 0xE0 SHL DUP2 MSTORE PUSH1 0x11 PUSH1 0x4 MSTORE REVERT JUMPDEST SWAP4 POP POP POP JUMP JUMPDEST DUP6 DUP4 MSTORE MSTORE KECCAK256 PUSH1 0x7 DUP2 ADD SLOAD SWAP1 DUP5 ADD SLOAD GT SWAP1 POP CODESIZE DUP1 DUP1 DUP1 PUSH2 0x15F7 JUMP JUMPDEST SWAP4 POP PUSH2 0x164E DUP6 PUSH2 0x16B4 JUMP JUMPDEST ISZERO SWAP4 PUSH2 0x15F1 JUMP JUMPDEST PUSH1 0x6 SWAP2 SWAP3 SWAP4 SWAP8 POP ADD SLOAD AND SWAP1 DUP1 DUP10 LT ISZERO PUSH2 0x167C JUMPI DUP1 DUP3 LT ISZERO PUSH2 0x167C JUMPI POP DUP8 EQ SWAP4 CODESIZE DUP1 DUP1 PUSH2 0x15E8 JUMP JUMPDEST PUSH4 0x4E487B71 PUSH1 0xE0 SHL DUP5 MSTORE PUSH1 0x21 SWAP1 MSTORE PUSH1 0x24 DUP4 REVERT JUMPDEST POP SWAP2 SWAP3 POP PUSH2 0x169C SWAP1 PUSH2 0x1412 JUMP JUMPDEST SLOAD SWAP1 JUMP JUMPDEST POP PUSH1 0x9 NOT DUP6 ADD DUP6 DUP2 GT PUSH2 0x160E JUMPI DUP2 GT PUSH2 0x15BA JUMP JUMPDEST PUSH1 0x0 MSTORE PUSH1 0xA PUSH1 0x20 MSTORE PUSH1 0x1 PUSH1 0x40 PUSH1 0x0 KECCAK256 ADD SLOAD ISZERO ISZERO SWAP1 JUMP JUMPDEST PUSH1 0x1 PUSH1 0x1 PUSH1 0xA0 SHL SUB SWAP1 SWAP2 AND DUP2 MSTORE PUSH1 0x20 DUP2 ADD SWAP2 SWAP1 SWAP2 MSTORE PUSH1 0x40 ADD SWAP1 JUMP JUMPDEST SWAP1 PUSH1 0x40 MLOAD SWAP2 DUP3 DUP2 SLOAD SWAP2 DUP3 DUP3 MSTORE PUSH1 0x20 SWAP3 DUP4 DUP4 ADD SWAP2 PUSH1 0x0 MSTORE DUP4 PUSH1 0x0 KECCAK256 SWAP4 PUSH1 0x0 SWAP1 JUMPDEST DUP3 DUP3 LT PUSH2 0x171C JUMPI POP POP POP PUSH2 0x171A SWAP3 POP SUB DUP4 PUSH2 0x1308 JUMP JUMPDEST JUMP JUMPDEST DUP6 SLOAD DUP5 MSTORE PUSH1 0x1 SWAP6 DUP7 ADD SWAP6 DUP9 SWAP6 POP SWAP4 DUP2 ADD SWAP4 SWAP1 SWAP2 ADD SWAP1 PUSH2 0x1704 JUMP JUMPDEST PUSH1 0x0 SWAP2 DUP3 MSTORE PUSH1 0xA PUSH1 0x20 SWAP1 DUP2 MSTORE PUSH1 0x40 DUP1 DUP5 KECCAK256 PUSH1 0x1 PUSH1 0x1 PUSH1 0xA0 SHL SUB SWAP1 SWAP4 AND DUP5 MSTORE PUSH1 0x2 DUP4 ADD DUP3 MSTORE DUP1 DUP5 KECCAK256 SWAP1 MLOAD SWAP2 PUSH1 0xA0 DUP4 ADD PUSH1 0x1 PUSH1 0x1 PUSH1 0x40 SHL SUB DUP2 GT DUP5 DUP3 LT OR PUSH2 0x1A62 JUMPI PUSH1 0x40 MSTORE DUP5 SWAP1 DUP4 JUMPDEST PUSH1 0x5 DUP4 LT PUSH2 0x1A46 JUMPI POP POP POP POP PUSH1 0x1 SWAP2 PUSH2 0x1797 DUP4 DUP3 ADD PUSH2 0x16E5 JUMP JUMPDEST SWAP2 DUP4 DUP6 DUP2 JUMPDEST PUSH2 0x198D JUMPI JUMPDEST POP DUP1 PUSH2 0x197B JUMPI JUMPDEST PUSH2 0x1971 JUMPI DUP5 DUP5 JUMPDEST PUSH2 0x18A3 JUMPI JUMPDEST POP DUP5 SWAP4 SWAP3 SWAP2 SWAP1 DUP4 JUMPDEST PUSH2 0x17CA JUMPI JUMPDEST POP POP POP POP SWAP1 POP SWAP1 JUMP JUMPDEST PUSH1 0x5 DUP1 DUP8 LT ISZERO PUSH2 0x189D JUMPI DUP5 SWAP1 DUP7 JUMPDEST DUP2 DUP2 LT PUSH2 0x1816 JUMPI JUMPDEST POP POP DUP1 PUSH2 0x1807 JUMPI JUMPDEST PUSH2 0x17FE JUMPI PUSH2 0x17F7 DUP5 SWAP6 SWAP7 PUSH2 0x1403 JUMP JUMPDEST SWAP6 SWAP5 PUSH2 0x17BC JUMP JUMPDEST POP POP POP SWAP2 POP POP SWAP1 JUMP JUMPDEST POP PUSH1 0xFF PUSH1 0x4 DUP4 ADD SLOAD AND ISZERO PUSH2 0x17E8 JUMP JUMPDEST DUP8 SWAP4 SWAP3 SWAP7 SWAP8 SWAP6 SWAP2 SWAP5 SWAP6 DUP9 DUP1 DUP7 SWAP1 JUMPDEST PUSH2 0x1857 JUMPI JUMPDEST POP POP ISZERO PUSH2 0x1847 JUMPI PUSH2 0x1839 SWAP1 PUSH2 0x1403 JUMP JUMPDEST SWAP7 SWAP6 SWAP2 SWAP3 SWAP7 SWAP5 SWAP4 SWAP1 SWAP5 PUSH2 0x17D8 JUMP JUMPDEST POP SWAP4 SWAP3 POP SWAP1 DUP1 SWAP6 SWAP5 POP CODESIZE DUP1 PUSH2 0x17E0 JUMP JUMPDEST DUP5 MLOAD DUP2 LT ISZERO PUSH2 0x1898 JUMPI PUSH2 0x186E DUP13 PUSH2 0xB51 DUP7 DUP10 PUSH2 0x14D4 JUMP JUMPDEST MLOAD PUSH2 0x1879 DUP3 DUP8 PUSH2 0x14FB JUMP JUMPDEST MLOAD EQ PUSH2 0x188E JUMPI PUSH2 0x1888 SWAP1 PUSH2 0x1403 JUMP JUMPDEST DUP2 PUSH2 0x1824 JUMP JUMPDEST POP SWAP1 POP DUP9 CODESIZE PUSH2 0x1829 JUMP JUMPDEST PUSH2 0x1829 JUMP JUMPDEST POP PUSH2 0x17C1 JUMP JUMPDEST PUSH1 0x5 DUP6 DUP2 DUP4 LT ISZERO PUSH2 0x196A JUMPI SWAP1 DUP8 JUMPDEST DUP2 DUP2 LT PUSH2 0x18E4 JUMPI JUMPDEST POP POP DUP1 PUSH2 0x18D5 JUMPI JUMPDEST PUSH2 0x17C1 JUMPI PUSH2 0x18CF DUP6 SWAP2 PUSH2 0x1403 JUMP JUMPDEST SWAP1 PUSH2 0x17AF JUMP JUMPDEST POP PUSH1 0xFF PUSH1 0x4 DUP5 ADD SLOAD AND ISZERO PUSH2 0x18C1 JUMP JUMPDEST DUP9 SWAP4 SWAP9 SWAP7 SWAP2 SWAP5 SWAP3 SWAP7 DUP9 DUP1 DUP7 SWAP1 JUMPDEST PUSH2 0x1921 JUMPI JUMPDEST POP POP ISZERO PUSH2 0x1913 JUMPI PUSH2 0x1906 SWAP1 PUSH2 0x1403 JUMP JUMPDEST SWAP8 SWAP3 SWAP8 SWAP6 SWAP2 SWAP4 SWAP1 SWAP6 PUSH2 0x18B1 JUMP JUMPDEST POP SWAP5 POP SWAP2 POP SWAP5 DUP6 CODESIZE DUP1 PUSH2 0x18B9 JUMP JUMPDEST DUP12 DUP5 DUP7 MLOAD DUP4 LT ISZERO PUSH2 0x1963 JUMPI PUSH2 0xB51 PUSH2 0x1939 SWAP3 DUP10 PUSH2 0x14D4 JUMP JUMPDEST MLOAD PUSH2 0x1944 DUP3 DUP8 PUSH2 0x14FB JUMP JUMPDEST MLOAD EQ PUSH2 0x1959 JUMPI PUSH2 0x1953 SWAP1 PUSH2 0x1403 JUMP JUMPDEST DUP2 PUSH2 0x18F1 JUMP JUMPDEST POP SWAP1 POP DUP9 CODESIZE PUSH2 0x18F6 JUMP JUMPDEST POP POP PUSH2 0x18F6 JUMP JUMPDEST POP POP PUSH2 0x17B4 JUMP JUMPDEST POP POP POP POP POP PUSH1 0x2 SWAP1 JUMP JUMPDEST POP PUSH1 0xFF PUSH1 0x4 DUP4 ADD SLOAD PUSH1 0x8 SHR AND ISZERO PUSH2 0x17A8 JUMP JUMPDEST PUSH1 0x5 DUP1 DUP3 LT DUP1 PUSH2 0x1A3F JUMPI JUMPDEST ISZERO PUSH2 0x1A39 JUMPI SWAP1 DUP7 SWAP2 DUP9 JUMPDEST DUP2 DUP2 LT PUSH2 0x19BB JUMPI JUMPDEST POP POP PUSH2 0x19B5 SWAP1 PUSH2 0x1403 JUMP JUMPDEST SWAP1 PUSH2 0x179C JUMP JUMPDEST SWAP2 SWAP3 POP SWAP1 DUP9 DUP9 DUP2 DUP2 JUMPDEST PUSH2 0x19F3 JUMPI JUMPDEST POP POP ISZERO PUSH2 0x19E2 JUMPI PUSH2 0x19D9 SWAP1 PUSH2 0x1403 JUMP JUMPDEST SWAP1 DUP8 SWAP3 SWAP2 PUSH2 0x19A2 JUMP JUMPDEST POP POP SWAP1 POP DUP5 PUSH2 0x19B5 DUP8 SWAP3 SWAP1 CODESIZE PUSH2 0x19AA JUMP JUMPDEST DUP10 MLOAD DUP2 LT ISZERO PUSH2 0x1A34 JUMPI PUSH2 0x1A0A DUP5 PUSH2 0xB51 DUP9 DUP12 PUSH2 0x14D4 JUMP JUMPDEST MLOAD PUSH2 0x1A15 DUP3 DUP13 PUSH2 0x14FB JUMP JUMPDEST MLOAD EQ PUSH2 0x1A2A JUMPI PUSH2 0x1A24 SWAP1 PUSH2 0x1403 JUMP JUMPDEST DUP2 PUSH2 0x19C4 JUMP JUMPDEST POP SWAP1 POP DUP9 CODESIZE PUSH2 0x19C9 JUMP JUMPDEST PUSH2 0x19C9 JUMP JUMPDEST POP PUSH2 0x17A1 JUMP JUMPDEST POP DUP3 PUSH2 0x1998 JUMP JUMPDEST PUSH1 0x1 DUP3 DUP2 SWAP3 PUSH2 0x1A54 DUP8 PUSH2 0x16E5 JUMP JUMPDEST DUP2 MSTORE ADD SWAP5 ADD SWAP3 ADD SWAP2 SWAP3 PUSH2 0x177D JUMP JUMPDEST PUSH4 0x4E487B71 PUSH1 0xE0 SHL DUP7 MSTORE PUSH1 0x41 PUSH1 0x4 MSTORE PUSH1 0x24 DUP7 REVERT INVALID DUP12 0xE0 SMOD SWAP13 MSTORE8 AND MSIZE EQ SGT PREVRANDAO 0xCD 0x1F 0xD0 LOG4 CALLCODE DUP5 NOT 0x49 PUSH32 0x9722A3DAAFE3B4186F6B6457E0A2646970667358221220ED05E25D36EB0D93B8 0xAC COINBASE SWAP7 SWAP13 0xC5 PUSH14 0x6A876FA5947CBA8AE45FE19B00E5 SSTORE GASPRICE JUMPI PUSH5 0x736F6C6343 STOP ADDMOD SGT STOP CALLER "},"methodIdentifiers":{"GAME_DURATION()":"c31b29ce","admin()":"f851a440","buyTicket(uint256[][5],uint8)":"c468c126","callNumber(uint256,uint256)":"edb75c2a","claimPrize(uint256)":"d7098154","currentGameId()":"536a3ddc","fullHousePercentage()":"db28865c","gameModeConfigs(uint8)":"234f54d6","games(uint256)":"117a5b90","getCalledNumbers(uint256)":"f3d6226d","getGameInfo(uint256)":"47e1d550","oneLinePercentage()":"9f6b188b","owner()":"8da5cb5b","playerCurrentGame(address)":"3a5ff200","renounceOwnership()":"715018a6","stakingContract()":"ee99205c","startNewGame(uint8)":"6ed296e4","ticketPrice()":"1209b1f6","transferOwnership(address)":"f2fde38b","updateGameModeConfig(uint8,uint256,uint256,uint256,bool)":"f030a1eb","usdt()":"2f48ab7d"}}}}}